:020000040800F2
:10000000000002205902000899030008A903000813
:10001000B1030008B9030008C10300080000000094
:10002000000000000000000000000000C9030008FC
:10003000CD03000800000000D1030008D50300082C
:10004000A9020008A9020008A9020008A9020008E4
:10005000A9020008A9020008A9020008A9020008D4
:10006000A9020008A9020008A9020008A9020008C4
:10007000A9020008A9020008A9020008A9020008B4
:10008000A9020008A9020008A90200080000000057
:10009000000000000000000000000000A9020008AD
:1000A000A9020008A9020008A9020008A902000884
:1000B000A9020008A9020008A9020008A902000874
:1000C000A9020008A9020008A9020008A902000864
:1000D000A9020008A9020008E103000800000000CE
:1000E000A9020008A9020008A902000800000000F7
:1000F000000000000000000000000000A90200084D
:1001000000000000A9020008D9030008A9020008A5
:1001100000000000000000000000000000000000DF
:10012000A9020008A9020008A9020008A902000803
:10013000A90200080000000000000000000000000C
:10014000000000000000000000000000A9020008FC
:10015000A9020008A9020008A9020008DD0300089E
:10016000A9020008A9020008000000000000000029
:10017000000000000000000000000000000000007F
:1001800000000000A90200080000000000000000BC
:08019000A9020008A902000801
:1001980053B94AB9002908BF00281CBF4FF0FF31E6
:1001A8004FF0FF3000F00CB8ADF1080C6DE904CE4B
:1001B8000BF074F8DDF804E0DDE9022304B07047C1
:1001C800704700BF0348044B834202D0034B03B17E
:1001D800184770475C0000205C0000200000000009
:1001E8000548064B1B1AD90F01EBA301491002D091
:1001F800034B03B1184770475C0000205C000020E7
:100208000000000010B5064C237843B9FFF7DAFF69
:10021800044B13B10448AFF300800123237010BDD1
:1002280060000020000000009CB5000808B5054BE0
:100238001BB105490548AFF30080BDE80840FFF74A
:10024800CFBF00BF00000000640000209CB500087C
:10025800DFF834D000F0DCF80C480D490D4A0023D3
:1002680002E0D458C4500433C4188C42F9D30A4A63
:100278000A4C002301E013600432A242FBD30AF0C7
:10028800DBFE00F00FF8704700000220000000209D
:100298005C000020B0B9000860000020040E0020B7
:1002A800FEE7000030B591B001F07CFC00F026F9C3
:1002B800042302221946602000F0B4F820B901F0A6
:1002C800D7FB03F0D5FD08B101F0D4FB00F038F9F5
:1002D8002D4902462D4801F0D9FB2C4801F060FC5D
:1002E800054601F07FFD0028EED04FF47A7000F04B
:1002F8002DF901F0F5FD0028E6D0284601F0DCFED6
:100308000028E1D000F01CF9012102461F4801F045
:10031800CFFB002DD8D02B78012BD5D115E01B4869
:10032800214601F01DFC04F007F828BB01F056FF38
:10033800204601F08FFF10B9204601F091FF1348C5
:10034800214601F029FC01F0A1FF00F0F9F804466C
:1003580001F044FF00F0F4F801F07CFF684601F07A
:10036800F3FD0028DBD000F0EBF8694604460246AE
:10037800064801F0A1FBD2E723460A2206212846B7
:1003880007F050FDD2E700BFCCB500088000002080
:1003980008B501F0C5FCBFF34F8F30BFFBE700BFC6
:1003A80008B5FFF7F5FF00BF08B5FFF7F1FF00BF7D
:1003B80008B5FFF7EDFF00BF08B5FFF7E9FF00BF7D
:1003C800704700BF704700BF704700BF00F0ACB86F
:1003D80003F09ABA01F0B2BD01F0FABE10B50446B6
:1003E80001F0D4FD00B110BD2046BDE8104001F079
:1003F80053BF00BF01F074BF10B5044601F0F4FD0F
:1004080000B110BD2046BDE8104001F093BF00BF09
:10041800034AD2F8883043F47003C2F88830704732
:1004280000ED00E0F0B595B01F4D204C0027019776
:100438002E6C46F080562E642D6C05F08055019583
:10044800019D0297256845F4404525602468119070
:1004580004F4404402944FF480350124CDE9084562
:1004680008A802244FF48005CDE90E45CDE91223F2
:10047800029C109100F006FA10B1012015B0F0BDF1
:1004880003460F240220CDE903404FF48052032194
:1004980003A8CDE90532079300F00EFCC01B18BF76
:1004A800012015B0F0BD00BF0038024000700040C8
:1004B800704700BF38B50E4A0E4B127805461868CB
:1004C8004FF47A73B3FBF2F3B0FBF3F000F0BEF82D
:1004D80008B90F2D01D9012038BD04460246294626
:1004E8004FF0FF3000F056F8034B20461D6038BD32
:1004F80004000020000000200800002008B5094B77
:100508001A6842F400721A601A6842F480621A602B
:10051800032000F02DF80F20FFF7CCFFFFF7C8FFEE
:10052800002008BD003C0240034A044B11681B78B8
:100538000B441360704700BFD80800200400002057
:10054800014B1868704700BFD808002038B504462A
:10055800FFF7F6FF631C054602D0044B1B781C44CA
:10056800FFF7EEFF401BA042FAD338BD040000207D
:100578000749CA6803024FF6FF0003F4E06302402C
:10058800134343F0BF6343F40033CB60704700BFAD
:1005980000ED00E01B4BDB68C3F3022300B5C3F199
:1005A800070EBEF1040F03F1040C28BF4FF0040E30
:1005B800BCF1060F1CD9A3F1030C4FF0FF3303FA6B
:1005C8000CF322EA03024FF0FF3303FA0EF321EA99
:1005D800030303FA0CF313431B010028DBB20ADB05
:1005E80000F1604000F5614080F800335DF804FBDD
:1005F80000229446E7E7044A00F00F00024413760D
:100608005DF804FB00ED00E0FCEC00E0002807DBEF
:10061800044A4109012300F01F00834042F82130B9
:10062800704700BF00E100E000280CDB43090649E1
:1006380000F01F0020330122824041F82320BFF33D
:100648004F8FBFF36F8F704700E100E00138B0F1C2
:10065800807F01D30120704710B44FF0E023074C8E
:1006680058614FF0F00C84F823C00022072110468F
:100678009A615DF8044B1961704700BF00ED00E016
:10068800002808DB4309044900F01F0001226033F9
:10069800824041F82320704700E100E02DE9F04F47
:1006A80000230C68DFF8C8A185B04FF0010B89461C
:1006B80003E00133102B00F087800BFA03F202EA03
:1006C8000408A243F5D1D9F8041001F0030C5A002C
:1006D80003250CF1FF379540012F6FEA050576D900
:1006E800BCF1030F08D0C76807EA050ED9F80870EF
:1006F800974047EA0E07C76007680CFA02F23D40C8
:100708002A4311F4403F0260D3D000220392DAF862
:10071800442042F48042CAF84420DAF8442002F423
:1007280080420392039A23F0030202F1804203F00D
:1007380003070F2602F59C32BF0006FA07FC494E54
:100748009568B04225EA0C0515D006F58066B042DA
:1007580075D0454EB04278D0DFF818C160457AD0E0
:10076800DFF814C160450CBF4FF0040C4FF0070CC4
:100778000CFA07F73D4395603C4A9268CE026FEA4F
:1007880008053A4E54BF2A4048EA0202B260F268AD
:10079800364E8F0254BF2A4048EA0202F26072685D
:1007A8008E03324E54BF2A4048EA02027260326811
:1007B800C90303F101032D4954BF2A4048EA020244
:1007C800102B0A607FF479AF05B0BDE8F08F876819
:1007D80007EA050ED9F80C70974047EA0E078760BC
:1007E800476827EA080EC1F300179F4047EA0E073B
:1007F8004760C76807EA050ED9F80870974047EAC6
:100808000E07BCF1020FC7607FF476AFDF0800EB7C
:10081800870700973E6AD9F81070019603F0070E13
:100828004FEA8E0E0F2607FA0EF706FA0EFE019E05
:1008380026EA0E0E009E47EA0E0737625CE74FF085
:10084800010C0CFA07F73D4395E74FF0020C0CFA40
:1008580007F73D438FE74FF0030C0CFA07F73D43CA
:1008680089E700BF0000024000080240003C014048
:1008780000380240000C02400010024002B909048E
:1008880081617047002800F06A812DE9F041036812
:10089800DD0782B004462FD59F498A6802F00C0212
:1008A800042A00F0EF808A6802F00C02082A00F09F
:1008B800E5806368B3F5803F00F0EE80B3F5A02FC4
:1008C80000F07981944D2A6822F480322A602A68DF
:1008D80022F480222A60002B40F0E380FFF730FEEC
:1008E800064605E0FFF72CFE801B642800F2038112
:1008F8002B689F03F6D423689D0728D5864A9168FC
:1009080011F00C0F00F09280916801F00C01082999
:1009180000F08880E368002B00F010817F4B7E4E4A
:1009280001221A60FFF70CFE054605E0FFF708FEF6
:10093800401B022800F2DF8033689F07F6D5336832
:10094800226923F0F80343EAC203336023681A07D5
:1009580053D45D0730D5704A136C13F0805300F000
:10096800818000256E4E3368D80540F1B480A368B5
:10097800012B00F0C480052B00F02D81664E326FEC
:1009880022F001023267326F22F004023267002B34
:1009980040F0BA80FFF7D4FD41F28838074605E0F9
:1009A800FFF7CEFDC01B404500F2A580336F9B07C3
:1009B800F6D4002D40F00981A369D3B1564DAA6839
:1009C80002F00C02082A00F0CC80022B534B4FF0A7
:1009D80000021A6600F00981FFF7B2FD044605E03F
:1009E800FFF7AEFD001B022800F285802B689B01F3
:1009F800F6D4002002B0BDE8F08163690BB3474B21
:100A0800454E0122C3F8802EFFF79AFD054604E003
:100A1800FFF796FD401B02286DD8736F9B07F7D52B
:100A2800236896E7526851023FF574AF3A4A126854
:100A3800920744D5E268012A41D0012002B0BDE8FE
:100A4800F081364A344EC2F8803EFFF779FD0546FC
:100A580004E0FFF775FD401B02284CD8736F9F0711
:100A6800F7D4DDE70193136C43F080531364136CE0
:100A780003F080530193019B012573E74A685102F3
:100A88007FF517AF244A126892037FF535AF626885
:100A9800002A7FF431AFD0E71F4A136843F480334C
:100AA8001360FFF74DFD1C4E054604E0FFF748FDB7
:100AB800401B64281FD833689B03F7D51BE71649EA
:100AC80020690A6822F0F80242EAC0020A601A079E
:100AD8007FF53FAF91E7336843F480733360FFF7E6
:100AE8002FFD07463368D9053FF541AFFFF728FDCD
:100AF800C01B0228F6D9032002B0BDE8F081064ADF
:100B0800136F43F001031367FFF71AFD024F064600
:100B180041F288380BE000BF00380240000047422D
:100B280000700040FFF70CFD801B4045E3D83B6F89
:100B38009A07F7D5002D3FF43FAF46E0424A434EAF
:100B48001360FFF7FDFC054604E0FFF7F9FC401BC6
:100B58000228D0D833689907F7D42368F7E601202C
:100B68007047012B3FF469AF6B68E26903F48001B9
:100B780091427FF462AF226A03F03F0191427FF411
:100B88005CAF616A47F6C0721A40B2EB811F7FF40E
:100B980054AFA26A520803F44031013AB1EB024F54
:100BA8007FF44BAFE26A03F07063B3EB026F14BFDC
:100BB800012000201EE7254B1A6842F480221A60A3
:100BC8001A6842F480321A606BE7204A136C23F0EB
:100BD80080531364F0E61D4B1A6F42F004021A6743
:100BE8001A6F42F001021A678EE7FFF7A9FC064662
:100BF80005E0FFF7A5FC801B02283FF67CAF2B68B9
:100C08009901F6D4D4E90731626A0B4343EA8213A7
:100C1800D4E90A2052080C4943EA0063013A43EA3E
:100C2800024301226B600A66FFF78AFC074D0446FF
:100C380005E0FFF785FC001B02283FF65CAF2B6838
:100C48009A01F6D5D5E600BF0000474200380240B9
:100C5800164908B58B6803F00C03042B1BD0082B2E
:100C680001D0134808BD4A684B68496813F48003EB
:100C780002F03F0211D10E48C1F38811A1FB000117
:100C8800FFF786FA094B5B68C3F3014301335B0046
:100C9800B0FBF3F008BD074808BD0648C1F388114A
:100CA8000023A1FB0001FFF773FAEBE700380240CD
:100CB8000024F40000127A00002800F08780484AD7
:100CC800136803F007038B422DE9F0410D460446F3
:100CD80009D2CBB21370136803F007038B4202D01A
:100CE8000120BDE8F0812368980714D5590704D579
:100CF8003C498A6842F4E0528A601A0704D53949A7
:100D08008A6842F460428A603649A0688A6822F09C
:100D1800F00202438A60DF0721D56268012A57D0B2
:100D2800931E012B2F4B1B684DD99907D8D52D4EF3
:100D3800B36823F003031343B360FFF701FC41F2E8
:100D48008838074604E0FFF7FBFBC01B404544D842
:100D5800B368626803F00C03B3EB820FF3D1204A47
:100D6800136803F00703AB4206D9EBB2137013689C
:100D780003F00703AB42B3D123685A0706D51949D4
:100D8800E0688A6822F4E05202438A601B0707D5AC
:100D9800144A2169936823F4604343EAC1039360CA
:100DA800FFF756FF0F4A104C92681049C2F303121E
:100DB8000346A25C0E48D34000680B60FFF77AFB3D
:100DC8000020BDE8F0819801B1D489E7012070477F
:100DD800044B1B689E03AAD482E7032081E700BF67
:100DE800003C024000380240BCB50008000000206A
:100DF80008000020044B05499B68054A0868C3F3AE
:100E08008223D35CD840704700380240000000209D
:100E1800B4B50008044B05499B68054A0868C3F344
:100E28004233D35CD84070470038024000000020AD
:100E3800B4B50008026802F10C0353E8003F23F43C
:100E4800907302F10C0C4CE800310029F3D102F147
:100E5800140353E8003F23F0010302F1140C4CE89B
:100E680000310029F3D1036B012B05D02022002388
:100E780080F842200363704702F10C0353E8003FF7
:100E880023F0100302F10C0C4CE800310029F3D1D7
:100E9800ECE700BF0268116938B50446C068A3686A
:100EA80021F4405101432069116103436069D1680D
:100EB8000343E06921F4164121F00C0103430B437D
:100EC800D3605369A069234923F4407303438A42DA
:100ED800536105D0204B9A4202D0FFF78BFF01E007
:100EE800FFF798FFE2691921B2F5004FD4E90053E2
:100EF800A0FB010113D09A009B0FFFF749F9174A8D
:100F0800A2FB00135B09642101FB130000013230CE
:100F1800A2FB00201B0103EB5013AB6038BDDA18AD
:100F28004FF000035B41FFF733F90C4AA2FB003195
:100F38004909642303FB1103DB003233A2FB0323BB
:100F4800C3F342121B0902EB011203F4F8731344B2
:100F5800AB6038BD00100140001401401F85EB5103
:100F6800704700BF70B310B590F84130044603F0E5
:100F7800FF0213B32268242384F84130D36823F492
:100F880000532046D360FFF785FF2368196921F4D1
:100F980090411961596921F02A015961D9680022E3
:100FA8004FF0200C41F40051D960626484F841C0CC
:100FB80084F842C01046626310BD80F84020FFF7F5
:100FC800CFFFD7E701207047704700BFB8B102686C
:100FD800242310B580F84130D36823F40053044625
:100FE800D360FFF7F1FF0023636484F8403084F88E
:100FF800413084F8423018462363636310BD0120F2
:10100800704700BF90F84130202B15D101B10AB9C3
:101018000120704710B40023046801622121C284B2
:10102800436480F84110E168828441F08001E16006
:1010380018465DF8044B70470220704790F842301C
:10104800202B03D101B11AB9012070470220704743
:1010580010B4046981620023222103638285C2855A
:101068004364036880F842101CB1DA6842F4807265
:10107800DA605A695DF8044B42F001025A61DA6895
:1010880042F020020020DA60704700BF036810B504
:10109800044603F10C0252E8002F22F4907203F187
:1010A8000C0040E800210029F3D103F1140252E8B2
:1010B800002F22F0010203F1140040E8002100296A
:1010C800F3D1226B012A28D05A69520607D400238B
:1010D8002022E38584F842201846236310BD03F1DB
:1010E800140252E8002F22F0400203F1140040E8F5
:1010F80000210029F3D1E06B0028E8D00023036524
:1011080000F058FC0028E2D0E06B00F0AFFC20288B
:10111800DDD110236364032010BD03F10C0252E8F3
:10112800002F22F0100203F10C0040E800210029F2
:10113800F3D1C9E708B5806B0023C385FFF75CF9D5
:1011480008BD00BF704700BF90F84230222B49D13C
:1011580083680168826AB3F5805F44D0002B4BD165
:101168000369002B48D14B68DBB21370826A0132E5
:10117800C38D8262013B9BB2C385002B32D100B57F
:101188000268D16821F0200183B0D160D16821F4D0
:101198008071D16051694FF0200C21F0010151613B
:1011A80080F842C04363016B012929D1036302F12E
:1011B8000C0353E8003F23F0100302F10C0C4CE839
:1011C80000310029F3D11368DB0605D501911368B6
:1011D800019353680193019B818DFFF7B3FF03B01F
:1011E8005DF804FB70470369002BBCD14B68C3F35F
:1011F800080322F8023BBBE74B6803F07F03B4E720
:10120800FFF7ECF803B05DF804FB00BF70B50568A4
:101218002B68EE68696913F00F0F82B004462A46FE
:1012280013D19D0602D5B10600F1E080216B01299A
:101238003DD0180602D5310600F1AE805B0602D516
:10124800750600F1C88002B070BD11F0010140F0D0
:101258008D8016F4907FE9D0DA070BD5F00540F1C0
:101268005381626C580742F00102626440F1CD80FC
:1012780000297FD1980740F1CA80190700F103813E
:10128800626C002ADFD09A0602D5B30600F14081CD
:101298006B69626C03F0400302F0080253EA02062D
:1012A800204640F0C080FFF7A7F86664CBE7D80671
:1012B800BFD5F106BDD50023019313680193536888
:1012C8000193019B5169A38D4D0640F1E380E06BCA
:1012D8000168496889B2002900F01F81994280F0AD
:1012E8001C81E185C169B1F5807F36D002F10C031C
:1012F80053E8003F23F4807302F10C0545E8003100
:101308000029F3D102F1140353E8003F23F001034D
:1013180002F1140545E800310029F3D102F1140364
:1013280053E8003F23F0400302F1140545E800317B
:101338000029F3D1202384F84230216302F10C0301
:1013480053E8003F23F0100302F10C0545E8003193
:101358000029F3D100F02EFBA38D02226263E18DF8
:10136800591A204689B2FFF7EDFE6CE7DA0747D431
:10137800580740D5626C990742F0020262643CD576
:10138800626C42F0040262641A077FF579AF626CFE
:1013980042F00802626473E794F84130212B7FF42D
:1013A80052AFA168236AB1F5805F00F0BF80591C75
:1013B80021621B785360E38C013B9BB2E384002BD2
:1013C8007FF441AFD36823F08003D360D36843F040
:1013D8004003D36037E7D368202123F04003D3606C
:1013E800204684F84110FFF705F82CE702B0BDE865
:1013F8007040FFF7A9BE9907C2D41A07C7D43FE7C0
:10140800F0053FF52EAF5A07B4D498073ED4180715
:101418007FF536AF06F020020A43B8D1636C002B83
:101428007FF436AF0FE7FFF705FD6B695E0626D53B
:1014380005F1140353E8003F23F0400305F11401BC
:1014480041E8003262B1226802F1140353E8003F18
:1014580023F0400302F1140040E800310029F3D1E1
:10146800E06B60B1374B036500F0EEFA00283FF4FB
:10147800EAAEE06B036D02B0BDE870401847204645
:10148800FEF7BAFFDFE6B20681D4C7E700293FF4CA
:10149800F4AE75E7E08DE18D89B280B200293FF4A2
:1014A800D2AE1B1A99B200293FF4CDAE02F10C035B
:1014B80053E8003F23F4907302F10C0545E800302F
:1014C8000028F3D102F1140353E8003F23F001038D
:1014D80002F1140545E800300028F3D1202384F8F0
:1014E8004230206302F10C0353E8003F23F010035D
:1014F80002F10C0545E800300028F3D102236363AC
:101508002046FFF71FFE9EE65A073FF5B3AE7CE77D
:101518002046FFF719FE2568BAE699427FF493AE94
:10152800C369B3F5807F7FF48EAEE7E721690029B0
:101538007FF43DAF33F8021BC1F308015160236209
:1015480039E700BF3D110008036A026A22F0010270
:1015580070B40262446882690D6822F073022A43FB
:101568008D6823F002032B430B4DA84206D049682F
:101578004460826170BC416303627047CD6823F0A8
:1015880008032B43D1E9055624F44074354323F06E
:1015980004032C43EBE700BF00000140036A026A22
:1015A80022F4807270B402624468C2690D6822F045
:1015B80073022A438D6823F4007343EA05230C4D14
:1015C800A84206D049684460C26170BCC163036226
:1015D8007047CD6823F4006343EA0523D1E9055633
:1015E80024F44054354323F4806344EA0514E9E7BE
:1015F80000000140036A026A22F4805230B4026299
:101608004468C2690D6822F4E64242EA05228D6800
:1016180023F4005343EA0533074DA84206D049682E
:101628004460C26130BC0164036270474D6924F4B0
:10163800804444EA8514F2E70000014091BB90F829
:101648003E30012B3AD1022380F83E30036801F086
:101658001F01186A01228A4020EA02001862186AEB
:10166800224902438B421A6232D0B3F1804F0ED026
:101678001F4A93420BD002F58062934207D002F5CD
:101688008062934203D002F59A32934204D19A6859
:1016980002F00702062A03D01A6842F001021A6013
:1016A8000020704704290BD0082916D090F8413043
:1016B800012B03D1022380F84130C7E7012070478E
:1016C80090F83F30012BF9D1022380F83F30BDE775
:1016D8005A6C42F400425A64D9E790F84030012B22
:1016E800ECD1022380F84030B0E700BF0000014091
:1016F80000040040036810B41A6A01F01F044FF098
:10170800010C0CFA04FC22EA0C021A621E4A1C6A3A
:101718001C62934222D01C6A41F21112144204D175
:101728001C6A40F24442144213D0012329B980F8BC
:101738003E305DF8044B0020704704291DD008296D
:101748000CBF80F8403080F841305DF8044B002031
:1017580070471A6822F001021A60E6E71C6A41F233
:1017680011121442D7D11C6A40F244421442D2D119
:101778005A6C22F400425A64CDE780F83F305DF895
:10178800044B0020704700BF00000140704700BFB5
:10179800FFF754BFFFF7AEBF70B4264E4A6903681F
:1017A8008D680C68B04235D0B0F1804F1CD0A6F5DA
:1017B8007C46B04218D006F58066B04214D006F5D3
:1017C8008066B04210D01C4EB04211D006F580663B
:1017D800B0420DD006F58066B04209D023F08003F0
:1017E800C5621A4384620CE04E6823F070033343E9
:1017F800C968C56223F440730B4323F080031A437E
:1018080084620368012143F00403036070BC4161F2
:10181800026070474E6823F070033343CE68C56298
:1018280023F44073846233430969016323F080031E
:101838001A43E6E7000001400040014050B310B5EC
:1018480090F83D30044603F0FF02F3B1214602232D
:1018580084F83D3051F8040BFFF79EFF012384F80C
:10186800463084F83E3084F83F3084F8403084F8BD
:10187800413084F8423084F8433084F8443084F8A6
:10188800453084F83D30002010BD80F83C20FFF73B
:101898007DFFDBE701207047036A026A22F010022D
:1018A80070B40262446882690D6822F4E64242EA32
:1018B80005228D6823F0200343EA05130C4DA84246
:1018C80006D049684460826170BC816303627047D6
:1018D800CD6823F0800343EA0513D1E9055624F4C3
:1018E8004064354323F0400344EA8504E9E700BF38
:1018F8000000014038B590F83C30012B57D0012347
:1019080004460D4680F83C300C2A08D8DFE802F07F
:101918001E0707072E0707073F0707070C000120C8
:10192800002384F83C3038BD0068FFF763FEC369C4
:101938002A6943F40063C361C36923F48063C36104
:10194800C36943EA0223C3610020E9E70068FFF79F
:10195800FBFD83692A6943F008038361836923F0E7
:1019680004038361836913438361EDE70068FFF72C
:1019780093FF83692A6943F400638361836923F4CD
:1019880080638361836943EA02238361DCE700683B
:10199800FFF704FEC3692A6943F00803C361C369FA
:1019A80023F00403C361C3691343C361CCE7022076
:1019B80038BD00BF70B50446866DFEF7C1FD94F8CA
:1019C8003530022B06D080236365002384F8343039
:1019D800012070BD23681A6822F016021A605A693D
:1019E80022F080025A61226C054642B31A6822F03E
:1019F80008021A601A6822F001021A6005E0FEF770
:101A08009FFD431B052B10D823681B6813F00103A7
:101A1800F5D1E16D3F228A40184601210023B260CA
:101A280084F8351084F8343070BD032320226265B1
:101A3800184684F83530002384F8343070BDA26C21
:101A4800002AD3D1D6E700BF90F83530022B03D057
:101A580080234365012070470268052380F83530EC
:101A6800136823F00103002013607047406D70472E
:101A780000F0F8B808B500F093F930BFFDE700BFF3
:101A880011B10860012070470846704778B170B5F9
:101A98000D461646044640F65802002109F0C3FADE
:101AA800324629462046BDE8704006F0BFB9704767
:101AB80008B106F005BA70472DE9F04188B006462E
:101AC80017460C4620220021684609F0ACFA002E81
:101AD80041D0002C3FD096F84B08D4E90423A0B39A
:101AE800D6F85008D6F85418994208BF904206F51F
:101AF800056830D0CDE90023D4E90D212346C6E995
:101B0800D22133F8022BD4F8020003920490104635
:101B1800A269029201259A889B79ADF8142006A93A
:101B28008DF816308DF81C50FFF7AAFF3A468DF84D
:101B38001D003046D4E904676946C8E9006706F025
:101B48003BFB284608B0BDE8F08152EA0301F9D012
:101B580006F50568CEE7002008B0BDE8F08100BFB3
:101B6800C0B170B50D46044606F0E6FA284602F004
:101B780087FA28B929462046BDE8704007F0EEBA32
:101B880002F00EFA2B4620460A22BDE870400621D4
:101B980006F048B9704700BF08B107F0F1BA7047BE
:101BA800704700BF1C4A1D4B116B41F0020182B007
:101BB8001163116B01914FF4C02001999861D968A4
:101BC800174821F03C0141F02801D960596821F0FB
:101BD80006015960196821F03C0141F014011960AF
:101BE800136C43F003031364136C01934FF0804CA0
:101BF8000021019BCCF83C10C163DCF8203023F4B1
:101C08008073CCF82030036A23F480730362BFF337
:101C18004F8F02B0704700BF0038024000040240F6
:101C28000004004010B59AB004464422002109A8D7
:101C380009F0F9F9002341F2BF21602208A8CDE993
:101C48000333CDE9053302930B910192079308946E
:101C5800FFF7F4FD082201A908A8FFF74BFE1AB008
:101C680010BD00BF70B58AB02A4B002401941A6BCE
:101C780042F002021A631A6B02F002020192019A00
:101C880002941A6C42F001021A641A6C02F0010202
:101C98000292029A03941A6C42F002021A641B6CB4
:101CA80003F002030393039B00F03AF81A490894DF
:101CB8004FF4C0228A6102250623012604A916488A
:101CC8000493CDE905650795FEF7E8FC04A94FF4F0
:101CD8008062022310480896CDE90423CDE9064521
:101CE800FEF7DCFC0122022304A90B480694CDE987
:101CF8000423CDE90755FEF7D1FC4FF08040FFF7EC
:101D080091FF0648FFF78EFF0AB0BDE8704000F06B
:101D180047B800BF003802400004024000040040F9
:101D28001C4A1D4B116B41F0020182B01163116B0B
:101D380001914FF4C02001999861D968174821F0A2
:101D48003C0141F02801D960596821F00601596029
:101D5800196821F03C0141F014011960136C43F03B
:101D680003031364136C01934FF0804C0021019B13
:101D7800CCF83C10C163DCF8203023F48073CCF835
:101D88002030036A23F480730362BFF34F8F02B0DD
:101D9800704700BF003802400004024000040040C1
:101DA800FFF7BEBF08B568B90B490C480122FFF719
:101DB80045F908B9012008BD094AD3690133002053
:101DC800D36108BD0548FFF761F90028ECD0044A43
:101DD800936901339361E7E75809002060090020FF
:101DE800DC080020F0B5282287B000213548364DA0
:101DF800002409F018F9354800F0C6FACDE9014485
:101E0800CDE90344009405942B6B314843F0040357
:101E18002B632B6B03F00403224600934FF480716D
:101E28000227009B0126FEF729FD4FF480732848FE
:101E3800039401A9CDE901360497FEF72FFCC023CE
:101E48002348019301A908230593CDE90347029785
:101E5800FEF724FC01946B6C43F020036B646B6CFD
:101E680003F020030193019A1A4A1B4B13604FF4A5
:101E7800E133536010460C23C2E90244C2E904432B
:101E8800C2E90644FFF76EF810B1002007B0F0BDB4
:101E9800024605214720FEF77DFB4720FEF7B6FBEB
:101EA8000E490C483246FFF7C9F810B9304607B05A
:101EB800F0BD044AD36947203344D361FEF7B4FB2D
:101EC800E3E700BFDC0800200038024008090020D2
:101ED8000008024060090020001401405809002051
:101EE80008B54720FEF7A0FB1048FFF7CFF80F48CA
:101EF800FFF76CF808B1002008BD0C48FFF732F86E
:101F08000028F8D10A4800F03FFA4720FEF77EFB88
:101F1800084906480122FFF791F808B9012008BDD1
:101F2800054AD3690133D361E5E700BF60090020A2
:101F38000809002058090020DC0800200148FFF7A4
:101F480065B900BF6009002038B50446D0B1EFF389
:101F5800108572B60C4800F0ABFA8646BEE80F0052
:101F6800A446ACE80F00BEE80F00ACE80F00BEE8DE
:101F78000F00ACE80F009EE80F008CE80F0005B9D1
:101F880062B6012038BD00BF0809002028B1114BF6
:101F980002689A4202D000207047704710B50E4C74
:101FA800236801332360FEF7CBFA0C49034601226C
:101FB8000B4800F0EFF909490A480122FFF73EF8FB
:101FC80008B9012010BDE36901200344E361FFF76C
:101FD800E9FEF6E700140140DC080020580900205B
:101FE800080900206009002028B1174B02689A42AE
:101FF80002D000207047704710B5144B446C5A68E3
:1020080090F842101C6201325A60426C5962120701
:1020180002D59A6801329A60426C540702D5DA6890
:102028000132DA60426C910702D51A6901321A61ED
:10203800426CD20702D55A6901325A610120FFF772
:10204800B1FE012010BD00BF00140140DC080020D3
:10205800B0B170B50D4649B116464FF6FE73013A58
:102068009A4203D80446FFF711F808B1002070BD62
:10207800B2B229462046FEF7C5FF18B9012070BD47
:1020880000207047054906480122FEF7D7FFB0FA3D
:1020980080F14909034800F0C7FEE7E7E80A002095
:1020A800F00A0020A80900200A4602480221FEF78B
:1020B800E5BB00BF0000024000286ED02DE9F041CA
:1020C800014688B03848394E002400F0C5FB38482E
:1020D80000F050FECDE90344CDE90544029407948D
:1020E800336B344843F001033363336B03F001036C
:1020F8002246029302210225029B0127FEF7BEFB1E
:102108002C4803A9CDE90357CDE905454FF00C0844
:10211800FEF7C4FA07232748049503A90695264D18
:1021280007930594CDF80C80FEF7B8FA234B244AA0
:102138001D492448009500F0B5FDC5E90244C5E9EC
:1021480006440394C5F814802C61336C1E4A43F48A
:1021580000333364336C03F40033039328464FF49D
:10216800E133C5E900230399FEF7FCFE18B100200E
:1021780008B0BDE8F081024605212620FEF70AFADC
:102188002620FEF743FA11493A462846FEF756FF3D
:1021980028B9384608B0BDE8F081002070472620ED
:1021A800FEF742FAE3E700BF140A002000380240B5
:1021B800A809002000000240F00A00205920000869
:1021C800B1200008000A002000440040E80A00206E
:1021D8000148FFF71BB800BFF00A002070B5194B83
:1021E80090B026205E68FEF71FFABFF35F8F3F228C
:1021F8006946154800F0ECFD0546134800F036FE28
:102208000446BFF35F8F710606D455B9A2070FD4F1
:10221800E30712D410B070BD2620FEF7F7F9002DA1
:10222800F4D02A460948694600F022FBA207EFD5F8
:10223800074800F08BFD10B070BD054800F072FD36
:1022480010B070BD00E100E0A8090020140A0020C9
:10225800000A00200146014800F04CBB140A002087
:1022680010B50446084800F033FB08B9002010BD3B
:10227800054800F037FB0028F8D121460248BDE8A0
:10228800104000F0B7BB00BF140A0020014800F05E
:102298001BBD00BF000A002028B10D4B02689A42FE
:1022A80002D000207047704710B50A4C0A482178C0
:1022B80000F070FD012221460848FEF7BFFEB0FA83
:1022C80080F14909044800F0AFFD012010BD00BFAE
:1022D80000440040E80A0020A8090020F00A002075
:1022E800E0B108B502680E4B9A4201D0002008BD43
:1022F80000220C480221FEF7C1FA0B48012100F028
:10230800A9FD012209490A48FEF798FEB0FA80F1B2
:102318004909054800F088FD012008BD704700BF45
:102328000044004000000240A8090020E80A0020FC
:10233800F00A0020E0B108B502680E4B9A4201D0BD
:10234800002008BD00220C480221FEF797FA0B482E
:10235800022100F07FFD012209490A48FEF76EFEBE
:10236800B0FA80F14909054800F05EFD012008BD7A
:10237800704700BF0044004000000240A809002048
:10238800E80A0020F00A002018B15022002108F0C5
:102398004ABE7047002800F08A80002900F0878034
:1023A800002A00F084802DE9F041013A82B01F46EE
:1023B80004464D1E8E184FF0000809E0FD2820D075
:1023C800226BE36B013201332263E363B5421DD014
:1023D800A26815F8010F002AF0D0511C0729A05453
:1023E800A160F3D101AA2046ADF8048000F05EFD9B
:1023F80090B304280DD005280ED1A36B0133A36335
:102408000AE00123B5422070A360E1D102B0BDE823
:10241800F081636B01336363A268D4F83CC0012A7E
:1024280041D92346012102E0013191420FD013F82E
:10243800010FFD28F8D10CEB01038A42E36308D9A8
:10244800521AA2602144204608F0D4FDBEE7614438
:10245800E1630023A360B9E72346A28853F8121B5F
:10246800C4F81210A17999719A80E36ABDF8040042
:1024780053B1226C616CBA1A09B18A4200D2626403
:10248800A16C8A4288BFA2640133C4E90A73236A33
:10249800208201332362636A276443F10003636285
:1024A8000023A36092E70CF10103E363D1E77047CF
:1024B80000B11030704700BF2DE9F0410C4684B0E0
:1024C80015460127064600222946204698468DF8DB
:1024D8000870039206F066FEA8B95EB1062C0DD00E
:1024E800052C0CD1012D19D0AB1E012B07D8B8F53E
:1024F8007F4F2FD0384604B0BDE8F081EDB10620FB
:1025080004B0BDE8F0810A9B00932A464346214661
:10251800304606F06DFE04B0BDE8F081B8F57F4F97
:102528001DD0B8F1000F13D12B460A9A8DF8083048
:1025380002A9304605F00AFDE2E707230A9A8DF85A
:10254800083002A93046CDF80C8005F0FFFCD7E72B
:102558002846D5E7032D14BF09230823E5E70346DA
:10256800E3E700BF70B513460C4615460A4601213D
:10257800064607F021FD30B936B12DB124B996F8D9
:10258800943013B92C80012070BDB6F87840F9E773
:102598002DE9F8430C4617460A46002180461E4698
:1025A80007F00AFD60BB0546B8F1000F29D046B315
:1025B80001F066FF814620B3A4F10B03062B1AD95C
:1025C800A4F11403032B1FD9242C1AD8DFE804F034
:1025D800BDB1ADA9A5A19E969390741919191919A1
:1025E8001919706C19191919686460574E4A4642CE
:1025F8003E3734312F0008EB040090F85D3033800B
:1026080001252846BDE8F883C4F11704D8F85C1002
:10261800D8F858302401C4F12002E34001FA02F24C
:10262800203C134321FA04F423433380E8E737803E
:10263800E6E73A0C3280E3E700233380E0E798F8D6
:102648009430002BDBD0B8F87830D8E7D8F8A4302D
:102658003380D5E7B8F8A6303380D1E7D8F8A03072
:102668003380CDE7B8F8A2303380C9E7D8F8AC207A
:102678004FF6FF73934228BF13463380C0E7D8F85C
:10268800A8204FF6FF73934228BF13463380B7E75D
:10269800B8F8B0303380B3E7D8F860303380AFE7AC
:1026A800B8F862303380ABE790F82C303380A7E776
:1026B80090F82B303380A3E73946404605F02CFCD0
:1026C80099F8283099F8291099F82A209B0043EAAC
:1026D800C10398F8941043EA410343EA021398F8B7
:1026E8004C2003439BB2002A3DD143F0200386E7E8
:1026F800C38C338084E7838C338081E742684FF64C
:10270800FF73934228BF1346338079E703783380F9
:1027180076E798F80330338072E798F80230338010
:102728006EE798F8013033806AE798F80030338014
:1027380066E798F874309BB1D8F864204FF6FF73B9
:10274800934228BF13469BB259E798F874303BB1BF
:1027580098F8753023B1D8F87030B3F5803FF2D3CC
:102768004FF6FF734BE743F0600348E7436A072BD4
:1027780071D970B50446051D461D0621284600F08E
:10278800B9FB62892379824211D0012B04D1D4F894
:10279800B4300133C4F8B430D4F8BC30626A0133C1
:1027A800012AC4F8BC302CD80023636270BD012B09
:1027B80013D0D4E92E13626A01310833082AC4E918
:1027C8002E13F1D9083A626204F10C01284608F088
:1027D80011FC636A072BD0D870BDD4F8B02061799A
:1027E80001320529C4F8B02012D0A36C032B1FD9DD
:1027F800D4F8C4300133C4F8C430626A082AD3D983
:10280800E0E7013A62623146284608F0F3FBE0E768
:10281800E288B2F5807FE8D12289002AE5D194F8D0
:1028280054208AB1D4F8C8300133C4F8C830E4E77A
:1028380005332868696844F8330004EBC302516023
:10284800A36C0133A364D8E72A6869682165E26448
:1028580084F85430D1E7704748B138B504460D467E
:10286800D0220021043008F0DEFB256038BD704717
:1028780068B361B35AB3013A2DE9F04705464E1ED5
:102888008F184FF01F0A00F1050900F104080AE04B
:10289800621C2C4416F8013F237128466A62FFF730
:1028A80065FFBE4211D06C6A202CF1D1D5F8BC303E
:1028B800C5F824A001331F22C5F8BC30494640465C
:1028C80008F098FB22461F24E3E7BDE8F08770472D
:1028D80010B5044628B1FFF749FFA06C003818BFAF
:1028E800012010BD10B5044618B1FFF73FFF94F85A
:1028F800540010BD2DE9F04184B040B1036804468E
:102908002BB10D46FFF732FF94F8546026B9002624
:10291800304604B0BDE8F0810095E06C216DB4F854
:102928004E2002AB03C3B4F8503094F84D10206821
:10293800002552BA5BBA9BB292B284F85450FFF7A2
:10294800BBFDD4F8CC30A26CA5641344C4F8CC30D9
:1029580094F8AC30002B39D100283DD048F201530F
:102968000128A4F8853004F1850841D006280CBF59
:102978000223042384F887300321404600F0BAFA82
:10298800030A84F88930D4F8C03084F88800052216
:102998000133C4F8A820C4F8C03094F88450012743
:1029A80084F8AC70002DB3D1D4F8A820414604F1C6
:1029B8005D0008F065FBD4F8A830C4F8803084F8CE
:1029C8008470C4F8A85084F8AC50A1E7D4F8D0308B
:1029D8000133C4F8D0309BE702AB03CB082304F1E2
:1029E8008508C4F88500C4F88910C4F8A830D4E76D
:1029F8000323BFE700285FD02DE9F047036884B0C0
:102A0800044643B10D46FFF7B1FE94F8543013B9AC
:102A180094F884301BB1002004B0BDE8F08720464C
:102A2800FFF7A4FEA16C0029F5D0A26AC4F85520CE
:102A38000129E26AC4F8592004F1550604F1280373
:102A48000CD00122194653F8080FD3F804C0C1F876
:102A580004C00860A16C01329142F3D894F8568002
:102A6800A8F103030139012BA16464D9A8F1050376
:102A7800012B23D9012568F07F0884F85D5084F87C
:102A88005E8084F85F50032104F15D0000F032FAA3
:102A9800D4F8C03084F86000010A05222B4484F879
:102AA8006110C4F8802084F88450C4F8C0302046EF
:102AB800FFF75CFE0120AFE700207047B4F857A08D
:102AC800B4F859309AFA9AF7BFB25BBA3946404619
:102AD8001FFA83F906F066FB98B9B8F1060F0DD016
:102AE8007B1E022B0DD9012568F07F08022384F88C
:102AF8005D5084F85E8084F85F30C4E7BAF1000F57
:102B0800F1D1009520684B463A464146FFF7D4FC80
:102B180000285FD0012800F0908006280CBF02230F
:102B28000423012568F07F0884F85D5084F85E80EE
:102B380084F85F30A7E7B4F85990B4F8577099FA59
:102B480099F91FFA89F909F1FF337FBA0A2BBFB245
:102B580068D84FEA490A264604EB490913E00DF103
:102B68000E032A46FFF714FD0137B0B1BDF80E3049
:102B780086F861301B0A86F860300236B14537D0D6
:102B8800B7F5803F09D0B8F1030F2068B9B2E6D194
:102B98000DF10E02FFF7E6FCE6E7012568F07F0875
:102BA800022384F85D5084F85E8084F85F30032146
:102BB80004F15D0000F09EF9D4F8C03084F860009C
:102BC800010A052284F86110C4F8802084F8845032
:102BD8002B446AE77168D4F85500C4F85D000822F0
:102BE8000123C4F86110C4F8802084F884305EE7BB
:102BF80004F15D0501260AF105030AF103072846D9
:102C080084F85D6084F85E8084F85FA0C4F8803042
:102C1800394600F06FF9E8555544000A287184F8E0
:102C2800846044E70321012568F07F0884F85D503B
:102C380084F85E8084F85F10BAE7032371E700BF69
:102C480048B149B190F8843023B1D0F880300B6096
:102C58005D307047184670470846704770B138B500
:102C680090F8AC300025044680F88450C0F88050B5
:102C78002BB92046BDE83840FFF778BD7047D0F83B
:102C8800A82000F185015D3008F0FAF9D4F8A820F1
:102C9800C4F88020012384F88430C4F8A85084F84C
:102CA800AC50E6E710B4019C50B1C0E90012002115
:102CB800C0E9023401611AB120465DF8044B10479F
:102CC8005DF8044B704700BF40B330B50446006858
:102CD80083B028B163681BB1A3680BB1237C1BB117
:102CE8000021084603B030BD01A9FFF7A9FF05463A
:102CF8000028F5D06368E068012198472946A36851
:102D0800019AE0689847014620B1012308462374D8
:102D180003B030BD6368E0689847E1E700210846E2
:102D2800704700BF80B1436810B5044623B1C0683E
:102D380000219847237C03B910BD00232068237421
:102D4800BDE81040FFF78ABF704700BF80B14368F5
:102D580010B5044623B1C06800219847237C03B905
:102D680010BD002320682374BDE81040FFF776BF2C
:102D7800704700BF68B110B540220021044608F032
:102D880052F9002323646364A364E36423656365E1
:102D980010BD7047C8B1026CBFF35B8F531C03F0C2
:102DA8003F03D0F844C0BFF35B8F634505D081541F
:102DB800BFF35B8F036401207047483050E8003F41
:102DC800013340E80032002AF8D10020704700BFE4
:102DD80070B5864610B111B30AB9104670BD436C80
:102DE800BFF35B8F056CBFF35B8F9D4219D0013A2F
:102DF8008E1801F1FF3C5C1C1EF80300624604F0CB
:102E08003F030232AB420CF8010FA2EB010001D0E4
:102E1800B445F0D1BFF35B8FCEF8443070BD08469F
:102E280070BD0020F6E700BF50B100F14C0353E835
:102E380000CF0CF1010C43E800C2002AF7D101B120
:102E48007047503050E8003F013340E80032002A14
:102E5800F8D1704748B1BFF35B8F543050E8003F5A
:102E68000B4340E80032002AF8D1704760B1BFF345
:102E78005B8F00F15403002253E8000F43E8002160
:102E88000029F9D1BFF35B8F704700BF60B151B122
:102E98000139431E4218002013F8011F934280EAAB
:102EA8000100F9D170470846704700BFE0B170B51E
:102EB8001546DAB1072911D10378FD2B04460FD145
:102EC80005214679FFF7E2FF86420BD1A379FE2B55
:102ED8000ED1B4F801302B80002070BD022070BDE7
:102EE800032070BD042070BD01207047012070BD13
:102EF800052070BD8446E0B1C9B100B500EB010EF4
:102F08004FF6FF701CF8013B0822584000F00103FF
:102F180003EB830103EB413383EA5000531E13F0A4
:102F2800FF0280B2F2D1E645ECD15DF804FB084619
:102F3800704770470120704748B91D4B5B6903F023
:102F48000603062B0A46014609D000207047184B95
:102F58005B6903F00603062B4FF00002F5D14FF032
:102F68008043186A10F4807014D010B4114C206A91
:102F780010F480700BD0186810F0010007D020689A
:102F880010F0010003D0D86B904204D000205DF807
:102F9800044B70477047E26B8A42F7D1DB6B23B171
:102FA800E06BB0FA80F04009F1E70120EFE700BFDD
:102FB8000004024000040040F0B5044689B00D4604
:102FC800164600214822CDE90211CDE90411CDE9C8
:102FD80006111F4608F027F841F2BF22E26025607B
:102FE800602220460192FEF729FC20B1084B1E7092
:102FF800002009B0F0BD082201A92046FEF77AFC9E
:1030080010B9012009B0F0BD014B1F70F0E700BFF7
:10301800380B002010B5FDF7EDFE1B4B9B6813F431
:10302800E05F1A4B18BF4000984201D0002010BD45
:103038004FF08042906A0028F8D1154CA16A002907
:10304800F5D1D36A41F2BF208342EFD1E06A9842BA
:10305800ECD1D36903F07003602BE7D1E36903F087
:103068007003602BE2D1136A13F40073DED1216A76
:103078008905DBD4D3695B07D8D4E069C0F3800045
:1030880080F00100C0B210BD0038024000D8B80579
:10309800000400402DE9F0474FF08044A44FA54DAF
:1030A8000026814688463E70FEF73AFE236823F0E4
:1030B800010323602B6823F001032B6026612E6136
:1030C800BFF34F8F9C4B93F800A0BAF1000F41D08B
:1030D80008F1FF339BB241F2BE22934227D8FFF793
:1030E80029FF0646002848D008219448FEF752FBDD
:1030F800082106469248FEF74DFB002E40F0D98085
:1031080000283CD00B233B70FEF70AFE4FF08042AC
:10311800884B116821F0010111601968002021F025
:103128000101196010611861BFF34F8F0FE0082388
:103138003B70FEF7F5FD236823F0010323602B683D
:1031480023F001032B6026612E61BFF34F8F00200F
:10315800BDE8F08707233B70FEF7E2FD236823F004
:10316800010323602B6823F001032B60C4F810A02F
:10317800C5F810A0BFF34F8FE9E70923D8E76F4BD5
:103188001B68D8636E4B1B68D86301236062686252
:1031980063616B6120612861BFF34F8F694B5B6985
:1031A80013F0060F40F08380E36B002B7FD1EB6BAD
:1031B800002B7CD1636A002B79D16B6A002B76D106
:1031C8004FF080452B6ADA0571D45A4E336ADB0515
:1031D8006DD42B68DC076AD4336813F0010A66D112
:1031E80056480821FEF7D4FA0446002865D1544809
:1031F8000821FEF7CDFA002872D1BFF34F8F514B4B
:103208005B6913F0060F56D1EB6B002B53D1F36BB0
:10321800002B50D12B6AD8054DD5464D2B6AD905C0
:1032280049D54FF080463368DA0744D52B68DB0769
:1032380041D5DFF810A16FF0010300247462012268
:103248006C620621336150462B61FDF717FBBFF313
:103258004F8FDAF8143003F00603062B56D1374B9C
:103268001A68374B1B68B9F1000F4AD0D463C3F80A
:103278003C80BFF34F8F41464846FFF75DFE04464A
:1032880000287FF465AF32233B70FEF749FD4FF00D
:103298008042284B116821F001011160196821F062
:1032A8000101196014611C61BFF34F8F4FE72D2393
:1032B80029E70A2327E7302325E72E233B70FEF76B
:1032C8002FFD2B6823F001032B60336823F00103E3
:1032D8003360C5F810A0C6F810A0BFF34F8F36E7CB
:1032E8002F233B70FEF71CFD2B6823F001032B6096
:1032F800336823F0010333602C613461BFF34F8FCF
:1033080025E7C2F83C80C3F83C90B2E731233B7014
:10331800FEF706FD336823F0010333602B6823F0C2
:1033280001032B6034612C61BFF34F8F0FE700BF9F
:10333800380B002000040040CC0B0020840B002038
:103348003C0B00200004024008B5FEF7E9FC4FF0F2
:103358008042074B116821F00101116019680020B3
:1033680021F00101196010611861BFF34F8F08BD8A
:10337800000400400F4B586910F0060018D14FF0B8
:103388008043DA6B9AB90C49C86B88B91A6A12F487
:1033980080720CD1086A10F4807007D11B68DB07B3
:1033A80005D40868C04300F0010070471046704714
:1033B8000020704700040240000400402DE9F0435B
:1033C8006C4E6D4B6D4D6E4F4FF0000885B086F812
:1033D80000801A6B85F8008042F002021A631A6CAA
:1033E80042F003021A641A6B03921A6C039B4FF0A3
:1033F800804453400393039BFEF792FC236823F019
:10340800010323603B6823F001033B60C4F810808C
:10341800C7F81080BFF34F8F5A4B5B484FF4C02258
:103428009A615A6822F006025A609A6842F03C0291
:103438009A60DA6822F03C0242F02802DA601A68E0
:1034480022F03C0242F014021A601A6822F4401278
:1034580042F400121A605A6822F480625A609A682C
:1034680042F440129A60DA6822F44012DA605A6A2A
:1034780022F4706242F480725A621A6822F00302DF
:1034880042F002021A605A6822F001025A609A68F1
:1034980042F003029A60DA6822F00302DA601A6ADC
:1034A80022F00F0242F002021A6221460223012290
:1034B800FFF782FD18B33548042303223946FFF786
:1034C8007BFD8146E0B1FEF72BFC236823F0010366
:1034D80023603B6823F001033B60C4F81080C7F801
:1034E8001080BFF34F8FFFF795FD8046E0B1FFF7DF
:1034F80041FF60B301232B7005B0BDE8F08381461E
:10350800FEF70EFC236823F0010323603B6823F0D9
:1035180001033B60C4F81090C7F81090BFF34F8FB9
:10352800002005B0BDE8F08305233370FEF7F8FBF3
:10353800236823F0010323603B6823F001033B6009
:10354800C4F81080C7F81080BFF34F8FE8E7062350
:1035580001903370FEF7E4FB2368019823F0010320
:1035680023603B6823F001033B6020613861BFF3AF
:103578004F8FD5E7380B002000380240CC0B0020D5
:103588000004004000040240840B00203C0B002093
:1035980001460120FFF77EBD01460020FFF77ABDF6
:1035A800014B1878704700BF380B002070B50E46E5
:1035B800044648B32C4BDD6B2C4B1B786BB1FFF7E3
:1035C800B9FC50B1ADB245B1731E9BB241F2BE22F7
:1035D800934202D8FFF71EFDD0B9254B32221A704C
:1035E800FEF79EFB4FF080421F4B116821F001014E
:1035F80011601968002021F001011960106118613B
:10360800BFF34F8F002070BD4FF08043DD6BD3E7D1
:1036180029462046FFF790FC0028DED0FCB1124B6B
:10362800DE63BFF34F8F20463146FFF785FC044623
:103638000028E8D10E4B32221A70FEF771FB4FF0CA
:103648008042094B116821F001011160196821F0CD
:103658000101196014611C61BFF34F8FD2E74FF06D
:103668008043DE63DDE700BF00040040CC0B002090
:10367800380B002038B50C4640B9A9B1FFF7CAFC91
:1036880080B12146BDE83840FFF756BC51B9054620
:10369800FFF7C0FC30B12C4621460020BDE8384079
:1036A800FFF74ABC002038BDBDE83840FFF762BECE
:1036B8000A4B002210B5DA601968094C21F00101A3
:1036C800196032201A615A622270FCF7ADFF32206D
:1036D800FCF7D6FFBFF34F8F10BD00BF000C0040B2
:1036E800CF0B0020F0B53149314E324C324A334DC0
:1036F800002383B008603370237013702B70002888
:1037080051D02F4F2F49386C40F008003864386C7E
:1037180001900198CB60086820F0010008600B61F7
:1037280032204B621370FCF77FFF3220FCF7A8FFB2
:10373800BFF34F8FFDF75EFBBB68234A13F4E05FCE
:1037480018BF4000A0F51C53103B934226D81F4BCE
:103758001F4A00FB03F3B2EB331F1FD31D4A194B5B
:10376800A2FB0020400B1C4A013810600C221A6092
:10377800012600224FF0FF315A609A609A611A625E
:103788009862D96232205A6304215E611A61FCF79B
:1037980001FF304626702E7003B0F0BD122333703F
:1037A800002003B0F0BD11233370F9E7D80B0020D7
:1037B800CD0B0020D00B0020CF0B0020CE0B00201B
:1037C80000380240000C0040FFFF0F27917EFB3AB3
:1037D800B88D06005917B7D1D40B00202DE9F04158
:1037E800354C364F364B002582B03D70E560226877
:1037F80022F0010222600646256132206562884671
:103808001D70FCF711FF3220FCF73AFFBFF34F8F12
:103818002C4A1278002A45D02B490A78002A41D030
:10382800002E3FD046453DD20A20A6FB0036A8FB15
:1038380000800643002E3CD14FF00C0E234E01921F
:10384800C4F800E03668A66208F1FF30E06201269D
:1038580003206363656266612561E0603220FCF7DE
:103868000FFF2068164B30431E702060BFF34F8F48
:103878002568019A1449354017D115223A700D7000
:10388800E560236823F0010323600D4B2561322096
:1038980065621D70FCF7C8FE3220FCF7F1FEBFF32D
:1038A8004F8F01E013223A700022104602B0BDE8A3
:1038B800F08114223A70F7E7000C0040CD0B00208D
:1038C800CF0B0020D00B0020CE0B0020D40B002003
:1038D800034B187818B1034B186800F001007047C3
:1038E800CF0B0020000C0040024B187808B1024BA7
:1038F80018787047D00B0020CE0B0020014B1878A9
:10390800704700BFCD0B0020314B70B51B68314CA0
:103918002269002B45D0304E357845B391051AD52C
:103928002E492F4A1920087000211170022098474B
:10393800284B0022DA60196821F001011960322051
:103948001A615A623270FCF76FFE3220FCF798FE5B
:10395800BFF34F8F70BD12F0010020D112F00202A8
:10396800E5D11E491A2008701D490A70DEE71C4976
:103978001A4A0D700220182111709847E5602368D3
:1039880023F0010323603220256165623570FCF75E
:103998004BFE3220FCF774FEBFF34F8F70BD012041
:1039A800C5E70E490E4A1B2008701370E3602268B1
:1039B800094922F0010222603220236163620B7000
:1039C800FCF732FE3220FCF75BFEBFF34F8F70BD71
:1039D800D80B0020000C0040CF0B0020CD0B00209E
:1039E800CE0B002038B5104B104D1B7800222A70E2
:1039F8007BB10F4B1C7864B10E4A126940F2032365
:103A08001A420BD13220FCF701FEBFF34F8F20463C
:103A180038BD16232B700024204638BD17242C707F
:103A2800FFF772FF2C70F6E7CF0B0020CD0B0020BC
:103A3800CE0B0020000C0040F8B51F4B1C78002C62
:103A480038D01E4B1C78002C34D01D4F3C78002CED
:103A580030D1831E802B05462CD81A4EF46033686B
:103A680023F0010333603220346174623C70FCF748
:103A7800DBFD3220FCF704FEBFF34F8F04233360D5
:103A8800114B05EB85001B68B36240004FF0FF3314
:103A9800F3620A380123032270637462736134612C
:103AA800F2603B70336843F001033360BDE8F840CF
:103AB800FFF798BF0020F8BDD00B0020CE0B0020E8
:103AC800CF0B0020000C0040D40B002070B51E4D19
:103AD8001E4C2B78616A626B23B32368DB0721D500
:103AE8001B4B1B78F3B1831E802B1BD8266940F231
:103AF80003231E4024D18A1A002A15DB154B3046B1
:103B08001B689847E660236823F00103236032208E
:103B1800266166622E70FCF787FD3220FCF7B0FD47
:103B2800BFF34F8F002070BD00EB80000A3901EB16
:103B380040016163BFF34F8FBDE87040FFF752BF8C
:103B4800FFF7E2FEEEE700BFCF0B0020000C0040BD
:103B5800CE0B0020D80B002038B5194C94F848300B
:103B680033B11849184A0B78106DC4E9040338BDFD
:103B78000546FFF7FFFB13490B7868B10BB962687C
:103B880052B1124A10481268006DA5EB020C60454C
:103B980009D90244501BE8E794F848000028E1D10D
:103BA800C4E9040338BD23680022581C2060C4E916
:103BB80001221346E26062640A701046D5E700BF2E
:103BC800E00B0020400C00201CB90008380C002035
:103BD8001B4B9A6A10B4C2F10102DC680244144417
:103BE800DC605C6AA24218D95968121B11445960FA
:103BF800D96901291FD01349134AD86201240C70CE
:103C08004FF480740421A3F84840996310600F4B67
:103C18005DF8044B00221A7070474FF480720A4C0A
:103C2800A3F848204A1E012AD86299632060EED87A
:103C38005DF8044B7047996811449960DBE700BF51
:103C4800E00B0020400C0020380C0020420C002023
:103C580010B50446FFF778FBFCF772FC0A4B93F8A3
:103C68004830002C14BF042101210BB1FFF7B0FF2D
:103C7800FFF71EFD054A0649064B00201070012279
:103C88000C701A7010BD00BFE00B0020C80C00209B
:103C9800440C0020430C002010B5FFF755FBFFF73C
:103CA80007FDFFF747F9104C80F0010084F8290060
:103CB800FFF760FB84F82A0018B1FFF709FE48B93E
:103CC80010BD94F82B301BB942F60403A4F82B302E
:103CD800042010BD94F82B301BB942F60313A4F846
:103CE8002B30032010BD00BF480C002038B5424CD3
:103CF8002378062B054627D0FFF71CF980F0010032
:103D080084F82900FFF736FB84F82A0000283CD005
:103D1800022D28D02378052B0CD0002D59D0012D49
:103D28004FF000005DD003220023A270636284F884
:103D3800283038BD002DF2D104220023A270284675
:103D4800636284F8283038BD2C4B9B6B042BD3D18D
:103D5800FFF7F0F880F0010084F82900FFF70AFB6C
:103D680084F82A0088B1FFF7C9FD94F82B20034690
:103D7800002A3DD100284FF0030208BF2C2310462B
:103D880084F82B2084F82C30CEE7FFF7DDFAFFF714
:103D9800D1F880F0010084F82900FFF7EBFA84F8E5
:103DA8002A00FFF7FDFB94F82B3083B900284FF069
:103DB800040508BF22200322002384F82C0084F87D
:103DC8002B50A2702846636284F8283038BD04203E
:103DD800A9E701220023A2702846636284F82830EC
:103DE80038BD02220023A270636284F8283038BDEF
:103DF8000320024698E700BF480C0020E00B002093
:103E080070B514461D46B8B94A1E42F233139A4299
:103E18002BD854B34DB32080024645F6BF5341F228
:103E2800BF20E1FB003218461146002345F6C05278
:103E3800FCF7AEF9288016E0012816D14B1E632B3B
:103E480012D88AB185B1002641F2BF2245F6BF508B
:103E58003346E1FB0203194645F6C0520023FCF73E
:103E680097F920802E80002070BD012070BD00BF12
:103E7800F8B5404D404E0024FFF766FA3022002185
:103E8800284607F0D0F821464C223C48347007F009
:103E9800CAF83B4A3B4B14701C70FCF751FB3A4B79
:103EA8002C701860394BA5F82B4001271F70384B30
:103EB8001C70384B1C70384B02221A70FFF73AF806
:103EC800784085F82900FFF755FA85F82A00FFF7AA
:103ED80075FA88B13148FFF705FC80B33770FFF7F2
:103EE80029F880F0010085F82900FFF743FA85F8E2
:103EF8002A00D8B12046F8BDFFF726FAFFF71AF8CE
:103F0800784085F82900FFF735FA85F82A00FFF789
:103F180047FB95F82B303BB9A04208BF2C2004235F
:103F280085F82B3085F82C000420F8BD95F82B3047
:103F3800002BF9D141F60443A5F82B30F4E7FFF73D
:103F480003FAFEF7F7FF80F0010085F82900FFF774
:103F580011FA85F82A00FFF7D1FC95F82B303BB908
:103F6800002808BF2C20032385F82B3085F82C0067
:103F78000320F8BD480C0020450C0020E00B002071
:103F8800420C0020410C0020380C0020400C00207E
:103F9800C80C0020430C0020440C0020593C0008A9
:103FA80070B5EFF3108672B6BFF35F8F2E4B002209
:103FB8001A70FFF7C9F9FCF7C3FA2C4B93F848308D
:103FC80013B10321FFF704FE294B2A4C00251D706D
:103FD800FFF76EFB284A294B15700222C4E90155E8
:103FE800C4E903552570656284F828501A70FEF7F5
:103FF800A1FF80F0010084F82900FFF7BBF905460E
:1040080084F82A00FFF764FC2DB1F0B9BFF35F8F85
:1040180086F3108870BD94F82B301BB942F6042340
:10402800A4F82B30FFF790F9FEF784FF80F0010029
:1040380084F82900FFF79EF9034684F82A30042003
:10404800BFF35F8F86F3108870BD94F82B301BB9CF
:1040580042F60333A4F82B30FFF72AFB0320BFF303
:104068005F8F86F3108870BDC80C0020E00B00201D
:10407800420C0020480C0020430C0020440C002077
:104088002DE9F0416C4C23783BB16C4A0023107841
:104098002370BDE8F041FFF729BE03F0FF0705468E
:1040A800FEF748FF664E80F0010086F82900FFF70A
:1040B80061F9237886F82A0003F0FF0833B15F4BD3
:1040C80018782770BDE8F041FFF710BE96F8283041
:1040D8001BBB002844D0FFF7FBFB70B9FFF704FCBB
:1040E800034600283AD12278002A62D0534A107831
:1040F8002370BDE8F041FFF7F9BDFFF725F9FFF799
:10410800D7FA96F82B300322B2701BB942F6031384
:10411800A6F82B300320BDE8F081FFF7E5FB034646
:10412800B8BB2278002AE1D1FFF7E8FB96F82B30DC
:104138003BB9002808BF2320032386F82B3086F8D4
:104148002C00FFF701F9FFF7B3FABDE8F0410220B0
:10415800FFF7CCBD3B4B1B68002B51D10020DAE7A1
:10416800FFF7F2F8FFF7A4FAFEF7E4FE80F001008B
:1041780086F82900FFF7FEF896F82B3086F82A0013
:104188000322B2701BB942F60403A6F82B300420B0
:10419800C1E7FFF79DFB0346D0B92278002AA5D1D5
:1041A80096F82B30002BCCD142F20343A6F82B30E3
:1041B800C7E7FFF7A3FB96F82B30002BAAD10028FE
:1041C80008BF2320032386F82B3086F82C00A1E7AC
:1041D8003369E81A002809DB237823B3174B1878CA
:1041E80084F80080BDE8F041FFF780BD96F82A30DA
:1041F800002BB3D0144B1B7813B13378052BA9D0FF
:104208002378002B7FF441AF96F82B301BB942F28C
:104218000463A6F82B30FFF797F8FFF749FA022056
:10422800FFF764FDB3E796F82B30002B89D142F2F3
:104238000353A6F82B3084E7430C0020440C0020DD
:10424800480C0020B40C0020C80C0020F8B5364CEF
:104258002378052B04D1354E337803F0FF05C3B11D
:10426800FEF768FE80F0010084F82900FFF782F865
:1042780094F8283084F82A0043B12C4E33781BB9BF
:1042880094F8293003B908B3337863B90025284670
:10429800F8BD274F3B7813B194F828301BBB33780F
:1042A800002BDDD1F3E7FEF745FE80F0010084F82E
:1042B8002900FFF75FF8054684F82A000028E6D0B1
:1042C800FFF706FB80F00105EDB2E0E7FFF700FB22
:1042D8000028D9D0FFF708FB05460028D4D033784A
:1042E800002BD1D1D3E7FFF7FFFA0028D7D0FFF78B
:1042F800EFFA0028D3D0FEF71DFE0028CFD0FFF735
:1043080039F80C4B1B68B3FA83F35B098342C6D1B7
:10431800E18CA08CFFF7AEF933780028C0D0002BD1
:104328009ED13D78EDB2B2E7480C0020430C002046
:10433800C80C0020B40C0020F8B5324D2B7873BBA4
:10434800FEF7F8FD304C80F0010084F82900FFF7F3
:1043580011F82B7884F82A00064603BB94F8283015
:104368000BB3FFF773FF2B78C0B9C3B9FEF7ECFFA7
:10437800FFF79EF9FEF7DEFD80F0010084F82900C2
:10438800FEF7F8FF2B7884F82A0043B994F82B300D
:104398006BBB42F20473A4F82B3028E0DBB1BDE814
:1043A800F840FFF779BCFFF793FA0746FEF7CCFF12
:1043B80094F828308BB1FEF7BDFD80F0010384F836
:1043C8002930FEF7D7FF2B7884F82A00002BE6D196
:1043D80030B12EB16FB90020F8BDFFF769F9EAE7EF
:1043E80094F82B301BB942F60403A4F82B300420B0
:1043F800F8BD94F82B301BB942F60313A4F82B3000
:104408000320F8BD430C0020480C002010B5FEF72F
:1044180091FD054C80F0010084F82900FEF7AAFF01
:1044280084F82A0010BD00BF480C002010B5FEF724
:1044380081FD114C80F0010084F82900FEF79AFFF5
:104448000E4B84F82A001B780BB9002010BDFFF72B
:104458004BFA0028F9D094F828304BB994F82A0080
:104468000028F3D0FFF734FA80F00100C0B210BD85
:10447800BDE81040FFF7EABE480C0020450C0020BC
:1044880010B5FEF757FD054C80F0010084F82900AF
:10449800FEF770FF84F82A00204610BD480C002063
:1044A80001207047F8B5044615461E46EFF31087FD
:1044B80072B6BFF35F8FFCF743F8164A12780346CB
:1044C80002F0FF000AB12CB10020BFF35F8F87F321
:1044D8001088F8BD10490A78002AF5D10F4C2478C5
:1044E800002CF1D1A5F1030C4EF65D22944501D9BB
:1044F800002DE9D1002EE7D12B44094A003D18BF11
:1045080001251570074A1360074B1E6001230B70C5
:10451800DBE700BFC80C0020A80C0020B80C002066
:10452800A70C0020A00C0020940C0020F8B504462D
:104538001746EFF3108672B6BFF35F8FFCF700F8EB
:10454800174B1B7803B12CB10020BFF35F8F86F3A4
:104558001088F8BD134B1B78002BF5D0124C23782C
:10456800002BF1D1FB1E012BEED8104B1B78054612
:1045780023B10F4B1B681B1ABB42E5DDFFF766FE34
:104588000028E1D00B4B0C492F44C3E906570B4BCD
:104598001F600B4B1D6001230B702370D5E700BF14
:1045A800C80C0020A80C0020A50C0020A70C002097
:1045B800A00C0020480C0020A60C00209C0C002019
:1045C8008C0C00200346EFF3108172B6BFF35F8FA7
:1045D800094A127802F0FF000AB12BB10020BFF39C
:1045E8005F8F81F310887047044B18780028F6D045
:1045F800034B01221A70F2E7C80C0020A60C002019
:10460800A40C00202DE9F04F074683B01446EFF3C1
:10461800108672B6BFF35F8F744DFBF791FF2B784E
:10462800002B00F0B280002F40F0AF80704B1B7859
:10463800002B00F0BE80DFF8E88198F80030002BEE
:1046480000F0B7806B4B1B78002B00F0B280002C79
:10465800C0F2AF80684B1B68A342C0F2AA80DFF8A3
:10466800C491664FD9F80030A342C0F2A3803B78CA
:10467800002B40F09F80624B1B681B1A012B83465E
:1046880040F39880DFF8A0A1DAF800301B1A012B5C
:1046980040F390805B4B1B782BB15B4B1B681B1A5C
:1046A800012B40F38780FFF7D1FD002800F08280BE
:1046B800FFF798F900287DD0002C00F08B8042F29B
:1046C80034139C4276D841F2BF2345F6BF500021EF
:1046D800E4FB030145F6C0520023FBF759FD83B202
:1046E800194601209B46FEF761FF002862D0FEF7BD
:1046F80041FE00285ED159460020FEF7BBFF002886
:1047080058D0FFF76FF9002854D02B78002B51D0E0
:104718003B78002B4ED1FBF713FFDAF80020A2EB11
:10472800000ABAF1010F034644DD364A12783AB15D
:10473800354A1268121A012A3CDD924528BF924672
:1047480050460193FFF7C2F9002833D0FFF74AF922
:1047580080B32A7872B3397801F0FF0251BB2B4D30
:10476800019B6969C9F8004053440131C5E9043126
:10477800EB60274B6C601A70264B88F80020AA84DF
:10478800A5F826B014461A7001E0204D0124FEF762
:10479800D1FB80F0010085F82900FEF7EBFD85F8D4
:1047A8002A00BFF35F8F86F31088204603B0BDE868
:1047B800F08F124F00232B70FEF7C6FDFEF778FF2F
:1047C8003B7823B9144A0221012311703B700F4D25
:1047D8000424DCE7FEF7B8FDFEF7CCFD0028E9D09D
:1047E8000E4BC3F800B0A34685E700BFC80C0020F5
:1047F800A80C0020B80C0020940C0020430C0020CA
:104808009C0C0020A70C0020A00C0020480C0020C5
:10481800A40C0020900C0020440C0020AC0C0020BC
:10482800A60C0020B40C0020980C0020F8B5044613
:1048380015461E46EFF3108772B6BFF35F8FFBF77E
:104848007FFE2E4B1B7803B12CB10020BFF35F8F86
:1048580087F31088F8BD2A4B1B78002BF5D0294C1C
:104868002378002BF1D1002DEFD0B542EDD2264BA5
:1048780026491B680A68023B9B1AB342E5D33244B7
:10488800801A0028E1DA224B1A68002A2FDD214A13
:104898000698D2F800C0844501DB0028D5DD069AC9
:1048A80042F234108242D0DC079A002ACDDB9445CC
:1048B800CBDBFFF7CBFC0028C7D01449144B0A68A0
:1048C8001B681644069A9A42A8BF1A46124B1A60E9
:1048D800124B069A1A60124B079A1A60114B1D6008
:1048E800114B1E60114B1E6201232370AEE7ACD141
:1048F8000F4A1268002ACADAA7E700BFC80C0020CE
:10490800A60C0020900C00209C0C00208C0C002091
:10491800B40C0020940C0020800C00207C0C00209B
:10492800780C0020880C0020840C0020480C002003
:10493800B00C0020164B1A78034602F0FF0032B381
:104948001BBB144A107810B3134A1078F8B11348F7
:10495800134A10B5046812681248091B21EAE1716C
:104968009142006810D2104C24684FEAE17C001B89
:104978004FEAE07E00FB0CFC01FB0ECCA0FB010122
:104988006144FBF705FC204410BD002070477047C8
:10499800C80C0020900C0020A60C00208C0C0020D5
:1049A800880C00207C0C0020800C00202DE9F84F9A
:1049B800044690461D46EFF3108672B6BFF35F8F2C
:1049C800DFF8D091FBF7BCFD99F80030002B00F020
:1049D8008680002C40F08380B8F1000F7FD0002D36
:1049E8007DD05F4B2C701B78002B00F08B805D4BCB
:1049F8005D4C1B78002B00F086802378002B40F05C
:104A080082805A4B1B681B1A012B07467BDD584BCB
:104A18001B681B1A012B76DD564B1B7823B1564BAE
:104A28001B681B1A012B6EDDFFF710FC00286AD0EB
:104A3800524BDFF864A11B68DAF800B0FB1A002BB0
:104A4800394671DA0020FFF775FF834505465ADCC1
:104A58004B4B1B68834256DB002854DBFEF7C2FF32
:104A6800002850D0DAF800B0AB4570D06A1E42F288
:104A780033139A4247D841F2BF2345F6BF5000216D
:104A8800E5FB030145F6C0520023FBF781FB87B223
:104A9800BBF1000F5DD039460120FEF787FD90B3CA
:104AA80039460020FEF7E6FD68B3FEF79BFF50B3DA
:104AB80099F800303BB3237803F0FF021BBB314C5D
:104AC800CAF800506369A284013363612E4B6560A4
:104AD8000122E7841A60C8F80050002701E0294C39
:104AE8000127FEF727FA80F0010084F82900FEF775
:104AF80041FC84F82A00BFF35F8F86F3108838469C
:104B0800BDE8F88F184C002389F80030FEF71CFC2C
:104B1800FEF7CEFD237823B91C4A02210123117028
:104B28002370184C0427DCE7194B1C685C45A8BFA8
:104B38005C4622460020FFF765FD074608B1114C88
:104B4800CFE70123C8F800400E4C2B70C9E70D4C85
:104B5800C1E73846FEF71CFD0028A1D1D3E700BF06
:104B6800900C0020A60C0020430C00209C0C002078
:104B7800980C0020A70C0020A00C0020840C00201A
:104B88007C0C0020480C0020B00C0020440C0020B5
:104B9800780C0020C80C0020B40C00202DE9F04F40
:104BA800074689B014461E46EFF3108972B6BFF364
:104BB8005F8FDFF804830023ADF81C30ADF81E309A
:104BC800FBF7BEFC98F80030002B49D0002F47D1E6
:104BD800189B002B44D0199B002B41D0DFF8DCB286
:104BE8009BF800300546002B30D1A44B1B78002BD6
:104BF8004AD0A34B1B7823B1A24B1B68EB1A002B9E
:104C08000FDAA14B1B78002B00F05C819F4B1B68CF
:104C1800EB1A002B05DA179B002B3CDC179B64333F
:104C28003EDADFF89CA29A4F002388F80030FEF79E
:104C38008BFBFEF73DFD9AF800302BB9954B02220D
:104C48001A7001238AF8003004240BE0924BD3E950
:104C58000023A21A66EB0303012A73F10003C4DAE6
:104C68008B4F0124FEF766F980F0010087F82900D0
:104C7800FEF780FB87F82A00BFF35F8F89F310885F
:104C8800204609B0BDE8F08F179B002BC6DD7E4B90
:104C98001B78002BC5D0179A42F234139A42C0DC15
:104CA800149B822BBDD8159B142BBAD8169B012BAD
:104CB800B7D97A4B1B7823B1794B1878002800F0C4
:104CC8000C81DFF8FCA19AF80030002BABD1149BC3
:104CD800022BA8D9DDE914329342A4D9129B159A64
:104CE800EB1A93429FD8149A013A9A429BD9169B81
:104CF800642B98D8FEF71EF9002894D09BF8003052
:104D0800002B40F01B81624F199A00231370179BE8
:104D1800002B40F3F480634B1A68002A40F01F818F
:104D28000123614A1268002A40F05581544B129AB7
:104D380014991B780A440292521B009233B1514BCA
:104D48001B685B1B9A4228BF1A4600924E4B1B7881
:104D5800002B00F0D080524B1B78002B00F0018113
:104D6800524B179A1B689342B4BF00230123039345
:104D7800464B009A1B685B1B934228BF134601935E
:104D88009BF800300198002B00F0AF80FEF79EFEE4
:104D980080F00103DBB2002B7FF446AF98F80030B7
:104DA800002B3FF441AF9AF80030002B7FF43CAF62
:104DB800179B002B40F0D7803A4B1A680AB13C4A3F
:104DC80015600493FEF7C0FAFEF7D4FA049B002896
:104DD8003FF42AAF0593FEF705FE00283FF424AF01
:104DE80098F80020002A3FF41FAF9AF8002002F03C
:104DF800FF030493002A7FF417AF039A059B9AB127
:104E080000980393FEF762FE00283FF40DAFFEF70B
:104E1800E9FD00283FF408AF1B4A049B13701F4AA2
:104E28001370009B0193039B019A2A441546179A15
:104E38001A607B6901337B61174BC3E90046012384
:104E480087F828308BF8003005233B70D30F7B7030
:104E580082EAE273A3EBE2737B60BDF81C30BB848B
:104E6800BDF81E30FB84189B0024C7E90355BC70AD
:104E7800BC601A600F4B029A1A60F3E6A80C002077
:104E8800A70C0020A00C0020A60C00209C0C0020E1
:104E9800480C0020440C0020C00C0020900C00207E
:104EA800A40C0020B40C0020B00C0020940C0020AE
:104EB800AC0C0020980C0020C80C0020B80C002076
:104EC800430C0020534B179A1B689342FFF6A9AE78
:104ED800179B002B3FF7A5AEA0E62946FFF72AFD52
:104EE800179B9842BFF6EDAE9BE6FEF7A5FD80F056
:104EF8000103DBB24FE70393009B019340E71AD00D
:104F0800454B1A68002A63D04FF0FF32434900939B
:104F1800096891423FF40AAFFEF716FAFEF72AFA3B
:104F280000283FF481AE3E4A009B156000221A60BB
:104F3800199A0123137000231793F7E6FEF7C8FCAC
:104F480000283FF470AEFFF781F9364F00283FF490
:104F58006BAEFB68EB1A002BFFF6D6AE64E60122B7
:104F6800D4E7039304E7179880EAE0710028A1EBDF
:104F7800E0710DF11E03CCBF0020012007AAFEF747
:104F88003FFF00287FF450AE234B1A68002A30D028
:104F9800179A0493002ACBBFBDF81E10BDF81C1049
:104FA80001200020FEF702FB049B049300283FF435
:104FB8003BAEFEF7DFF900287FF436AE179B174AA1
:104FC800002BD4BF4FF0FF310121049B116001E792
:104FD8004FF0FF33A5E69A423FF4A8AE104B169A5D
:104FE8001B68EB1A9342BFF4A1AE199A0123137000
:104FF800A1E7179A0493002A05DDBDF81E00FEF705
:10500800C7FA049BD1E7BDF81C00FEF7C5FA049B5C
:10501800CBE700BF940C0020B40C0020B00C00209B
:10502800AC0C0020480C0020F8B50446EFF31086BD
:1050380072B6BFF35F8FFBF783FA0C4D0746FEF796
:105048008BFD4C222946204606F01AF895F8482090
:10505800EB681AB1AA6A01339B1A3B44BFF35F8F0E
:1050680086F31088E3602046F8BD00BFE00B0020FF
:10507800054B1B781BB1054B1B68834201D00020F0
:105088007047FFF7D3B900BF420C00203C0C00204A
:1050980070B50C46EFF3108572B6BFF35F8FFBF760
:1050A8004FFAFEF759FD14B11F4B1B782BB10120A5
:1050B800BFF35F8F85F3108870BD1C4E3378002BCB
:1050C800F5D11B4B1B78002BF1D11A4B1B78002B09
:1050D800EDD0194B93F82830002BE8D1174B1B78EB
:1050E800002BE4D1FEF746F90028E0D0FEF7F0FBEC
:1050F8000028DCD1FEF7F8FB0028D8D0FDF71AFF0E
:105108000028D4D00E490B6801330ABF01221A4681
:10511800134623600A600B4B0B4A002001213170B3
:10512800107083F84900C3E7400C0020420C0020AF
:10513800C80C0020450C0020480C0020430C00201F
:105148003C0C0020E00B0020410C00202DE9F04F22
:10515800054685B00C4690461F46EFF3108972B697
:10516800BFF35F8FFBF7ECF944B1DFF8D0A29AF8F0
:1051780000301BB1A84B1B68AB4213D0A74D0124CC
:10518800FDF7D8FE80F0010085F82900FEF7F2F857
:1051980085F82A00BFF35F8F89F31088204605B091
:1051A800BDE8F08FDFF898B29BF84830002BE5D1C6
:1051B8009A4D95F82830002BE1D1994B1B78002B9C
:1051C800DDD19BF84930002BD9D1964B1B78064688
:1051D800002B40F015813046FEF7BEFC924B1A7842
:1051E800002A40F0F4800E9BF21A142A00F2EF8095
:1051F800FEF7C0F8002800F0EA80FEF769FB0028F7
:1052080040F0E580FFF712F9002800F0E080D4F8BC
:1052180000E0BEF1010F00F01581AEF10202012A93
:1052280000F2D58023690093022B00F02B81009BAC
:10523800032B40F0CC80BEF1030F40F0C8807B48C0
:10524800D4F80CC0C26B9445C0F0C180026C944580
:1052580000F2BD80426C6168019161450B46C0F067
:10526800B680A1EB0C01914200F2B180426A9342F0
:1052780000F2AD80A168026B9142C0F0A880C26ABA
:10528800914200F2A480826A02FB0CF2B2FBF3F2B4
:10529800D0E91A349A422CBFA418E418A14240F06D
:1052A80096800E9B82339A1B9442039380F08F80E2
:1052B8005C4B1A7832B15E4A1168826C711A91425D
:1052C800C0F08580DBF80420C16C22448A4200F2D9
:1052D8000281BEF1010F00F0E680CBF80420039BA9
:1052E800CBF83430009BCBF84030DBF81830019A0B
:1052F800CBF81CE00133CBF818304E4BCBF83CC050
:10530800C3E90087474BCBF828604FF001011970BB
:10531800CBE90824114642F23313013A04EB06089C
:1053280000279A42CBF83080CBF838704FD83B46EC
:1053380041F2BF2C45F6BF50E1FB0C03194645F678
:10534800C0520023FAF724FF08F1FF33EB606B69C2
:10535800019A6A604FF00101013382B2AF70AF84E5
:1053680085F828100F466B61601E06232146C5F894
:1053780010800092EA84A8602B80FEF72FFA30B3E1
:105388008BF84870FEF72EFB08B39AF80030F3B19B
:10539800234C237803F0FF07CBB9DDF800804046A3
:1053A800FEF7F6F898B141463846FEF763F970B152
:1053B800FDF7E0FF58B9FEF715FB40B19AF8003049
:1053C8002BB1237803F0FF04002B3FF4D9AEFDF78F
:1053D800BBFF9BF848301BB130460521FEF7F8FBB0
:1053E80000238AF80030FEF763F90D4B1B782BB9C0
:1053F800114B02221A700A4A012313700424BFE6D3
:105408000C4B4046D3E90023394601F0ADFC002897
:105418007FF4E1AEB3E600BF3C0C0020480C00204E
:10542800430C0020410C0020400C00201CB900084F
:10543800380C0020300C0020440C0020420C0020C6
:10544800E00B002023690093012BC0D12448D4F835
:105458000CC042689445BAD1616801918C450B46ED
:10546800B5D8C16F8B42B2D89A1A436FB2FBF3F129
:1054780003FB1122002AAAD1A268C468A2423FF401
:1054880010AFA4E71648D4F80CC0426994459ED3DF
:10549800826994459BD8BEF1020F01D0026ADAE610
:1054A8009445FBD093E7DBF8081063180169029371
:1054B8008B4210D8DBF84410019BD0F8800003FB26
:1054C8000411814207D8029BCBF80420CBF808309E
:1054D800CBF8441003E7034B01221A7077E700BFAB
:1054E8001CB90008400C00202DE9F0410446EFF3F8
:1054F800108672B6BFF35F8F344DFBF721F82B7817
:105508001BB1334B1B68A34212D0324C0127FDF765
:1055180011FD80F0010084F82900FDF72BFF84F8C5
:105528002A00BFF35F8F86F310883846BDE8F08104
:10553800294C94F84830002BE7D0284F3B78002BB3
:10554800E3D1FDF701FFFAF7FBFF8046FEF74AFAC1
:1055580094F8483010B33A7802BB2A78F2B1226B3B
:10556800A8EB0202002A19DA626BA8EB0202002AF1
:1055780014DA1BB102214046FEF72AFB154CFEF750
:1055880097F800270123A370676284F82870FDF755
:10559800F1FE0028BBD128700427B8E71BB14046AC
:1055A8000421FEF715FB0423A3630D4B00220124FD
:1055B8001C702A70FEF77CF83B781BB9094B022255
:1055C8001A703C70034C0327A1E700BF420C00206F
:1055D8003C0C0020480C0020E00B0020430C00206D
:1055E800400C0020440C00202DE9F84304460D46E9
:1055F80090461F46EFF3108672B6BFF35F8FFAF737
:105608009FFF2449097819B1234B1B68A34206D090
:105618000020BFF35F8F86F31088BDE8F8831F4C26
:1056280094F84930002BF3D0A369AB42F0D194F839
:105638004830002BECD11A4B93F82830002BE7D1D7
:10564800184B1B78002BE3D1A36B013B012BDFD850
:10565800154B8146D3E900234046394601F084FBC7
:105668000028D5D0089BA9EB03001428D0D80F4AEE
:10567800E36A0899926CCB1A9342C9DBFDF77AFE6C
:105688000028C5D0FEF7D2FE0028C1D0002384F838
:105698004930BEE7420C00203C0C0020E00B002003
:1056A800480C0020430C0020300C00201CB90008D6
:1056B800D0ED027A9FEDE37AF0EEE76AF4EE476AFE
:1056C800F1EE10FA00F28782F5EEC07AF1EE10FAE8
:1056D80000F18182DFEDDC6AF4EEE67AF1EE10FA91
:1056E80000F37982D0ED037AF0EEE76AF4EE476AC8
:1056F800F1EE10FA00F26F82DFEDD46AF4EEE67A8A
:10570800F1EE10FA00F16782F7EE006AF4EEE67A3D
:10571800F1EE10FA00F35F82D0ED047AF0EEE76A5A
:10572800F4EE476AF1EE10FA00F25582DFEDC86A2E
:10573800F4EEE67AF1EE10FA00F14D82DFEDC56A7B
:10574800F4EEE67AF1EE10FA00F34582D0ED057A30
:10575800F0EEE76AF4EE476AF1EE10FA00F23B82E7
:105768009FEDBB7AF4EEC77AF1EE10FA00F13382BE
:105778009FEDB97AF4EEC77AF1EE10FA00F32B82B6
:10578800D0ED067A9FEDAF7AF0EEE76AF4EE476A5D
:10579800F1EE10FA00F21F82F7EE006AF4EEE67AF4
:1057A800F1EE10FA00F117829FEDAC6AF4EEC67ABA
:1057B800F1EE10FA00F30F82D0ED077AB0EEE76A47
:1057C800B4EE476AF1EE10FA00F20582F5EEC07AFF
:1057D800F1EE10FA00F1FF819FEDA16AF4EEC67AAE
:1057E800F1EE10FA00F3F781D0ED087AB0EEE76A2F
:1057F800B4EE476AF1EE10FA00F2ED81F4EEE67AC3
:10580800F1EE10FA00F1E781DFED8F6AF4EEE67A47
:10581800F1EE10FA00F3DF81D0ED095AF0EEE57AE7
:10582800F4EE477AF1EE10FA00F2D581DFED8D7AC9
:10583800F4EEE75AF1EE10FA00F1CD81F5EEC05A18
:10584800F1EE10FA00F3C78190ED0A6AF0EEC67A1D
:10585800F4EE477AF1EE10FA00F2BD81B5EEC06AB7
:10586800F1EE10FA00F1B781DFED7F7AB4EEE76A66
:10587800F1EE10FA00F3AF81D0ED0B7AB0EEE75AF3
:10588800B4EE475AF1EE10FA00F2A5819FED777A4F
:10589800F4EEC77AF1EE10FA00F19D81F4EEE67AA3
:1058A800F1EE10FA00F39781D0ED0C6A9FED657A5E
:1058B800B0EEE65AB4EE475AF1EE10FA00F28B81D8
:1058C800F5EEC06AF1EE10FA00F18581B7EE005AE4
:1058D800F4EEC56AF1EE10FA00F37D8108B52DEDFE
:1058E8000A8B90ED0DBAF0EECB6AF4EE476AF1EE52
:1058F80010FA00F26C81B4EEC5BAF1EE10FA00F1BC
:105908006681DFED5B6AB4EEE6BAF1EE10FA00F3F9
:105918005E81D0ED0E8AF0EEE86AF4EE476AF1EEA9
:1059280010FA00F25481F0EE006AF4EEE68AF1EE25
:1059380010FA00F14C81DFED4F6AF4EEE68AF1EEE1
:1059480010FA00F34481D0ED0FAAF0EEEA6AF4EE03
:10595800476AF1EE10FA00F23A81F4EEC5AAF1EEC8
:1059680010FA00F13481B3EE047AF4EEC7AAF1EE2E
:1059780010FA00F32C8190ED109A9FED325AF0EE58
:10598800C96AF4EE456AF1EE10FA00F22081F0EEF1
:10599800086AB4EEE69AF1EE10FA00F11881DFED2C
:1059A800366AB4EEE69AF1EE10FA00F31081D0ED03
:1059B800116AF0EEE64AF4EE454AF1EE10FA00F20A
:1059C8000681DFED234AF4EEE46AF1EE10FA00F105
:1059D800FE80F4EEC76AF1EE10FA00F3F88090ED5D
:1059E800127AF0EEC74AF4EE454AF1EE10FA00F2E8
:1059F800EE809FED225AB4EEC57AF1EE10FA00F16E
:105A0800E6809FED1F5AB4EEC57AF1EE10FA00F366
:105A1800DE8090ED138ADFED0B4AB0EEC85AB4EE83
:105A2800645AF1EE10FA00F2D280B5EEC08AF1EEB7
:105A380010FA00F1CC809FED135AB4EEC58AF1EE4E
:105A480010FA2BE0FFFF7F7F0000C8426F12833AF5
:105A5800CDCCCC3D0000484300007A440050C347F9
:105A680000D0044600409CC500409C450AD7233C12
:105A7800000048420000FA4200000243CDCC4C3EF0
:105A88000000204200606A4700808943FFFF7F7F53
:105A98000000C8420060EA466F12833A00F397801C
:105AA80090ED14AAB0EECA5AB4EE645AF1EE10FAA8
:105AB80000F28D801FED0A5AB4EEC5AAF1EE10FA75
:105AC80000F185801FED0D5AB4EEC5AAF1EE10FA6B
