:020000040800F2
:10000000000002205902000899030008A903000813
:10001000B1030008B9030008C10300080000000094
:10002000000000000000000000000000C9030008FC
:10003000CD03000800000000D1030008D50300082C
:10004000A9020008A9020008A9020008A9020008E4
:10005000A9020008A9020008A9020008A9020008D4
:10006000A9020008A9020008A9020008A9020008C4
:10007000A9020008A9020008A9020008A9020008B4
:10008000A9020008A9020008A90200080000000057
:10009000000000000000000000000000A9020008AD
:1000A000A9020008A9020008A9020008A902000884
:1000B000A9020008A9020008A9020008A902000874
:1000C000A9020008A9020008A9020008A902000864
:1000D000A9020008A9020008E103000800000000CE
:1000E000A9020008A9020008A902000800000000F7
:1000F000000000000000000000000000A90200084D
:1001000000000000A9020008D9030008A9020008A5
:1001100000000000000000000000000000000000DF
:10012000A9020008A9020008A9020008A902000803
:10013000A90200080000000000000000000000000C
:10014000000000000000000000000000A9020008FC
:10015000A9020008A9020008A9020008DD0300089E
:10016000A9020008A9020008000000000000000029
:10017000000000000000000000000000000000007F
:1001800000000000A90200080000000000000000BC
:08019000A9020008A902000801
:1001980053B94AB9002908BF00281CBF4FF0FF31E6
:1001A8004FF0FF3000F00CB8ADF1080C6DE904CE4B
:1001B80007F08AF8DDF804E0DDE9022304B07047AF
:1001C800704700BF0348044B834202D0034B03B17E
:1001D800184770475C0000205C0000200000000009
:1001E8000548064B1B1AD90F01EBA301491002D091
:1001F800034B03B1184770475C0000205C000020E7
:100208000000000010B5064C237843B9FFF7DAFF69
:10021800044B13B10448AFF300800123237010BDD1
:100228006000002000000000C875000808B5054BF4
:100238001BB105490548AFF30080BDE80840FFF74A
:10024800CFBF00BF0000000064000020C875000890
:10025800DFF834D000F0DCF80C480D490D4A0023D3
:1002680002E0D458C4500433C4188C42F9D30A4A63
:100278000A4C002301E013600432A242FBD306F0CB
:100288000FFF00F00FF87047000002200000002068
:100298005C000020D476000860000020400900209F
:1002A800FEE7000030B591B001F07CFC00F026F9C3
:1002B800042302221946602000F0B4F820B901F0A6
:1002C800D7FB03F0EBFC08B101F0D4FB00F038F9E0
:1002D8002D4902462D4801F0D9FB2C4801F060FC5D
:1002E800054601F07FFD0028EED04FF47A7000F04B
:1002F8002DF901F0F5FD0028E6D0284601F0DCFED6
:100308000028E1D000F01CF9012102461F4801F045
:10031800CFFB002DD8D02B78012BD5D115E01B4869
:10032800214601F01DFC04F053F828BB01F056FFEC
:10033800204601F08FFF10B9204601F091FF1348C5
:10034800214601F029FC01F0A1FF00F0F9F804466C
:1003580001F044FF00F0F4F801F07CFF684601F07A
:10036800F3FD0028DBD000F0EBF8694604460246AE
:10037800064801F0A1FBD2E723460A2206212846B7
:1003880005F04AFBD2E700BFF8750008800000209E
:1003980008B501F0C5FCBFF34F8F30BFFBE700BFC6
:1003A80008B5FFF7F5FF00BF08B5FFF7F1FF00BF7D
:1003B80008B5FFF7EDFF00BF08B5FFF7E9FF00BF7D
:1003C800704700BF704700BF704700BF00F0ACB86F
:1003D80003F09ABA01F0B2BD01F0FABE10B50446B6
:1003E80001F0D4FD00B110BD2046BDE8104001F079
:1003F80053BF00BF01F074BF10B5044601F0F4FD0F
:1004080000B110BD2046BDE8104001F093BF00BF09
:10041800034AD2F8883043F47003C2F88830704732
:1004280000ED00E0F0B595B01F4D204C0027019776
:100438002E6C46F080562E642D6C05F08055019583
:10044800019D0297256845F4404525602468119070
:1004580004F4404402944FF480350124CDE9084562
:1004680008A802244FF48005CDE90E45CDE91223F2
:10047800029C109100F006FA10B1012015B0F0BDF1
:1004880003460F240220CDE903404FF48052032194
:1004980003A8CDE90532079300F00EFCC01B18BF76
:1004A800012015B0F0BD00BF0038024000700040C8
:1004B800704700BF38B50E4A0E4B127805461868CB
:1004C8004FF47A73B3FBF2F3B0FBF3F000F0BEF82D
:1004D80008B90F2D01D9012038BD04460246294626
:1004E8004FF0FF3000F056F8034B20461D6038BD32
:1004F80004000020000000200800002008B5094B77
:100508001A6842F400721A601A6842F480621A602B
:10051800032000F02DF80F20FFF7CCFFFFF7C8FFEE
:10052800002008BD003C0240034A044B11681B78B8
:100538000B441360704700BFB8040020040000207B
:10054800014B1868704700BFB804002038B504464E
:10055800FFF7F6FF631C054602D0044B1B781C44CA
:10056800FFF7EEFF401BA042FAD338BD040000207D
:100578000749CA6803024FF6FF0003F4E06302402C
:10058800134343F0BF6343F40033CB60704700BFAD
:1005980000ED00E01B4BDB68C3F3022300B5C3F199
:1005A800070EBEF1040F03F1040C28BF4FF0040E30
:1005B800BCF1060F1CD9A3F1030C4FF0FF3303FA6B
:1005C8000CF322EA03024FF0FF3303FA0EF321EA99
:1005D800030303FA0CF313431B010028DBB20ADB05
:1005E80000F1604000F5614080F800335DF804FBDD
:1005F80000229446E7E7044A00F00F00024413760D
:100608005DF804FB00ED00E0FCEC00E0002807DBEF
:10061800044A4109012300F01F00834042F82130B9
:10062800704700BF00E100E000280CDB43090649E1
:1006380000F01F0020330122824041F82320BFF33D
:100648004F8FBFF36F8F704700E100E00138B0F1C2
:10065800807F01D30120704710B44FF0E023074C8E
:1006680058614FF0F00C84F823C00022072110468F
:100678009A615DF8044B1961704700BF00ED00E016
:10068800002808DB4309044900F01F0001226033F9
:10069800824041F82320704700E100E02DE9F04F47
:1006A80000230C68DFF8C8A185B04FF0010B89461C
:1006B80003E00133102B00F087800BFA03F202EA03
:1006C8000408A243F5D1D9F8041001F0030C5A002C
:1006D80003250CF1FF379540012F6FEA050576D900
:1006E800BCF1030F08D0C76807EA050ED9F80870EF
:1006F800974047EA0E07C76007680CFA02F23D40C8
:100708002A4311F4403F0260D3D000220392DAF862
:10071800442042F48042CAF84420DAF8442002F423
:1007280080420392039A23F0030202F1804203F00D
:1007380003070F2602F59C32BF0006FA07FC494E54
:100748009568B04225EA0C0515D006F58066B042DA
:1007580075D0454EB04278D0DFF818C160457AD0E0
:10076800DFF814C160450CBF4FF0040C4FF0070CC4
:100778000CFA07F73D4395603C4A9268CE026FEA4F
:1007880008053A4E54BF2A4048EA0202B260F268AD
:10079800364E8F0254BF2A4048EA0202F26072685D
:1007A8008E03324E54BF2A4048EA02027260326811
:1007B800C90303F101032D4954BF2A4048EA020244
:1007C800102B0A607FF479AF05B0BDE8F08F876819
:1007D80007EA050ED9F80C70974047EA0E078760BC
:1007E800476827EA080EC1F300179F4047EA0E073B
:1007F8004760C76807EA050ED9F80870974047EAC6
:100808000E07BCF1020FC7607FF476AFDF0800EB7C
:10081800870700973E6AD9F81070019603F0070E13
:100828004FEA8E0E0F2607FA0EF706FA0EFE019E05
:1008380026EA0E0E009E47EA0E0737625CE74FF085
:10084800010C0CFA07F73D4395E74FF0020C0CFA40
:1008580007F73D438FE74FF0030C0CFA07F73D43CA
:1008680089E700BF0000024000080240003C014048
:1008780000380240000C02400010024002B909048E
:1008880081617047002800F06A812DE9F041036812
:10089800DD0782B004462FD59F498A6802F00C0212
:1008A800042A00F0EF808A6802F00C02082A00F09F
:1008B800E5806368B3F5803F00F0EE80B3F5A02FC4
:1008C80000F07981944D2A6822F480322A602A68DF
:1008D80022F480222A60002B40F0E380FFF730FEEC
:1008E800064605E0FFF72CFE801B642800F2038112
:1008F8002B689F03F6D423689D0728D5864A9168FC
:1009080011F00C0F00F09280916801F00C01082999
:1009180000F08880E368002B00F010817F4B7E4E4A
:1009280001221A60FFF70CFE054605E0FFF708FEF6
:10093800401B022800F2DF8033689F07F6D5336832
:10094800226923F0F80343EAC203336023681A07D5
:1009580053D45D0730D5704A136C13F0805300F000
:10096800818000256E4E3368D80540F1B480A368B5
:10097800012B00F0C480052B00F02D81664E326FEC
:1009880022F001023267326F22F004023267002B34
:1009980040F0BA80FFF7D4FD41F28838074605E0F9
:1009A800FFF7CEFDC01B404500F2A580336F9B07C3
:1009B800F6D4002D40F00981A369D3B1564DAA6839
:1009C80002F00C02082A00F0CC80022B534B4FF0A7
:1009D80000021A6600F00981FFF7B2FD044605E03F
:1009E800FFF7AEFD001B022800F285802B689B01F3
:1009F800F6D4002002B0BDE8F08163690BB3474B21
:100A0800454E0122C3F8802EFFF79AFD054604E003
:100A1800FFF796FD401B02286DD8736F9B07F7D52B
:100A2800236896E7526851023FF574AF3A4A126854
:100A3800920744D5E268012A41D0012002B0BDE8FE
:100A4800F081364A344EC2F8803EFFF779FD0546FC
:100A580004E0FFF775FD401B02284CD8736F9F0711
:100A6800F7D4DDE70193136C43F080531364136CE0
:100A780003F080530193019B012573E74A685102F3
:100A88007FF517AF244A126892037FF535AF626885
:100A9800002A7FF431AFD0E71F4A136843F480334C
:100AA8001360FFF74DFD1C4E054604E0FFF748FDB7
:100AB800401B64281FD833689B03F7D51BE71649EA
:100AC80020690A6822F0F80242EAC0020A601A079E
:100AD8007FF53FAF91E7336843F480733360FFF7E6
:100AE8002FFD07463368D9053FF541AFFFF728FDCD
:100AF800C01B0228F6D9032002B0BDE8F081064ADF
:100B0800136F43F001031367FFF71AFD024F064600
:100B180041F288380BE000BF00380240000047422D
:100B280000700040FFF70CFD801B4045E3D83B6F89
:100B38009A07F7D5002D3FF43FAF46E0424A434EAF
:100B48001360FFF7FDFC054604E0FFF7F9FC401BC6
:100B58000228D0D833689907F7D42368F7E601202C
:100B68007047012B3FF469AF6B68E26903F48001B9
:100B780091427FF462AF226A03F03F0191427FF411
:100B88005CAF616A47F6C0721A40B2EB811F7FF40E
:100B980054AFA26A520803F44031013AB1EB024F54
:100BA8007FF44BAFE26A03F07063B3EB026F14BFDC
:100BB800012000201EE7254B1A6842F480221A60A3
:100BC8001A6842F480321A606BE7204A136C23F0EB
:100BD80080531364F0E61D4B1A6F42F004021A6743
:100BE8001A6F42F001021A678EE7FFF7A9FC064662
:100BF80005E0FFF7A5FC801B02283FF67CAF2B68B9
:100C08009901F6D4D4E90731626A0B4343EA8213A7
:100C1800D4E90A2052080C4943EA0063013A43EA3E
:100C2800024301226B600A66FFF78AFC074D0446FF
:100C380005E0FFF785FC001B02283FF65CAF2B6838
:100C48009A01F6D5D5E600BF0000474200380240B9
:100C5800164908B58B6803F00C03042B1BD0082B2E
:100C680001D0134808BD4A684B68496813F48003EB
:100C780002F03F0211D10E48C1F38811A1FB000117
:100C8800FFF786FA094B5B68C3F3014301335B0046
:100C9800B0FBF3F008BD074808BD0648C1F388114A
:100CA8000023A1FB0001FFF773FAEBE700380240CD
:100CB8000024F40000127A00002800F08780484AD7
:100CC800136803F007038B422DE9F0410D460446F3
:100CD80009D2CBB21370136803F007038B4202D01A
:100CE8000120BDE8F0812368980714D5590704D579
:100CF8003C498A6842F4E0528A601A0704D53949A7
:100D08008A6842F460428A603649A0688A6822F09C
:100D1800F00202438A60DF0721D56268012A57D0B2
:100D2800931E012B2F4B1B684DD99907D8D52D4EF3
:100D3800B36823F003031343B360FFF701FC41F2E8
:100D48008838074604E0FFF7FBFBC01B404544D842
:100D5800B368626803F00C03B3EB820FF3D1204A47
:100D6800136803F00703AB4206D9EBB2137013689C
:100D780003F00703AB42B3D123685A0706D51949D4
:100D8800E0688A6822F4E05202438A601B0707D5AC
:100D9800144A2169936823F4604343EAC1039360CA
:100DA800FFF756FF0F4A104C92681049C2F303121E
:100DB8000346A25C0E48D34000680B60FFF77AFB3D
:100DC8000020BDE8F0819801B1D489E7012070477F
:100DD800044B1B689E03AAD482E7032081E700BF67
:100DE800003C024000380240E8750008000000207E
:100DF80008000020044B05499B68054A0868C3F3AE
:100E08008223D35CD840704700380240000000209D
:100E1800E0750008044B05499B68054A0868C3F358
:100E28004233D35CD84070470038024000000020AD
:100E3800E0750008026802F10C0353E8003F23F450
:100E4800907302F10C0C4CE800310029F3D102F147
:100E5800140353E8003F23F0010302F1140C4CE89B
:100E680000310029F3D1036B012B05D02022002388
:100E780080F842200363704702F10C0353E8003FF7
:100E880023F0100302F10C0C4CE800310029F3D1D7
:100E9800ECE700BF0268116938B50446C068A3686A
:100EA80021F4405101432069116103436069D1680D
:100EB8000343E06921F4164121F00C0103430B437D
:100EC800D3605369A069234923F4407303438A42DA
:100ED800536105D0204B9A4202D0FFF78BFF01E007
:100EE800FFF798FFE2691921B2F5004FD4E90053E2
:100EF800A0FB010113D09A009B0FFFF749F9174A8D
:100F0800A2FB00135B09642101FB130000013230CE
:100F1800A2FB00201B0103EB5013AB6038BDDA18AD
:100F28004FF000035B41FFF733F90C4AA2FB003195
:100F38004909642303FB1103DB003233A2FB0323BB
:100F4800C3F342121B0902EB011203F4F8731344B2
:100F5800AB6038BD00100140001401401F85EB5103
:100F6800704700BF70B310B590F84130044603F0E5
:100F7800FF0213B32268242384F84130D36823F492
:100F880000532046D360FFF785FF2368196921F4D1
:100F980090411961596921F02A015961D9680022E3
:100FA8004FF0200C41F40051D960626484F841C0CC
:100FB80084F842C01046626310BD80F84020FFF7F5
:100FC800CFFFD7E701207047704700BFB8B102686C
:100FD800242310B580F84130D36823F40053044625
:100FE800D360FFF7F1FF0023636484F8403084F88E
:100FF800413084F8423018462363636310BD0120F2
:10100800704700BF90F84130202B15D101B10AB9C3
:101018000120704710B40023046801622121C284B2
:10102800436480F84110E168828441F08001E16006
:1010380018465DF8044B70470220704790F842301C
:10104800202B03D101B11AB9012070470220704743
:1010580010B4046981620023222103638285C2855A
:101068004364036880F842101CB1DA6842F4807265
:10107800DA605A695DF8044B42F001025A61DA6895
:1010880042F020020020DA60704700BF036810B504
:10109800044603F10C0252E8002F22F4907203F187
:1010A8000C0040E800210029F3D103F1140252E8B2
:1010B800002F22F0010203F1140040E8002100296A
:1010C800F3D1226B012A28D05A69520607D400238B
:1010D8002022E38584F842201846236310BD03F1DB
:1010E800140252E8002F22F0400203F1140040E8F5
:1010F80000210029F3D1E06B0028E8D00023036524
:1011080000F058FC0028E2D0E06B00F0AFFC20288B
:10111800DDD110236364032010BD03F10C0252E8F3
:10112800002F22F0100203F10C0040E800210029F2
:10113800F3D1C9E708B5806B0023C385FFF75CF9D5
:1011480008BD00BF704700BF90F84230222B49D13C
:1011580083680168826AB3F5805F44D0002B4BD165
:101168000369002B48D14B68DBB21370826A0132E5
:10117800C38D8262013B9BB2C385002B32D100B57F
:101188000268D16821F0200183B0D160D16821F4D0
:101198008071D16051694FF0200C21F0010151613B
:1011A80080F842C04363016B012929D1036302F12E
:1011B8000C0353E8003F23F0100302F10C0C4CE839
:1011C80000310029F3D11368DB0605D501911368B6
:1011D800019353680193019B818DFFF7B3FF03B01F
:1011E8005DF804FB70470369002BBCD14B68C3F35F
:1011F800080322F8023BBBE74B6803F07F03B4E720
:10120800FFF7ECF803B05DF804FB00BF70B50568A4
:101218002B68EE68696913F00F0F82B004462A46FE
:1012280013D19D0602D5B10600F1E080216B01299A
:101238003DD0180602D5310600F1AE805B0602D516
:10124800750600F1C88002B070BD11F0010140F0D0
:101258008D8016F4907FE9D0DA070BD5F00540F1C0
:101268005381626C580742F00102626440F1CD80FC
:1012780000297FD1980740F1CA80190700F103813E
:10128800626C002ADFD09A0602D5B30600F14081CD
:101298006B69626C03F0400302F0080253EA02062D
:1012A800204640F0C080FFF7A7F86664CBE7D80671
:1012B800BFD5F106BDD50023019313680193536888
:1012C8000193019B5169A38D4D0640F1E380E06BCA
:1012D8000168496889B2002900F01F81994280F0AD
:1012E8001C81E185C169B1F5807F36D002F10C031C
:1012F80053E8003F23F4807302F10C0545E8003100
:101308000029F3D102F1140353E8003F23F001034D
:1013180002F1140545E800310029F3D102F1140364
:1013280053E8003F23F0400302F1140545E800317B
:101338000029F3D1202384F84230216302F10C0301
:1013480053E8003F23F0100302F10C0545E8003193
:101358000029F3D100F02EFBA38D02226263E18DF8
:10136800591A204689B2FFF7EDFE6CE7DA0747D431
:10137800580740D5626C990742F0020262643CD576
:10138800626C42F0040262641A077FF579AF626CFE
:1013980042F00802626473E794F84130212B7FF42D
:1013A80052AFA168236AB1F5805F00F0BF80591C75
:1013B80021621B785360E38C013B9BB2E384002BD2
:1013C8007FF441AFD36823F08003D360D36843F040
:1013D8004003D36037E7D368202123F04003D3606C
:1013E800204684F84110FFF705F82CE702B0BDE865
:1013F8007040FFF7A9BE9907C2D41A07C7D43FE7C0
:10140800F0053FF52EAF5A07B4D498073ED4180715
:101418007FF536AF06F020020A43B8D1636C002B83
:101428007FF436AF0FE7FFF705FD6B695E0626D53B
:1014380005F1140353E8003F23F0400305F11401BC
:1014480041E8003262B1226802F1140353E8003F18
:1014580023F0400302F1140040E800310029F3D1E1
:10146800E06B60B1374B036500F0EEFA00283FF4FB
:10147800EAAEE06B036D02B0BDE870401847204645
:10148800FEF7BAFFDFE6B20681D4C7E700293FF4CA
:10149800F4AE75E7E08DE18D89B280B200293FF4A2
:1014A800D2AE1B1A99B200293FF4CDAE02F10C035B
:1014B80053E8003F23F4907302F10C0545E800302F
:1014C8000028F3D102F1140353E8003F23F001038D
:1014D80002F1140545E800300028F3D1202384F8F0
:1014E8004230206302F10C0353E8003F23F010035D
:1014F80002F10C0545E800300028F3D102236363AC
:101508002046FFF71FFE9EE65A073FF5B3AE7CE77D
:101518002046FFF719FE2568BAE699427FF493AE94
:10152800C369B3F5807F7FF48EAEE7E721690029B0
:101538007FF43DAF33F8021BC1F308015160236209
:1015480039E700BF3D110008036A026A22F0010270
:1015580070B40262446882690D6822F073022A43FB
:101568008D6823F002032B430B4DA84206D049682F
:101578004460826170BC416303627047CD6823F0A8
:1015880008032B43D1E9055624F44074354323F06E
:1015980004032C43EBE700BF00000140036A026A22
:1015A80022F4807270B402624468C2690D6822F045
:1015B80073022A438D6823F4007343EA05230C4D14
:1015C800A84206D049684460C26170BCC163036226
:1015D8007047CD6823F4006343EA0523D1E9055633
:1015E80024F44054354323F4806344EA0514E9E7BE
:1015F80000000140036A026A22F4805230B4026299
:101608004468C2690D6822F4E64242EA05228D6800
:1016180023F4005343EA0533074DA84206D049682E
:101628004460C26130BC0164036270474D6924F4B0
:10163800804444EA8514F2E70000014091BB90F829
:101648003E30012B3AD1022380F83E30036801F086
:101658001F01186A01228A4020EA02001862186AEB
:10166800224902438B421A6232D0B3F1804F0ED026
:101678001F4A93420BD002F58062934207D002F5CD
:101688008062934203D002F59A32934204D19A6859
:1016980002F00702062A03D01A6842F001021A6013
:1016A8000020704704290BD0082916D090F8413043
:1016B800012B03D1022380F84130C7E7012070478E
:1016C80090F83F30012BF9D1022380F83F30BDE775
:1016D8005A6C42F400425A64D9E790F84030012B22
:1016E800ECD1022380F84030B0E700BF0000014091
:1016F80000040040036810B41A6A01F01F044FF098
:10170800010C0CFA04FC22EA0C021A621E4A1C6A3A
:101718001C62934222D01C6A41F21112144204D175
:101728001C6A40F24442144213D0012329B980F8BC
:101738003E305DF8044B0020704704291DD008296D
:101748000CBF80F8403080F841305DF8044B002031
:1017580070471A6822F001021A60E6E71C6A41F233
:1017680011121442D7D11C6A40F244421442D2D119
:101778005A6C22F400425A64CDE780F83F305DF895
:10178800044B0020704700BF00000140704700BFB5
:10179800FFF754BFFFF7AEBF70B4264E4A6903681F
:1017A8008D680C68B04235D0B0F1804F1CD0A6F5DA
:1017B8007C46B04218D006F58066B04214D006F5D3
:1017C8008066B04210D01C4EB04211D006F580663B
:1017D800B0420DD006F58066B04209D023F08003F0
:1017E800C5621A4384620CE04E6823F070033343E9
:1017F800C968C56223F440730B4323F080031A437E
:1018080084620368012143F00403036070BC4161F2
:10181800026070474E6823F070033343CE68C56298
:1018280023F44073846233430969016323F080031E
:101838001A43E6E7000001400040014050B310B5EC
:1018480090F83D30044603F0FF02F3B1214602232D
:1018580084F83D3051F8040BFFF79EFF012384F80C
:10186800463084F83E3084F83F3084F8403084F8BD
:10187800413084F8423084F8433084F8443084F8A6
:10188800453084F83D30002010BD80F83C20FFF73B
:101898007DFFDBE701207047036A026A22F010022D
:1018A80070B40262446882690D6822F4E64242EA32
:1018B80005228D6823F0200343EA05130C4DA84246
:1018C80006D049684460826170BC816303627047D6
:1018D800CD6823F0800343EA0513D1E9055624F4C3
:1018E8004064354323F0400344EA8504E9E700BF38
:1018F8000000014038B590F83C30012B57D0012347
:1019080004460D4680F83C300C2A08D8DFE802F07F
:101918001E0707072E0707073F0707070C000120C8
:10192800002384F83C3038BD0068FFF763FEC369C4
:101938002A6943F40063C361C36923F48063C36104
:10194800C36943EA0223C3610020E9E70068FFF79F
:10195800FBFD83692A6943F008038361836923F0E7
:1019680004038361836913438361EDE70068FFF72C
:1019780093FF83692A6943F400638361836923F4CD
:1019880080638361836943EA02238361DCE700683B
:10199800FFF704FEC3692A6943F00803C361C369FA
:1019A80023F00403C361C3691343C361CCE7022076
:1019B80038BD00BF70B50446866DFEF7C1FD94F8CA
:1019C8003530022B06D080236365002384F8343039
:1019D800012070BD23681A6822F016021A605A693D
:1019E80022F080025A61226C054642B31A6822F03E
:1019F80008021A601A6822F001021A6005E0FEF770
:101A08009FFD431B052B10D823681B6813F00103A7
:101A1800F5D1E16D3F228A40184601210023B260CA
:101A280084F8351084F8343070BD032320226265B1
:101A3800184684F83530002384F8343070BDA26C21
:101A4800002AD3D1D6E700BF90F83530022B03D057
:101A580080234365012070470268052380F83530EC
:101A6800136823F00103002013607047406D70472E
:101A780000F0F8B808B500F093F930BFFDE700BFF3
:101A880011B10860012070470846704778B170B5F9
:101A98000D46164604464FF48762002105F0F7FA12
:101AA800324629462046BDE8704003F0D5BF70474E
:101AB80008B104F007B870472DE9F04188B0064630
:101AC80017460C4620220021684605F0E0FA002E51
:101AD80041D0002C3FD096F82A04D4E90423A0B3BF
:101AE800D6F83004D6F83414994208BF904206F567
:101AF800866830D0CDE90023D4E90D212346C6E914
:101B0800932133F8022BD4F8020003920490104674
:101B1800A269029201259A889B79ADF8142006A93A
:101B28008DF816308DF81C50FFF7AAFF3A468DF84D
:101B38001D003046D4E904676946C8E9006704F027
:101B4800B7F9284608B0BDE8F08152EA0301F9D098
:101B580006F58668CEE7002008B0BDE8F08100BF32
:101B6800C0B170B50D46044604F010F9284602F0DD
:101B780061F928B929462046BDE8704004F0AEBC9A
:101B880002F0FEF82B4620460A22BDE870400621E6
:101B980003F042BF704700BF08B104F00BBD7047A7
:101BA800704700BF1C4A1D4B116B41F0020182B007
:101BB8001163116B01914FF4C02001999861D968A4
:101BC800174821F03C0141F02801D960596821F0FB
:101BD80006015960196821F03C0141F014011960AF
:101BE800136C43F003031364136C01934FF0804CA0
:101BF8000021019BCCF83C10C163DCF8203023F4B1
:101C08008073CCF82030036A23F480730362BFF337
:101C18004F8F02B0704700BF0038024000040240F6
:101C28000004004010B59AB004464422002109A8D7
:101C380005F02DFA002341F2BF21602208A8CDE962
:101C48000333CDE9053302930B910192079308946E
:101C5800FFF7F4FD082201A908A8FFF74BFE1AB008
:101C680010BD00BF70B58AB02A4B002401941A6BCE
:101C780042F002021A631A6B02F002020192019A00
:101C880002941A6C42F001021A641A6C02F0010202
:101C98000292029A03941A6C42F002021A641B6CB4
:101CA80003F002030393039B00F03AF81A490894DF
:101CB8004FF4C0228A6102250623012604A916488A
:101CC8000493CDE905650795FEF7E8FC04A94FF4F0
:101CD8008062022310480896CDE90423CDE9064521
:101CE800FEF7DCFC0122022304A90B480694CDE987
:101CF8000423CDE90755FEF7D1FC4FF08040FFF7EC
:101D080091FF0648FFF78EFF0AB0BDE8704000F06B
:101D180047B800BF003802400004024000040040F9
:101D28001C4A1D4B116B41F0020182B01163116B0B
:101D380001914FF4C02001999861D968174821F0A2
:101D48003C0141F02801D960596821F00601596029
:101D5800196821F03C0141F014011960136C43F03B
:101D680003031364136C01934FF0804C0021019B13
:101D7800CCF83C10C163DCF8203023F48073CCF835
:101D88002030036A23F480730362BFF34F8F02B0DD
:101D9800704700BF003802400004024000040040C1
:101DA800FFF7BEBF08B568B90B490C480122FFF719
:101DB80045F908B9012008BD094AD3690133002053
:101DC800D36108BD0548FFF761F90028ECD0044A43
:101DD800936901339361E7E7380500204005002047
:101DE800BC040020F0B5282287B000213548364DC4
:101DF800002405F04CF9354800F0C6FACDE9014455
:101E0800CDE90344009405942B6B314843F0040357
:101E18002B632B6B03F00403224600934FF480716D
:101E28000227009B0126FEF729FD4FF480732848FE
:101E3800039401A9CDE901360497FEF72FFCC023CE
:101E48002348019301A908230593CDE90347029785
:101E5800FEF724FC01946B6C43F020036B646B6CFD
:101E680003F020030193019A1A4A1B4B13604FF4A5
:101E7800E133536010460C23C2E90244C2E904432B
:101E8800C2E90644FFF76EF810B1002007B0F0BDB4
:101E9800024605214720FEF77DFB4720FEF7B6FBEB
:101EA8000E490C483246FFF7C9F810B9304607B05A
:101EB800F0BD044AD36947203344D361FEF7B4FB2D
:101EC800E3E700BFBC04002000380240E80400201B
:101ED8000008024040050020001401403805002099
:101EE80008B54720FEF7A0FB1048FFF7CFF80F48CA
:101EF800FFF76CF808B1002008BD0C48FFF732F86E
:101F08000028F8D10A4800F03FFA4720FEF77EFB88
:101F1800084906480122FFF791F808B9012008BDD1
:101F2800054AD3690133D361E5E700BF40050020C6
:101F3800E804002038050020BC0400200148FFF711
:101F480065B900BF4005002038B50446D0B1EFF3AD
:101F5800108572B60C4800F0ABFA8646BEE80F0052
:101F6800A446ACE80F00BEE80F00ACE80F00BEE8DE
:101F78000F00ACE80F009EE80F008CE80F0005B9D1
:101F880062B6012038BD00BFE804002028B1114B1B
:101F980002689A4202D000207047704710B50E4C74
:101FA800236801332360FEF7CBFA0C49034601226C
:101FB8000B4800F0EFF909490A480122FFF73EF8FB
:101FC80008B9012010BDE36901200344E361FFF76C
:101FD800E9FEF6E700140140BC04002038050020A3
:101FE800E80400204005002028B1174B02689A42F7
:101FF80002D000207047704710B5144B446C5A68E3
:1020080090F842101C6201325A60426C5962120701
:1020180002D59A6801329A60426C540702D5DA6890
:102028000132DA60426C910702D51A6901321A61ED
:10203800426CD20702D55A6901325A610120FFF772
:10204800B1FE012010BD00BF00140140BC040020F7
:10205800B0B170B50D4649B116464FF6FE73013A58
:102068009A4203D80446FFF711F808B1002070BD62
:10207800B2B229462046FEF7C5FF18B9012070BD47
:1020880000207047054906480122FEF7D7FFB0FA3D
:1020980080F14909034800F0C7FEE7E7C8060020B9
:1020A800D0060020880500200A4602480221FEF7D3
:1020B800E5BB00BF0000024000286ED02DE9F041CA
:1020C800014688B03848394E002400F0C5FB38482E
:1020D80000F050FECDE90344CDE90544029407948D
:1020E800336B344843F001033363336B03F001036C
:1020F8002246029302210225029B0127FEF7BEFB1E
:102108002C4803A9CDE90357CDE905454FF00C0844
:10211800FEF7C4FA07232748049503A90695264D18
:1021280007930594CDF80C80FEF7B8FA234B244AA0
:102138001D492448009500F0B5FDC5E90244C5E9EC
:1021480006440394C5F814802C61336C1E4A43F48A
:1021580000333364336C03F40033039328464FF49D
:10216800E133C5E900230399FEF7FCFE18B100200E
:1021780008B0BDE8F081024605212620FEF70AFADC
:102188002620FEF743FA11493A462846FEF756FF3D
:1021980028B9384608B0BDE8F081002070472620ED
:1021A800FEF742FAE3E700BFF405002000380240DA
:1021B8008805002000000240D006002059200008B1
:1021C800B1200008E005002000440040C8060020B7
:1021D8000148FFF71BB800BFD006002070B5194BA7
:1021E80090B026205E68FEF71FFABFF35F8F3F228C
:1021F8006946154800F0ECFD0546134800F036FE28
:102208000446BFF35F8F710606D455B9A2070FD4F1
:10221800E30712D410B070BD2620FEF7F7F9002DA1
:10222800F4D02A460948694600F022FBA207EFD5F8
:10223800074800F08BFD10B070BD054800F072FD36
:1022480010B070BD00E100E088050020F405002012
:10225800E00500200146014800F04CBBF4050020D1
:1022680010B50446084800F033FB08B9002010BD3B
:10227800054800F037FB0028F8D121460248BDE8A0
:10228800104000F0B7BB00BFF4050020014800F083
:102298001BBD00BFE005002028B10D4B02689A4223
:1022A80002D000207047704710B50A4C0A482178C0
:1022B80000F070FD012221460848FEF7BFFEB0FA83
:1022C80080F14909044800F0AFFD012010BD00BFAE
:1022D80000440040C806002088050020D0060020E1
:1022E800E0B108B502680E4B9A4201D0002008BD43
:1022F80000220C480221FEF7C1FA0B48012100F028
:10230800A9FD012209490A48FEF798FEB0FA80F1B2
:102318004909054800F088FD012008BD704700BF45
:10232800004400400000024088050020C806002044
:10233800D0060020E0B108B502680E4B9A4201D0E1
:10234800002008BD00220C480221FEF797FA0B482E
:10235800022100F07FFD012209490A48FEF76EFEBE
:10236800B0FA80F14909054800F05EFD012008BD7A
:10237800704700BF0044004000000240880500206C
:10238800C8060020D006002018B15022002104F011
:102398007EBE7047002800F08A80002900F0878000
:1023A800002A00F084802DE9F041013A82B01F46EE
:1023B80004464D1E8E184FF0000809E0FD2820D075
:1023C800226BE36B013201332263E363B5421DD014
:1023D800A26815F8010F002AF0D0511C0729A05453
:1023E800A160F3D101AA2046ADF8048000F05EFD9B
:1023F80090B304280DD005280ED1A36B0133A36335
:102408000AE00123B5422070A360E1D102B0BDE823
:10241800F081636B01336363A268D4F83CC0012A7E
:1024280041D92346012102E0013191420FD013F82E
:10243800010FFD28F8D10CEB01038A42E36308D9A8
:10244800521AA2602144204604F008FEBEE7614407
:10245800E1630023A360B9E72346A28853F8121B5F
:10246800C4F81210A17999719A80E36ABDF8040042
:1024780053B1226C616CBA1A09B18A4200D2626403
:10248800A16C8A4288BFA2640133C4E90A73236A33
:10249800208201332362636A276443F10003636285
:1024A8000023A36092E70CF10103E363D1E77047CF
:1024B80000B11030704700BF2DE9F0410C4684B0E0
:1024C80015460127064600222946204698468DF8DB
:1024D8000870039204F0BCF8A8B95EB1062C0DD0C0
:1024E800052C0CD1012D19D0AB1E012B07D8B8F53E
:1024F8007F4F2FD0384604B0BDE8F081EDB10620FB
:1025080004B0BDE8F0810A9B00932A464346214661
:10251800304604F0B7F804B0BDE8F081B8F57F4F55
:102528001DD0B8F1000F13D12B460A9A8DF8083048
:1025380002A9304603F016FBE2E707230A9A8DF852
:10254800083002A93046CDF80C8003F00BFBD7E722
:102558002846D5E7032D14BF09230823E5E70346DA
:10256800E3E700BF70B513460C4615460A4601213D
:10257800064604F011FD30B936B12DB124B996F8EC
:10258800943013B92C80012070BDB6F87840F9E773
:102598002DE9F8430C4617460A46002180461E4698
:1025A80004F0FAFC60BB0546B8F1000F29D046B329
:1025B80001F0A2FF814620B3A4F10B03062B1AD920
:1025C800A4F11403032B1FD9242C1AD8DFE804F034
:1025D800BCB0ACA8A4A09D95928F731919191919AC
:1025E8001919706C19191919686460574E4A4642CE
:1025F8003E3734312F0008EB040090F85D3033800B
:1026080001252846BDE8F883C4F11704D8F85C1002
:10261800D8F858302401C4F12002E34001FA02F24C
:10262800203C134321FA04F423433380E8E737803E
:10263800E6E73A0C3280E3E700233380E0E798F8D6
:102648009430002BDBD0B8F87830D8E7D8F8A4302D
:102658003380D5E7B8F8A6303380D1E7D8F8A03072
:102668003380CDE7B8F8A2303380C9E7D8F8AC207A
:102678004FF6FF73934228BF13463380C0E7D8F85C
:10268800A8204FF6FF73934228BF13463380B7E75D
:10269800B8F8B0303380B3E7D8F860303380AFE7AC
:1026A800B8F862303380ABE790F820303380A7E782
:1026B800C37F3380A4E73946404603F039FA99F8D6
:1026C8001C3099F81D1099F81E209B0043EAC1039D
:1026D80098F8941043EA410343EA021398F84C200F
:1026E80003439BB2002A3DD143F0200387E7438B85
:1026F800338085E7038B338082E742684FF6FF73A8
:10270800934228BF134633807AE70378338077E70C
:1027180098F80330338073E798F8023033806FE716
:1027280098F8013033806BE798F80030338067E71A
:1027380098F874309BB1D8F864204FF6FF73934231
:1027480028BF13469BB25AE798F874303BB198F803
:10275800753023B1D8F87030B3F5803FF2D34FF617
:10276800FF734CE743F0600349E700BF436A072B58
:1027780071D970B50446051D461D0621284600F08E
:10278800B9FB62892379824211D0012B04D1D4F894
:10279800B4300133C4F8B430D4F8BC30626A0133C1
:1027A800012AC4F8BC302CD80023636270BD012B09
:1027B80013D0D4E92E13626A01310833082AC4E918
:1027C8002E13F1D9083A626204F10C01284604F08C
:1027D80045FC636A072BD0D870BDD4F8B020617966
:1027E80001320529C4F8B02012D0A36C032B1FD9DD
:1027F800D4F8C4300133C4F8C430626A082AD3D983
:10280800E0E7013A62623146284604F027FCE0E737
:10281800E288B2F5807FE8D12289002AE5D194F8D0
:1028280054208AB1D4F8C8300133C4F8C830E4E77A
:1028380005332868696844F8330004EBC302516023
:10284800A36C0133A364D8E72A6869682165E26448
:1028580084F85430D1E7704748B138B504460D467E
:10286800D0220021043004F012FC256038BD7047E6
:1028780068B361B35AB3013A2DE9F04705464E1ED5
:102888008F184FF01F0A00F1050900F104080AE04B
:10289800621C2C4416F8013F237128466A62FFF730
:1028A80065FFBE4211D06C6A202CF1D1D5F8BC303E
:1028B800C5F824A001331F22C5F8BC30494640465C
:1028C80004F0CCFB22461F24E3E7BDE8F0877047FD
:1028D80010B5044628B1FFF749FFA06C003818BFAF
:1028E800012010BD10B5044618B1FFF73FFF94F85A
:1028F800540010BD2DE9F04184B040B1036804468E
:102908002BB10D46FFF732FF94F8546026B9002624
:10291800304604B0BDE8F0810095E06C216DB4F854
:102928004E2002AB03C3B4F8503094F84D10206821
:10293800002552BA5BBA9BB292B284F85450FFF7A2
:10294800BBFDD4F8CC30A26CA5641344C4F8CC30D9
:1029580094F8AC30002B39D100283DD048F201530F
:102968000128A4F8853004F1850841D006280CBF59
:102978000223042384F887300321404600F0BAFA82
:10298800030A84F88930D4F8C03084F88800052216
:102998000133C4F8A820C4F8C03094F88450012743
:1029A80084F8AC70002DB3D1D4F8A820414604F1C6
:1029B8005D0004F099FBD4F8A830C4F8803084F89E
:1029C8008470C4F8A85084F8AC50A1E7D4F8D0308B
:1029D8000133C4F8D0309BE702AB03CB082304F1E2
:1029E8008508C4F88500C4F88910C4F8A830D4E76D
:1029F8000323BFE700285FD02DE9F047036884B0C0
:102A0800044643B10D46FFF7B1FE94F8543013B9AC
:102A180094F884301BB1002004B0BDE8F08720464C
:102A2800FFF7A4FEA16C0029F5D0A26AC4F85520CE
:102A38000129E26AC4F8592004F1550604F1280373
:102A48000CD00122194653F8080FD3F804C0C1F876
:102A580004C00860A16C01329142F3D894F8568002
:102A6800A8F103030139012BA16464D9A8F1050376
:102A7800012B23D9012568F07F0884F85D5084F87C
:102A88005E8084F85F50032104F15D0000F032FAA3
:102A9800D4F8C03084F86000010A05222B4484F879
:102AA8006110C4F8802084F88450C4F8C0302046EF
:102AB800FFF75CFE0120AFE700207047B4F857A08D
:102AC800B4F859309AFA9AF7BFB25BBA3946404619
:102AD8001FFA83F903F0BCFD98B9B8F1060F0DD0C1
:102AE8007B1E022B0DD9012568F07F08022384F88C
:102AF8005D5084F85E8084F85F30C4E7BAF1000F57
:102B0800F1D1009520684B463A464146FFF7D4FC80
:102B180000285FD0012800F0908006280CBF02230F
:102B28000423012568F07F0884F85D5084F85E80EE
:102B380084F85F30A7E7B4F85990B4F8577099FA59
:102B480099F91FFA89F909F1FF337FBA0A2BBFB245
:102B580068D84FEA490A264604EB490913E00DF103
:102B68000E032A46FFF714FD0137B0B1BDF80E3049
:102B780086F861301B0A86F860300236B14537D0D6
:102B8800B7F5803F09D0B8F1030F2068B9B2E6D194
:102B98000DF10E02FFF7E6FCE6E7012568F07F0875
:102BA800022384F85D5084F85E8084F85F30032146
:102BB80004F15D0000F09EF9D4F8C03084F860009C
:102BC800010A052284F86110C4F8802084F8845032
:102BD8002B446AE77168D4F85500C4F85D000822F0
:102BE8000123C4F86110C4F8802084F884305EE7BB
:102BF80004F15D0501260AF105030AF103072846D9
:102C080084F85D6084F85E8084F85FA0C4F8803042
:102C1800394600F06FF9E8555544000A287184F8E0
:102C2800846044E70321012568F07F0884F85D503B
:102C380084F85E8084F85F10BAE7032371E700BF69
:102C480048B149B190F8843023B1D0F880300B6096
:102C58005D307047184670470846704770B138B500
:102C680090F8AC300025044680F88450C0F88050B5
:102C78002BB92046BDE83840FFF778BD7047D0F83B
:102C8800A82000F185015D3004F02EFAD4F8A820C0
:102C9800C4F88020012384F88430C4F8A85084F84C
:102CA800AC50E6E710B4019C50B1C0E90012002115
:102CB800C0E9023401611AB120465DF8044B10479F
:102CC8005DF8044B704700BF40B330B50446006858
:102CD80083B028B163681BB1A3680BB1237C1BB117
:102CE8000021084603B030BD01A9FFF7A9FF05463A
:102CF8000028F5D06368E068012198472946A36851
:102D0800019AE0689847014620B1012308462374D8
:102D180003B030BD6368E0689847E1E700210846E2
:102D2800704700BF80B1436810B5044623B1C0683E
:102D380000219847237C03B910BD00232068237421
:102D4800BDE81040FFF78ABF704700BF80B14368F5
:102D580010B5044623B1C06800219847237C03B905
:102D680010BD002320682374BDE81040FFF776BF2C
:102D7800704700BF68B110B540220021044604F036
:102D880086F9002323646364A364E36423656365AD
:102D980010BD7047C8B1026CBFF35B8F531C03F0C2
:102DA8003F03D0F844C0BFF35B8F634505D081541F
:102DB800BFF35B8F036401207047483050E8003F41
:102DC800013340E80032002AF8D10020704700BFE4
:102DD80070B5864610B111B30AB9104670BD436C80
:102DE800BFF35B8F056CBFF35B8F9D4219D0013A2F
:102DF8008E1801F1FF3C5C1C1EF80300624604F0CB
:102E08003F030232AB420CF8010FA2EB010001D0E4
:102E1800B445F0D1BFF35B8FCEF8443070BD08469F
:102E280070BD0020F6E700BF50B100F14C0353E835
:102E380000CF0CF1010C43E800C2002AF7D101B120
:102E48007047503050E8003F013340E80032002A14
:102E5800F8D1704748B1BFF35B8F543050E8003F5A
:102E68000B4340E80032002AF8D1704760B1BFF345
:102E78005B8F00F15403002253E8000F43E8002160
:102E88000029F9D1BFF35B8F704700BF60B151B122
:102E98000139431E4218002013F8011F934280EAAB
:102EA8000100F9D170470846704700BFE0B170B51E
:102EB8001546DAB1072911D10378FD2B04460FD145
:102EC80005214679FFF7E2FF86420BD1A379FE2B55
:102ED8000ED1B4F801302B80002070BD022070BDE7
:102EE800032070BD042070BD01207047012070BD13
:102EF800052070BD8446E0B1C9B100B500EB010EF4
:102F08004FF6FF701CF8013B0822584000F00103FF
:102F180003EB830103EB413383EA5000531E13F0A4
:102F2800FF0280B2F2D1E645ECD15DF804FB084619
:102F3800704770470020704748B91D4B5B6903F024
:102F48000603062B0A46014609D000207047184B95
:102F58005B6903F00603062B4FF00002F5D14FF032
:102F68008043186A10F4807014D010B4114C206A91
:102F780010F480700BD0186810F0010007D020689A
:102F880010F0010003D0D86B904204D000205DF807
:102F9800044B70477047E26B8A42F7D1DB6B23B171
:102FA800E06BB0FA80F04009F1E70120EFE700BFDD
:102FB8000004024000040040F0B5044689B00D4604
:102FC800164600214822CDE90211CDE90411CDE9C8
:102FD80006111F4604F05BF841F2BF22E26025604B
:102FE800602220460192FEF729FC20B1084B1E7092
:102FF800002009B0F0BD082201A92046FEF77AFC9E
:1030080010B9012009B0F0BD014B1F70F0E700BFF7
:103018001807002010B5FDF7EDFE1B4B9B6813F455
:10302800E05F1A4B18BF4000984201D0002010BD45
:103038004FF08042906A0028F8D1154CA16A002907
:10304800F5D1D36A41F2BF208342EFD1E06A9842BA
:10305800ECD1D36903F07003602BE7D1E36903F087
:103068007003602BE2D1136A13F40073DED1216A76
:103078008905DBD4D3695B07D8D4E069C0F3800045
:1030880080F00100C0B210BD0038024000D8B80579
:10309800000400402DE9F0474FF08044A44FA54DAF
:1030A8000026814688463E70FEF73AFE236823F0E4
:1030B800010323602B6823F001032B6026612E6136
:1030C800BFF34F8F9C4B93F800A0BAF1000F41D08B
:1030D80008F1FF339BB241F2BE22934227D8FFF793
:1030E80029FF0646002848D008219448FEF752FBDD
:1030F800082106469248FEF74DFB002E40F0D98085
:1031080000283CD00B233B70FEF70AFE4FF08042AC
:10311800884B116821F0010111601968002021F025
:103128000101196010611861BFF34F8F0FE0082388
:103138003B70FEF7F5FD236823F0010323602B683D
:1031480023F001032B6026612E61BFF34F8F00200F
:10315800BDE8F08707233B70FEF7E2FD236823F004
:10316800010323602B6823F001032B60C4F810A02F
:10317800C5F810A0BFF34F8FE9E70923D8E76F4BD5
:103188001B68D8636E4B1B68D86301236062686252
:1031980063616B6120612861BFF34F8F694B5B6985
:1031A80013F0060F40F08380E36B002B7FD1EB6BAD
:1031B800002B7CD1636A002B79D16B6A002B76D106
:1031C8004FF080452B6ADA0571D45A4E336ADB0515
:1031D8006DD42B68DC076AD4336813F0010A66D112
:1031E80056480821FEF7D4FA0446002865D1544809
:1031F8000821FEF7CDFA002872D1BFF34F8F514B4B
:103208005B6913F0060F56D1EB6B002B53D1F36BB0
:10321800002B50D12B6AD8054DD5464D2B6AD905C0
:1032280049D54FF080463368DA0744D52B68DB0769
:1032380041D5DFF810A16FF0010300247462012268
:103248006C620621336150462B61FDF717FBBFF313
:103258004F8FDAF8143003F00603062B56D1374B9C
:103268001A68374B1B68B9F1000F4AD0D463C3F80A
:103278003C80BFF34F8F41464846FFF75DFE04464A
:1032880000287FF465AF32233B70FEF749FD4FF00D
:103298008042284B116821F001011160196821F062
:1032A8000101196014611C61BFF34F8F4FE72D2393
:1032B80029E70A2327E7302325E72E233B70FEF76B
:1032C8002FFD2B6823F001032B60336823F00103E3
:1032D8003360C5F810A0C6F810A0BFF34F8F36E7CB
:1032E8002F233B70FEF71CFD2B6823F001032B6096
:1032F800336823F0010333602C613461BFF34F8FCF
:1033080025E7C2F83C80C3F83C90B2E731233B7014
:10331800FEF706FD336823F0010333602B6823F0C2
:1033280001032B6034612C61BFF34F8F0FE700BF9F
:103338001807002000040040AC07002064070020A4
:103348001C0700200004024008B5FEF7E9FC4FF016
:103358008042074B116821F00101116019680020B3
:1033680021F00101196010611861BFF34F8F08BD8A
:10337800000400400F4B586910F0060018D14FF0B8
:103388008043DA6B9AB90C49C86B88B91A6A12F487
:1033980080720CD1086A10F4807007D11B68DB07B3
:1033A80005D40868C04300F0010070471046704714
:1033B8000020704700040240000400402DE9F0435B
:1033C8006C4E6D4B6D4D6E4F4FF0000885B086F812
:1033D80000801A6B85F8008042F002021A631A6CAA
:1033E80042F003021A641A6B03921A6C039B4FF0A3
:1033F800804453400393039BFEF792FC236823F019
:10340800010323603B6823F001033B60C4F810808C
:10341800C7F81080BFF34F8F5A4B5B484FF4C02258
:103428009A615A6822F006025A609A6842F03C0291
:103438009A60DA6822F03C0242F02802DA601A68E0
:1034480022F03C0242F014021A601A6822F4401278
:1034580042F400121A605A6822F480625A609A682C
:1034680042F440129A60DA6822F44012DA605A6A2A
:1034780022F4706242F480725A621A6822F00302DF
:1034880042F002021A605A6822F001025A609A68F1
:1034980042F003029A60DA6822F00302DA601A6ADC
:1034A80022F00F0242F002021A6221460223012290
:1034B800FFF782FD18B33548042303223946FFF786
:1034C8007BFD8146E0B1FEF72BFC236823F0010366
:1034D80023603B6823F001033B60C4F81080C7F801
:1034E8001080BFF34F8FFFF795FD8046E0B1FFF7DF
:1034F80041FF60B301232B7005B0BDE8F08381461E
:10350800FEF70EFC236823F0010323603B6823F0D9
:1035180001033B60C4F81090C7F81090BFF34F8FB9
:10352800002005B0BDE8F08305233370FEF7F8FBF3
:10353800236823F0010323603B6823F001033B6009
:10354800C4F81080C7F81080BFF34F8FE8E7062350
:1035580001903370FEF7E4FB2368019823F0010320
:1035680023603B6823F001033B6020613861BFF3AF
:103578004F8FD5E71807002000380240AC0700201D
:103588000004004000040240640700201C070020DB
:1035980001460120FFF77EBD01460020FFF77ABDF6
:1035A800014B1878704700BF1807002070B50E4609
:1035B800044648B32C4BDD6B2C4B1B786BB1FFF7E3
:1035C800B9FC50B1ADB245B1731E9BB241F2BE22F7
:1035D800934202D8FFF71EFDD0B9254B32221A704C
:1035E800FEF79EFB4FF080421F4B116821F001014E
:1035F80011601968002021F001011960106118613B
:10360800BFF34F8F002070BD4FF08043DD6BD3E7D1
:1036180029462046FFF790FC0028DED0FCB1124B6B
:10362800DE63BFF34F8F20463146FFF785FC044623
:103638000028E8D10E4B32221A70FEF771FB4FF0CA
:103648008042094B116821F001011160196821F0CD
:103658000101196014611C61BFF34F8FD2E74FF06D
:103668008043DE63DDE700BF00040040AC070020B4
:103678001807002038B50C4640B9A9B1FFF7CAFCB5
:1036880080B12146BDE83840FFF756BC51B9054620
:10369800FFF7C0FC30B12C4621460020BDE8384079
:1036A800FFF74ABC002038BDBDE83840FFF762BECE
:1036B8000A4B002210B5DA601968094C21F00101A3
:1036C800196032201A615A622270FCF7ADFF32206D
:1036D800FCF7D6FFBFF34F8F10BD00BF000C0040B2
:1036E800AF070020F0B53149314E324C324A334DE4
:1036F800002383B008603370237013702B70002888
:1037080051D02F4F2F49386C40F008003864386C7E
:1037180001900198CB60086820F0010008600B61F7
:1037280032204B621370FCF77FFF3220FCF7A8FFB2
:10373800BFF34F8FFDF75EFBBB68234A13F4E05FCE
:1037480018BF4000A0F51C53103B934226D81F4BCE
:103758001F4A00FB03F3B2EB331F1FD31D4A194B5B
:10376800A2FB0020400B1C4A013810600C221A6092
:10377800012600224FF0FF315A609A609A611A625E
:103788009862D96232205A6304215E611A61FCF79B
:1037980001FF304626702E7003B0F0BD122333703F
:1037A800002003B0F0BD11233370F9E7B8070020FB
:1037B800AD070020B0070020AF070020AE070020AB
:1037C80000380240000C0040FFFF0F27917EFB3AB3
:1037D800B88D06005917B7D1B40700202DE9F0417C
:1037E800354C364F364B002582B03D70E560226877
:1037F80022F0010222600646256132206562884671
:103808001D70FCF711FF3220FCF73AFFBFF34F8F12
:103818002C4A1278002A45D02B490A78002A41D030
:10382800002E3FD046453DD20A20A6FB0036A8FB15
:1038380000800643002E3CD14FF00C0E234E01921F
:10384800C4F800E03668A66208F1FF30E06201269D
:1038580003206363656266612561E0603220FCF7DE
:103868000FFF2068164B30431E702060BFF34F8F48
:103878002568019A1449354017D115223A700D7000
:10388800E560236823F0010323600D4B2561322096
:1038980065621D70FCF7C8FE3220FCF7F1FEBFF32D
:1038A8004F8F01E013223A700022104602B0BDE8A3
:1038B800F08114223A70F7E7000C0040AD070020B1
:1038C800AF070020B0070020AE070020B407002093
:1038D800034B187818B1034B186800F001007047C3
:1038E800AF070020000C0040024B187808B1024BCB
:1038F80018787047B0070020AE070020014B1878F1
:10390800704700BFAD070020314B70B51B68314CC4
:103918002269002B45D0304E357845B391051AD52C
:103928002E492F4A1920087000211170022098474B
:10393800284B0022DA60196821F001011960322051
:103948001A615A623270FCF76FFE3220FCF798FE5B
:10395800BFF34F8F70BD12F0010020D112F00202A8
:10396800E5D11E491A2008701D490A70DEE71C4976
:103978001A4A0D700220182111709847E5602368D3
:1039880023F0010323603220256165623570FCF75E
:103998004BFE3220FCF774FEBFF34F8F70BD012041
:1039A800C5E70E490E4A1B2008701370E3602268B1
:1039B800094922F0010222603220236163620B7000
:1039C800FCF732FE3220FCF75BFEBFF34F8F70BD71
:1039D800B8070020000C0040AF070020AD0700200A
:1039E800AE07002038B5104B104D1B7800222A7006
:1039F8007BB10F4B1C7864B10E4A126940F2032365
:103A08001A420BD13220FCF701FEBFF34F8F20463C
:103A180038BD16232B700024204638BD17242C707F
:103A2800FFF772FF2C70F6E7AF070020AD07002004
:103A3800AE070020000C0040F8B51F4B1C78002C86
:103A480038D01E4B1C78002C34D01D4F3C78002CED
:103A580030D1831E622B05462CD81A4EF460336889
:103A680023F0010333603220346174623C70FCF748
:103A7800DBFD3220FCF704FEBFF34F8F04233360D5
:103A8800114B05EB85001B68B36240004FF0FF3314
:103A9800F3620A380123032270637462736134612C
:103AA800F2603B70336843F001033360BDE8F840CF
:103AB800FFF798BF0020F8BDB0070020AE07002030
:103AC800AF070020000C0040B407002070B51E4D61
:103AD8001E4C2B78616A626B23B32368DB0721D500
:103AE8001B4B1B78F3B1831E622B1BD8266940F24F
:103AF80003231E4024D18A1A002A15DB154B3046B1
:103B08001B689847E660236823F00103236032208E
:103B1800266166622E70FCF787FD3220FCF7B0FD47
:103B2800BFF34F8F002070BD00EB80000A3901EB16
:103B380040016163BFF34F8FBDE87040FFF752BF8C
:103B4800FFF7E2FEEEE700BFAF070020000C0040E1
:103B5800AE070020B807002010B50446FFF7F4FBB5
:103B6800FFF7A6FD044A0549054B00201070012205
:103B78000C701A7010BD00BF04080020BD0700209B
:103B8800BC07002010B5FFF7DFFBFFF791FDFFF73B
:103B9800D1F90E4C80F001006077FFF7EBFBA077BE
:103BA80018B1FFF795FE40B910BDE37F1BB942F687
:103BB8000403A4F81F30042010BDE37F1BB942F6AC
:103BC8000313A4F81F30032010BD00BFC007002056
:103BD80038B50546FFF7AEF92F4C80F00100607745
:103BE800FFF7C8FBA077C0B1022D42D02378052B80
:103BF8000AD08DB3012D4FF0000034D003220023EA
:103C0800A270A361237738BD002DF3D104220023CD
:103C1800A2702846A361237738BDFFF795FBFFF70D
:103C280089F980F001006077FFF7A4FBA077FFF720
:103C3800B7FCE37F73B900284FF0040508BF2220C2
:103C48000322002384F82000E577A2702846A361A8
:103C5800237738BD0420D1E701220023A27028462B
:103C6800A361237738BD02220023A270A3612377C2
:103C780038BDFFF743FEE27F03464AB900284FF0FC
:103C8800030208BF2C231046E27784F82030B6E7F9
:103C980003200246B3E700BFC007002070B5324CCE
:103CA800324EFFF751FB24220021204603F0EFF9A2
:103CB8002F49304A304B00250D70157002221A70BA
:103CC8003570FFF737F980F001006077FFF752FB96
:103CD800A077FFF773FB80B12848FFF703FD58B3BF
:103CE80001233370FFF726F980F001006077FFF7B2
:103CF80041FBA077C0B1284670BDFFF725FBFFF751
:103D080019F980F001006077FFF734FBA077FFF71F
:103D180047FCE37F33B9A84208BF2C200423E3778C
:103D280084F82000042070BDE37F002BFAD141F60F
:103D38000443A4F81F30F5E7FFF706FBFFF7FAF88E
:103D480080F001006077FFF715FBA077FFF7D6FD3D
:103D5800E37F33B9002808BF2C200323E37784F8D6
:103D68002000032070BD00BFC0070020BE07002050
:103D780004080020BC070020BD070020613B0008A4
:103D880070B5EFF3108672B6BFF35F8F254B264CE4
:103D980000251D70FFF7D8FAFFF78AFC234A244B49
:103DA80015700222C4E90155C4E903552570A561BF
:103DB80025771A70FFF7BEF880F001006077FFF7EB
:103DC800D9FA0546A077FFF783FD2DB1D8B9BFF31F
:103DD8005F8F86F3108870BDE37F1BB942F604231A
:103DE800A4F81F30FFF7B0FAFFF7A4F880F001003D
:103DF8006077FFF7BFFA0346A3770420BFF35F8F0E
:103E080086F3108870BDE37F1BB942F60333A4F82C
:103E18001F30FFF74DFC0320BFF35F8F86F3108838
:103E280070BD00BF04080020C0070020BC070020A8
:103E3800BD0700202DE9F041654C23783BB1654A68
:103E4800002310782370BDE8F041FFF7C1BE03F0EE
:103E5800FF070546FFF76EF85F4E80F001007077A8
:103E6800FFF788FA2378B07703F0FF0833B1594B8E
:103E780018782770BDE8F041FFF7AABE337F13BB5F
:103E8800002841D0FFF724FD70B9FFF72DFD034648
:103E9800002837D12278002A5BD04E4A1078237048
:103EA800BDE8F041FFF794BEFFF74EFAFFF700FCBC
:103EB800F37F0322B2701BB942F60313A6F81F3032
:103EC8000320BDE8F081FFF70FFD034690BB227881
:103ED800002AE2D1FFF712FDF37F33B9002808BFAB
:103EE80023200323F37786F82000FFF72DFAFFF746
:103EF800DFFBBDE8F0410220FFF76ABE374B1B68C5
:103F0800002B4AD10020DCE7FFF71EFAFFF7D0FBB1
:103F1800FFF710F880F001007077FFF72BFAF37FB6
:103F2800B0770322B2701BB942F60403A6F81F301B
:103F38000420C6E7FFF7CCFC0346B8B92278002A6C
:103F4800ABD1F37F002BD0D142F20343A6F81F3048
:103F5800CBE7FFF7D3FCF37F002BB1D1002808BFD4
:103F680023200323F37786F82000A9E73369E81AAA
:103F7800002809DB237813B3164B187884F80080DF
:103F8800BDE8F041FFF724BEB37F002BBAD0144B35
:103F98001B7813B13378052BB0D02378002B7FF42E
:103FA8004EAFF37F1BB942F20463A6F81F30FFF748
:103FB800CBF9FFF77DFB0220FFF70AFEB8E7F37F96
:103FC800002B92D142F20353A6F81F308DE700BFB1
:103FD800BC070020BD070020C0070020EC07002018
:103FE800040800202DE9F04F83B09DF834801AB101
:103FF8009A421D46144603D3012003B0BDE8F08F52
:1040080001280646F8D84B1E45F6BF5083420F4696
:10401800F2D841F2BF230021E7FB030145F6C05265
:104028000023FCF7B5F81FFA80F9002E00F0818014
:10403800CDF804904FF00009DFF884B24FF0000A81
:10404800ABF81FA0FFF780F9FFF732FBFEF772FF0E
:1040580080F001008BF81D00FFF78CF9954A8BF86A
:104068001E001278002A66D0002864D0FEF762FF8E
:10407800002800F0D180DBF814208BF801600132B1
:10408800CBF81420002E79D1019BABF81830B8F189
:10409800000F0C9BCBF8047014BF03220122864F3B
:1040A8008BF80020E218CBF80C20EA183E708BF849
:1040B8000260CBF81020814ECBF8084001228BF823
:1040C8001C20204602222946ABF81A903270FFF7CE
:1040D80085FB002800F0A9804846FFF759FA002818
:1040E80078D0FEF727FF80F001028BF81D20FFF73C
:1040F80041F904468BF81E00002875D1FFF772FCC1
:10410800002800F0B6809BF81C202046002A7FF487
:1041180074AFFFF7F3FB9BF81F10024639B900286C
:1041280008BF212203218BF81F108BF820200320C1
:1041380063E7019680E79BF81F201AB941F60452FD
:10414800ABF81F20FFF700F95B4CFFF7B1FA5B49AA
:10415800002202202270CBF8182008708BF81C204F
:10416800FEF7E8FE80F001008BF81D00FFF702F96A
:104178008BF81E00042003B0BDE8F08F019BABF85C
:104188001830B8F1000F0C9B4C4ECBF8047014BFDC
:10419800042202228BF80020E218CBF80C20EA183F
:1041A800454FCBF8102001228BF81C202046022214
:1041B800294687F800A0ABF81A908BF802A0CBF834
:1041C80008403270FFF70AFB78B30198FFF7E4F96B
:1041D800002886D1FEF7AEFE80F001028BF81D2084
:1041E800FFF7C8F88BF81E00FFF7DAF99BF81F20D5
:1041F8003AB9002808BF202004228BF81F208BF82A
:104208002000FFF7A1F8FFF753FA002202213A70C5
:10421800CBF818203170A1E79BF81F20002A91D114
:1042280041F60462ABF81F208CE7FFF767FB9BF8A9
:104238001F203AB9002808BF1F2003228BF81F202F
:104248008BF82000FFF780F8FFF732FA00220221EE
:104258003A70CBF8182031708BF81C20FEF76AFEF4
:1042680080F001028BF81D20FFF784F88BF81E0000
:104278005DE7FFF743FB9BF81F203AB9002808BF0A
:10428800212003228BF81F208BF820003A7802F0B7
:10429800FF045AB9FFF758F8FFF70AFA02223C70F0
:1042A800CBF8184032708BF81C40D7E70C98FFF712
:1042B800C1FD3CE7BE070020BC070020BD07002069
:1042C800C007002010B5084C247882B04CB9074CC0
:1042D800247F34B90194049C0094FFF783FE02B054
:1042E80010BD022002B010BD04080020C007002045
:1042F800F8B5334C2378052B04D1324E337803F0CC
:10430800FF05A3B1FEF716FE80F001006077FFF706
:1043180031F8237FA0773BB12A4E337813B9637FF6
:1043280003B9F0B133785BB900252846F8BD264FAC
:104338003B780BB1237F0BBB3378002BE2D1F4E73A
:10434800FEF7F8FD80F001006077FFF713F80546E7
:10435800A0770028E9D0FFF7BBFA80F00105EDB29D
:10436800E3E7FFF7B5FA0028DCD0FFF7BDFA05460A
:104378000028D7D03378002BD4D1D6E7FFF7B4FA8A
:104388000028D9D0FFF7A4FA0028D5D0FEF7D2FD2F
:104398000028D1D0FEF7EEFF0C4B1B68B3FA83F36D
:1043A8005B098342C8D1618B208BFFF763F93378AF
:1043B8000028C2D0002BA5D13D78EDB2B5E700BFEB
:1043C800C0070020BC07002004080020EC070020DC
:1043D800F8B52D4D2B7843BBFEF7ACFD2B4C80F088
:1043E80001006077FEF7C6FF2B78A0770646E3B991
:1043F800237FF3B1FFF77CFF2B78A8B9ABB9FEF7A1
:10440800A3FFFFF755F9FEF795FD80F001006077EF
:10441800FEF7B0FF2B78A0773BB9E37F4BBB42F2A6
:104428000473A4F81F3024E0C3B1BDE8F840FFF7D7
:10443800A9BBFFF74DFA0746FEF786FF237F7BB13E
:10444800FEF778FD80F001036377FEF793FF2B7882
:10445800A077002BE9D130B12EB167B90020F8BDA3
:10446800FFF726F9ECE7E37F1BB942F60403A4F84B
:104478001F300420F8BDE37F1BB942F60313A4F8EC
:104488001F300320F8BD00BFBC070020C007002074
:1044980010B5FEF74FFD044C80F001006077FEF781
:1044A80069FFA07710BD00BFC007002010B5FEF758
:1044B80041FD0F4C80F001006077FEF75BFF0D4B6C
:1044C800A0771B780BB9002010BDFFF70DFA002864
:1044D800F9D0237F43B9A07F0028F5D0FFF7F8F97A
:1044E80080F00100C0B210BDBDE81040FFF700BF6A
:1044F800C0070020BE07002010B5FEF71BFD044CC6
:1045080080F001006077FEF735FFA077204610BDE8
:10451800C0070020F8B5EFF3108572B6BFF35F8FC0
:1045280010B11E4B1B782BB90120BFF35F8F85F3A9
:104538001088F8BD1A4E3378002BF5D1194F3B7F00
:10454800002BF1D1184B1B78002BEDD10446FEF758
:1045580011FF0028E8D0FFF7BBF90028E4D1FFF7E6
:10456800C3F90028E0D0FEF7E5FC0028DCD00F49AD
:104578000B68013312BF1A46012213460A600C4A1F
:10458800236000200B4B1070012232700A4A186019
:10459800052310603B70B870C7E700BFBE07002056
:1045A80004080020C0070020BC07002000080020E5
:1045B800F0070020EC070020E80700202DE9F04F65
:1045C800064687B014461D46EFF3108872B6BFF34F
:1045D8005F8F9F4FFBF7B4FF3B78002B00F0DD8027
:1045E8009C4B1B68B34240F0D880169B002B00F010
:1045F800D480179B002B00F0D080DFF874A29AF8C3
:1046080000308346002B40F0BD80DFF8689299F8AF
:104618000030002B40F0D380129B033B612B00F24B
:10462800CE80DDE91232934240F2C980109B139A82
:10463800ABEB0303934200F2C280129A013A9A420A
:1046480040F2BD80149B013B632B00F2B880159BA0
:1046580003F5487241F2A8639A4200F2B080FEF76F
:1046680069FC002800F0AB809AF80030002B40F07D
:10467800BF80794E179A00231370159B002B40F3C7
:10468800C780764B02931B68002B00F0DE80012365
:10469800734A12689A4211D0FEF756FEFEF76AFE78
:1046A800002800F08D806F4B029AC3F800B00023F9
:1046B8001360179A0123137000231593109A129907
:1046C8009AF800300A440392A2EB0B00002B00F08A
:1046D8008880FFF7FBF980F00103DBB20193019BAF
:1046E800002B6DD13B7803F0FF020492002B67D0BA
:1046F80099F80030002B63D1584B159A02931B6828
:104708000593002A40F0B88013B1564BC3F800B0A7
:10471800FEF71AFEFEF72EFE002851D04FF0000BD0
:10472800CDF814B0FFF75EF9002849D03A78002A8E
:1047380046D099F8001001F0FF02002940D1059BEE
:104748003383029B15991960039BB270C6E9033342
:104758007369B26001337361434BA6F81AB0C3E9B9
:104768000045012333778AF80030CB0F737081EA54
:10477800E173A3EBE1737360169B17460522327051
:1047880019600CE0384BD3E90023A21A65EB030348
:10479800012A73F10003BFF638AF2F4E0127FEF749
:1047A800C9FB80F001007077FEF7E4FDB077BFF336
:1047B8005F8F88F31088384607B0BDE8F08F264E23
:1047C80000233B70FEF7C0FDFEF772FF99F800303A
:1047D8002BB9264B02221A70012389F800300427CE
:1047E800DDE7FFF729F980F00103DBB2019376E7F3
:1047F800FFF76EF80028E2D0FFF77AFD164E002882
:10480800DED0F368ABEB0303002BFFF633AFD7E73B
:104818003FF452AF114B02931B68002B5BD14FF052
:10482800FF320F4B1B68002B3FF448AF93423FF415
:1048380045AF0C4B149A1B68ABEB03039342BFF4D0
:104848003DAF179A0123137036E70122E9E700BF4D
:104858000408002000080020C0070020EC07002002
:10486800E8070020E4070020F8070020BD07002023
:10487800F0070020BC070020159A019982EAE2732C
:10488800A3EBE27345F6BF5041F2BF22E3FB0201FE
:1048980045F6C0520023FBF77BFC83B21A46159BF2
:1048A800002B059B1ADD6BB3019B05939346049877
:1048B8001146FEF77BFE002882D0FEF75BFD00283C
:1048C8007FF47EAF159B002BD4BF4FF0FF3201223F
:1048D80017490A6026E74FF0FF33D9E613BB1046A5
:1048E8009346FEF759FE00283FF46AAFFEF742FDF3
:1048F80000287FF465AFCDF814B04FF0FF32DDF833
:1049080004B0E5E710469346FEF742FE00283FF460
:1049180057AFFEF72FFD00287FF452AF019B059398
:104928000122D5E7019BCDE904329B46BFE700BFD2
:10493800E8070020074B1B78052B01D000207047A3
:10494800054B1B780BB901207047044B1878C0B28F
:10495800704700BFC007002004080020BC070020E3
:10496800D0ED027A9FEDE37AF0EEE76AF4EE476A5B
:10497800F1EE10FA00F27782F5EEC07AF1EE10FA55
:1049880000F17182DFEDDC6AF4EEE67AF1EE10FAFE
:1049980000F36982D0ED037AF0EEE76AF4EE476A35
:1049A800F1EE10FA00F25F82DFEDD46AF4EEE67AF7
:1049B800F1EE10FA00F15782F7EE006AF4EEE67AAB
:1049C800F1EE10FA00F34F82D0ED047AF0EEE76AC8
:1049D800F4EE476AF1EE10FA00F24582DFEDC86A9C
:1049E800F4EEE67AF1EE10FA00F13D82DFEDC56AE9
:1049F800F4EEE67AF1EE10FA00F33582D0ED057A9E
:104A0800F0EEE76AF4EE476AF1EE10FA00F22B8254
:104A18009FEDBB7AF4EEC77AF1EE10FA00F123822B
:104A28009FEDB97AF4EEC77AF1EE10FA00F31B8223
:104A3800D0ED067A9FEDAF7AF0EEE76AF4EE476ABA
:104A4800F1EE10FA00F20F82F7EE006AF4EEE67A61
:104A5800F1EE10FA00F107829FEDAC6AF4EEC67A27
:104A6800F1EE10FA00F3FF81D0ED077AB0EEE76AB5
:104A7800B4EE476AF1EE10FA00F2F581F4EEE67A48
:104A8800F1EE10FA00F1EF819FEDA16AF4EEC67A1B
:104A9800F1EE10FA00F3E781D0ED087AB0EEE76A9C
:104AA800B4EE476AF1EE10FA00F2DD81F4EEE67A30
:104AB800F1EE10FA00F1D7819FED967AF4EEC77AFD
:104AC800F1EE10FA00F3CF81D0ED095A9FED897A03
:104AD800F0EEE57AF4EE477AF1EE10FA00F2C381CF
:104AE800DFED8D7AF4EEE75AF1EE10FA00F1BB81B2
:104AF800F5EEC05AF1EE10FA00F3B58190ED0A6AAE
:104B0800F0EEC67AF4EE477AF1EE10FA00F2AB81D5
:104B1800B5EEC06AF1EE10FA00F1A581DFED7F7AFB
:104B2800B4EEE76AF1EE10FA00F39D81D0ED0B7A4E
:104B3800F0EEE76AF4EE476AF1EE10FA00F29381BC
:104B48009FED777AF4EEC77AF1EE10FA00F18B81D7
:104B58009FED697AF4EEC77AF1EE10FA00F38381DB
:104B6800D0ED0C6A9FED637AB0EEE65AB4EE475A80
:104B7800F1EE10FA00F27781F5EEC06AF1EE10FA64
:104B880000F17181B7EE005AF4EEC56AF1EE10FA41
:104B980000F3698108B52DED088B90ED0DBAF0EEA4
:104BA800CB6AF4EE476AF1EE10FA00F25881B4EEDF
:104BB800C5BAF1EE10FA00F15281DFED5A6AB4EE8F
:104BC800E6BAF1EE10FA00F34A8190ED0E8AF0EEA3
:104BD800C86AF4EE476AF1EE10FA00F24081F0EE8E
:104BE800006AB4EEE68AF1EE10FA00F13881DFEDE2
:104BF800426AB4EEE68AF1EE10FA00F33081D0EDA5
:104C08000FAAF0EEEA6AF4EE476AF1EE10FA00F243
:104C18002681F4EEC5AAF1EE10FA00F120819FED8D
:104C2800427AF4EEC7AAF1EE10FA00F3188190ED7B
:104C3800109A9FED305AB0EEC97AB4EE457AF1EE8B
:104C480010FA00F20C81B0EE087AB4EEC79AF1EED1
:104C580010FA00F104819FED287AB4EEC79AF1EEBC
:104C680010FA00F3FC80D0ED116AB0EEE67AB4EEEB
:104C7800457AF1EE10FA00F2F2809FED217AF4EE17
:104C8800C76AF1EE10FA00F1EA80B3EE047AF4EEA6
:104C9800C76AF1EE10FA00F3E28090ED127AF0EEB6
:104CA800C74AF4EE454AF1EE10FA00F2D8809FEDBB
:104CB8001F5AB4EEC57AF1EE10FA00F1D0809FEDDC
:104CC8001C5AB4EEC57AF1EE10FA00F3C880D0EDA4
:104CD800138ADFED084AB0EEE85AB4EE645AF1EEF2
:104CE80010FA00F2BC809FED085AF4EEC58AF1EE86
:104CF80010FA2BE0FFFF7F7F0000C8426F12833A53
:104D0800CDCCCC3D0000484300007A440050C34756
:104D180000389C4500C0474400409CC500409C4565
:104D28000AD7233C000048420000C642CDCC4C3E86
:104D38000000204200606A4700808943FFFF7F7FB0
:104D48000000C8420060EA466F12833A00F187808B
:104D58001FED085AF4EEC58AF1EE10FA7FDC90EDEB
:104D680014AAB0EECA5AB4EE645AF1EE10FA76D824
:104D78001FED0D5AB4EEC5AAF1EE10FA6FD41FED6F
:104D88000F5AB4EEC5AAF1EE10FA68DC90ED155A88
:104D9800B0EEC54AB4EE644AF1EE10FA5FD8F7EE09
:104DA800004AB4EEE45AF1EE10FA58D45FED1E4A08
:104DB800B4EEE45AF1EE10FA51DCD0ED169A5FED3C
:104DC800214AB0EEE95AB4EE645AF1EE10FA46D828
:104DD8001FED255AF4EEC59AF1EE10FA3FD41FEDF7
:104DE800274AF4EEC49AF1EE10FA38DCD0ED17BA7F
:104DF800B0EEEB4AB4EE644AF1EE10FA2FD8F7EEB3
:104E0800004AF4EEE4BAF1EE10FA28D4F4EEC5BA8A
:104E1800F1EE10FA23DCF4EEC65AF1EE10FA1ED5C4
:104E2800F4EEC76AF1EE10FA19D5B4EEC8BAF1EE8D
:104E380010FA14D5B4EEC98AF1EE10FA0FD5F4EED3
:104E4800C9AAF1EE10FA0AD567EE887A5FED426AD0
:104E580067EEA67AF4EEE47AF1EE10FA05D90020AE
:104E6800BDEC088B08BD00207047F4EECA8AF1EE4D
:104E780010FAF4DBF4EEE98AF1EE10FAEFDBB0EEAB
:104E88004B0A02F0D1F9B4EE40BAF1EE10FAE6D1CD
:104E9800B0EE480A02F0C8F9B4EE408AF1EE10FA12
:104EA800DDD1B0EE6A0A02F0BFF9F4EE40AAF1EEE5
:104EB80010FAD4D1B0EE490A02F0B6F9B4EE409A2D
:104EC800F1EE10FACBD1B0EE680A02F0ADF9F4EECB
:104ED800408AF1EE10FAC2D1B0EE4A0A02F0A4F903
:104EE800B4EE40AAF1EE10FAB9D1B0EE690A02F0B8
:104EF8009BF9F4EE409AF1EE10FAB0D1B0EE6B0ADD
:104F080002F092F9F4EE40BAF1EE10FA0CBF01206B
:104F18000020A5E7801A61EB0301012871F1000167
:104F2800ACBF01200020704758B3D0ED007A9FED48
:104F3800167AF0EEE76AF4EE476AF1EE10FA20D836
:104F4800F5EEC07AF1EE10FA1BD4DFED106AF4EE3C
:104F5800E67AF1EE10FA14DCD0ED017AB0EEE76AE9
:104F6800B4EE476AF1EE10FA0BD8F5EEC07AF1EE1E
:104F780010FA06D4F4EEE67AF1EE10FA01DCFFF747
:104F8800EFBC0020704700BFFFFF7F7F00007A441E
:104F980010B403469D4C9E48D3F800C000212CFA5B
:104FA80001F2D2B208314240202904FB02F0F6D1C6
:104FB800D3F804C0954C00212CFA01F2D2B2083182
:104FC8004240202904FB02F0F6D1D3F808C08F4CE8
:104FD80000212CFA01F2D2B208314240202904FB08
:104FE80002F0F6D1D3F80CC0884C00212CFA01F25B
:104FF800D2B208314240202904FB02F0F6D1D3F89E
:1050080010C0824C00212CFA01F2D2B20831424081
:10501800202904FB02F0F6D1D3F814C07B4C002100
:105028002CFA01F2D2B208314240202904FB02F0E6
:10503800F6D1D3F818C0754C00212CFA01F2D2B27F
:1050480008314240202904FB02F0F6D1D3F81CC0F5
:105058006E4C00212CFA01F2D2B2083142402029CC
:1050680004FB02F0F6D1D3F820C0684C00212CFADA
:1050780001F2D2B208314240202904FB02F0F6D1F5
:10508800D3F824C0614C00212CFA01F2D2B20831C5
:105098004240202904FB02F0F6D1D3F828C05B4C2B
:1050A80000212CFA01F2D2B208314240202904FB37
:1050B80002F0F6D1D3F82CC0544C00212CFA01F29E
:1050C800D2B208314240202904FB02F0F6D1D3F8CD
:1050D80030C04E4C00212CFA01F2D2B208314240C5
:1050E800202904FB02F0F6D1D3F834C0474C002144
:1050F8002CFA01F2D2B208314240202904FB02F016
:10510800F6D1D3F838C0414C00212CFA01F2D2B2C2
:1051180008314240202904FB02F0F6D1D3F83CC004
:105128003A4C00212CFA01F2D2B20831424020292F
:1051380004FB02F0F6D1D3F840C0344C00212CFA1D
:1051480001F2D2B208314240202904FB02F0F6D124
:10515800D3F844C02D4C00212CFA01F2D2B2083108
:105168004240202904FB02F0F6D1D3F848C0274C6E
:1051780000212CFA01F2D2B208314240202904FB66
:1051880002F0F6D1D3F84CC0204C00212CFA01F2E1
:10519800D2B208314240202904FB02F0F6D1D3F8FC
:1051A80050C01A4C00212CFA01F2D2B20831424008
:1051B800202904FB02F0F6D1D3F854C0134C002187
:1051C8002CFA01F2D2B208314240202904FB02F045
:1051D800F6D1D3F858C00D4C00212CFA01F2D2B206
:1051E80008314240202904FB02F0F6D1D3F85CC014
:1051F800064900222CFA02F3DBB208324340202A87
:1052080001FB03F0F6D15DF8044B704793010001F0
:10521800C59D1C8170B52DED028B82B0CDED010AC4
:10522800054600285BD00C46002958D0D1ED007AFD
:10523800DFED4A8AB0EEE77AB4EE687AF1EE10FA5A
:105248004DD8F5EEC07AF1EE10FA48D49FED447AC5
:10525800F4EEC77AF1EE10FA41DCD1ED017AF0EE06
:10526800E76AF4EE686AF1EE10FA38D8F5EEC07A1B
:10527800F1EE10FA33D4F4EEC77AF1EE10FA2EDC20
:105288000846B0EE408AFFF76BFB064640B3F0EEE7
:10529800C87AF4EE687AF1EE10FA20D8B5EEC08A32
:1052A800F1EE10FA1BD4DFED2F7AB4EEE78AF1EEB7
:1052B80010FA14DCDDED010AB0EEE07AB4EE687A9B
:1052C800F1EE10FA0BD8F5EEC00AF1EE10FA06D995
:1052D800DFED257AF4EEE70AF1EE10FA05DD002697
:1052E800304602B0BDEC028B70BD28220021281D7B
:1052F80001F0CDFEDDED010AD4ED056A70EEC87A45
:10530800B1EE087AF0EEE77A27EE877AB7EE086A08
:1053180087EE260A67EE867A94ED047A85ED058A8B
:10532800B5EE400AF1EE10FA85ED028A85ED008AA5
:10533800C5ED060A87EE878A0BD4F1EEC00AB0EEF7
:10534800480A01F001FF012385ED070A85F8283096
:10535800C6E701F0D7FEF0EE400AF0E7FFFF7F7FD7
:1053680000007A440080A2430080894370B5044657
:105378002DED048B002800F094811546002A00F0DA
:10538800908190F82800002800F088810846B0EE47
:10539800408AF0EE608A0E46FFF7C6FD002800F04E
:1053A8007D81DFEDC47AB0EEC87AB4EE677AF1EEAB
:1053B80010FA00F27681B5EEC08AF1EE10FA00F12B
:1053C80070819FEDBD7AB4EEC78AF1EE10FA00F352
:1053D8006881B0EEE87AB4EE677AF1EE10FA00F27E
:1053E8006081D6ED0D7A9FEDB57A67EE877AF4EE97
:1053F800E87AF1EE10FA00F35481D6ED0E7A67EEF2
:10540800877AF4EEE87AF1EE10FA00F14A81D4EDE9
:10541800007A9FEDA87AF0EEE77AF4EE477AF1EE9B
:1054280010FA00F23E81D4ED027AF0EEE77AF4EE5B
:10543800477AF1EE10FA00F23481D4ED037AF0EEF7
:10544800E77AF4EE477AF1EE10FA00F22A81D4ED09
:10545800047AF0EEE77AF4EE477AF1EE10FA00F209
:105468002081D4ED087AF0EEE77AF4EE477AF1EE8F
:1054780010FA00F21681D4ED077AF0EEE77AF4EE2E
:10548800477AF1EE10FA00F20C81D4ED097AF0EEC9
:10549800E77AF4EE477AF1EE10FA00F20281D4EDE1
:1054A800057AF0EEE77AF4EE477AF1EE10FA00F2B8
:1054B800F880D4ED067AF0EEE77AF4EE477AF1EE6A
:1054C80010FA00F2EE8030220021281D01F0DFFDE5
:1054D80094ED079A94ED080AC5ED008A38EE800A23
:1054E800F0EE490A01F058FE94ED057AD4ED067AFB
:1054F80084ED080AB5EEC09AF1EE10FA77EEC77A95
:1055080040F3D38080EE096AF1EE086A67EEA66A76
:10551800F7EE005A75EEC65A66EE866AF0EE004A55
:1055280066EEA56AB0EE085AC6EE895AA6EE645A27
:1055380066EE277A67EE867AA7EE857AD6ED0C7A3C
:1055480096ED036AD4ED026A94ED039A96ED014A4A
:10555800D6ED080A78EEA77A38EE866A88EEA75A5A
:1055680038EE660AC8EE863AB0EE666AA5EE006ABC
:10557800D6ED007AC4ED015A76EE666A84ED026AC9
:1055880086EEA85A84ED007A75EE496A77EE464AA7
:10559800A3EEA69AB5EE404A84ED039A85ED017A0A
:1055A80096ED027AC5ED025AF1EE10FA14BFD4ED69
:1055B800046ADFED436A85ED036A64EEA77AB5EE07
:1055C800407AF1EE10FA14BF27EE497A9FED3C7A43
:1055D800C5ED057A37EEA68ADFED397AC5ED044ABE
:1055E80038EE078AC5ED066A38EE278A85ED077A10
:1055F800C5ED087AF1EE600AB0EE480A85ED098A31
:1056080001F0A2FDF0EE400A96ED070A01F0C4FD94
:1056180096ED067AD4ED097AB4EE408AF0EE400AA7
:10562800F0EE409AB0EE670AE7EE287AF1EE10FA4B
:1056380018BF0123A7EE680A18BF2B63F0EE678A2C
:1056480001F082FDF0EE400AB0EE680A01F0A4FD18
:10565800F4EE409AF1EE10FAF0EE407A85ED0A0A7F
:1056680003D02B6B43F002032B639FED127AB0EE4D
:10567800C88AB4EE478AF1EE10FA12D8F0EEE77A4B
:10568800F4EE477AF1EE10FA0BD8B0EEC99AB4EE00
:10569800479AF1EE10FA94BF01200020BDEC048B6C
:1056A80070BDBDEC048B002070BD37EE277ADFEDAE
:1056B800045A43E7FFFF7F7F0080A2436F12833ABB
:1056C8000000000040B52DED028B84B00646029321
:1056D800002800F0AE80002A00F0AB80019200297B
:1056E80000F0A780D1ED007A9FED567AF0EEE76AD8
:1056F800F4EE476AF1EE10FA00F29B80F5EEC07AFC
:10570800F1EE10FA00F19580DFED4F6AF4EEE67ADB
:10571800F1EE10FA00F38D80D1ED018AF0EEE87A0F
:10572800F4EE477AF1EE10FA00F28380F5EEC08AC3
:10573800F1EE10FA7DD4F4EEE68AF1EE10FA78DC98
:1057480008460391FFF70CF9002873D0019ADFEDA2
:105758003D7A92ED097AF0EEC76AF4EE676AF1EEE7
:1057680010FA66D892ED046AF0EEC66AF4EE676A3B
:10577800F1EE10FA5DD8D2ED006AF0EEE65AF4EEDA
:10578800675AF1EE10FA54D8F5EEC06AF1EE10FA45
:105798004FD903999FED2D5AD1ED0E5A65EE855AD2
:1057A800F4EEE56AF1EE10FA43DC029B05EE903A5E
:1057B800B8EEE58AD1ED075AB4EEE58AF1EE10FAB3
:1057C80037DCD1ED085AF1EE655AB4EEE58AF1EE10
:1057D80010FA2ED4F5EE408AF1EE10FA2ED038EEFB
:1057E800477AD1ED0B5AD6ED040A27EE257AA6EEB4
:1057F800287AE6EE870AB0EEE07AB4EE677AF1EE40
:1058080010FA16D891ED090A0191CDE9020201F0CA
:105818009BFC0199F0EE400A91ED0A0A01F0BCFCEC
:10582800039A86ED040A029882ED0B0A86ED098A2E
:1058380000E0002004B0BDEC028B40BDDFED040A9F
:10584800E0E700BFFFFF7F7F00007A446F12833AD2
:1058580000000000F8B504460E46EFF3108772B654
:10586800BFF35F8FFEF748FE4FF20113C4F8C4314F
:10587800324BC4F8D0615B68C4F8C831D4F8CC3175
:10588800D4ED1E7A0133C4F8CC31D4F8E031F61ADD
:10589800D4F80034C4F8EC31D4E9FD23C4E97C23FE
:1058A80022786378C4F8E461C4E97E23A378A26D02
:1058B800C4F800321423C4F85822C4F83832626E8F
:1058C800236EC4F86022C4F85C32F8EEE77AC36845
:1058D800E26DC4ED9D7A0546C4F85422C4F80C3232
:1058E80094F8250408B1287F28BB6A7FAB7FC4F8E9
:1058F8001C222A8BC4F814226A8BC4F81002C4F83C
:105908002032C4F8182283B9D5ED017A6B78F8EE05
:10591800677A6BB9D4F80434C4EDA87AC4F83C3279
:10592800BFF35F8F87F31088F8BDDFED057AF1E7E5
:10593800F1EE677AEEE7FEF7DBFCD6E7447600087F
:105948000000000070B58AB004460E46FEF718FA4B
:1059580018B1002528460AB070BDD4ED1E7AD4F8D7
:105968002432226EC4F808240121F8EEE70A84F8EC
:105978002514D4ED1C7A616EC4F890200133C4E973
:105988008B21B8EEE70AC4F8243204F59C7104F5BB
:10599800CC70FFF73FFC05460028DAD004F57F708D
:1059A800FEF7B8FD0028D4D1D4ED5E6A94ED657A8F
:1059B800D4ED5D7A0196FCEEE66ABCEEC77ACDEDD1
:1059C800026A0DF12302FCEEE77A236E0792059036
:1059D8008DED047AD4F8FC03CDED037A009309A980
:1059E800D4E916230691FEF7E9FD0028B1D194ED1C
:1059F800167BD4F8A031216E04F5826282ED007B1B
:105A0800D4F89821C4F870320D23C4F80C14C4F8E3
:105A1800782223709EE700BFE0B1F8B504460F4630
:105A28001D461646FEF7ACF9002384F8243484F8A2
:105A3800C0310023C4F8A8312378092B4FF009039B
:105A48001CBF6770A670237029462046BDE8F84041
:105A5800FFF700BF704700BF78B370B50C46164615
:105A680000214FF48662054601F011FB6CB1214616
:105A78004C2205F1080001F037FB20460F494C2263
:105A880001F0DCFAB0FA80F4640905F59C730C495E
:105A980085F895401846602201F026FB0122C5F8DA
:105AA800F423FFF775FAC5F8F803FEF769F93146EC
:105AB8002846BDE87040FFF7CDBE7047F87500086E
:105AC8006476000890B338B5154602780446E2B902
