:020000040800F2
:1000000000000220F90200082D0400083D04000849
:10001000450400084D0400085504000800000000D5
:100020000000000000000000000000005D04000867
:10003000610400080000000065040008690400086D
:100040004903000849030008490300084903000860
:100050004903000849030008490300084903000850
:100060004903000849030008490300084903000840
:100070004903000849030008490300084903000830
:100080004903000849030008490300080000000074
:10009000000000000000000000000000490300080C
:1000A0004903000849030008490300084903000800
:1000B00049030008490300084903000849030008F0
:1000C00049030008490300084903000849030008E0
:1000D00049030008490300087504000800000000F7
:1000E0004903000849030008490300080000000014
:1000F00000000000000000000000000049030008AC
:1001000000000000490300086D04000849030008CE
:1001100000000000000000000000000000000000DF
:10012000490300084903000849030008490300087F
:10013000490300080000000000000000000000006B
:10014000000000000000000000000000490300085B
:100150004903000849030008490300087104000826
:1001600049030008490300080000000000000000E7
:10017000000000000000000000000000000000007F
:10018000000000004903000800000000000000001B
:080190004903000849030008BF
:100198007BB972B90029BEBF00204FF0004106E0CC
:1001A80008BF00281CBF6FF000414FF0FF3000F07F
:1001B80057B8ADF1080C6DE904CE002909DB002B16
:1001C8001ADB05F0D7FEDDF804E0DDE9022304B010
:1001D8007047404261EB4101002B1BDB05F0CAFE72
:1001E800DDF804E0DDE9022304B0404261EB41019F
:1001F800524263EB43037047524263EB430305F0FB
:10020800B9FEDDF804E0DDE9022304B0404261EB09
:1002180041017047524263EB430305F0ABFEDDF842
:1002280004E0DDE9022304B0524263EB4303704764
:1002380053B94AB9002908BF00281CBF4FF0FF3145
:100248004FF0FF3000F00CB8ADF1080C6DE904CEAA
:1002580005F090FEDDF804E0DDE9022304B0704704
:10026800704700BF0348044B834202D0034B03B1DD
:10027800184770470C0000200C0000200000000008
:100288000548064B1B1AD90F01EBA301491002D0F0
:10029800034B03B1184770470C0000200C000020E6
:1002A8000000000010B5064C237843B9FFF7DAFFC9
:1002B800044B13B10448AFF300800123237010BD31
:1002C80010000020000000007462000808B5054B0B
:1002D8001BB105490548AFF30080BDE80840FFF7AA
:1002E800CFBF00BF000000001400002074620008A7
:1002F800DFF834D000F0D6F80C480D490D4A002339
:1003080002E0D458C4500433C4188C42F9D30A4AC2
:100318000A4C002301E013600432A242FBD305F02B
:10032800F7FD00F00FF870470000022000000020E1
:100338000C0000201C630008100000207C05002031
:10034800FEE7000030B591B003F0C6FA00F020F9DE
:10035800042302221946602000F0AEF820B901F00B
:10036800D1FB05F0EFF908B101F0CEFB00F032F94E
:100378002A4902462A4803F021FA294803F0AAFA32
:10038800054603F0C9FB0028EED04FF47A7000F060
:1003980027F903F03FFC0028E6D0284603F026FDA5
:1003A8000028E1D000F016F9012102461C4803F0AC
:1003B80017FA002DD8D02B78012BD5D115E0184885
:1003C800214603F067FA05F0DFFCF8B903F0A0FD59
:1003D800204603F0D9FD10B9204603F0DBFD104894
:1003E800214603F073FA03F0EBFD00F0F3F804463E
:1003F800684603F043FC0028E1D000F0EBF86946BA
:1004080004460246064803F007FAD8E723460A22BC
:100418000621284602F082FFD8E700BFC062000824
:100428003000002008B503F015FBBFF34F8F30BF35
:10043800FBE700BF08B5FFF7F5FF00BF08B5FFF7FA
:10044800F1FF00BF08B5FFF7EDFF00BF08B5FFF7E4
:10045800E9FF00BF704700BF704700BF704700BF8B
:1004680000F0ACB805F026B803F002BC03F04ABDB2
:1004780010B5044603F024FC00B110BD2046BDE8C9
:10048800104003F0A3BD00BF03F0C4BD10B504467F
:1004980003F044FC00B110BD2046BDE8104003F055
:1004A800E3BD00BF034AD2F8883043F47003C2F8B2
:1004B8008830704700ED00E0F0B595B01F4D204C36
:1004C800002701972E6C46F080562E642D6C05F09F
:1004D80080550195019D0297256845F440452560A2
:1004E8002468119004F4404402944FF480350124A8
:1004F800CDE9084508A802244FF48005CDE90E454A
:10050800CDE91223029C109100F006FA10B10120E7
:1005180015B0F0BD03460F240220CDE903404FF487
:100528008052032103A8CDE90532079300F00EFCA1
:10053800C01B18BF012015B0F0BD00BF0038024035
:1005480000700040704700BF38B50E4A0E4B127855
:10055800054618684FF47A73B3FBF2F3B0FBF3F077
:1005680000F0BEF808B90F2D01D9012038BD0446A6
:10057800024629464FF0FF3000F056F8034B20465C
:100588001D6038BD04000020000000200800002085
:1005980008B5094B1A6842F400721A601A6842F4E6
:1005A80080621A60032000F02DF80F20FFF7CCFFBF
:1005B800FFF7C8FF002008BD003C0240034A044B77
:1005C80011681B780B441360704700BFA00100201E
:1005D80004000020014B1868704700BFA0010020EC
:1005E80038B50446FFF7F6FF631C054602D0044BF6
:1005F8001B781C44FFF7EEFF401BA042FAD338BD1E
:10060800040000200749CA6803024FF6FF0003F4FC
:10061800E0630240134343F0BF6343F40033CB600D
:10062800704700BF00ED00E01B4BDB68C3F30223FB
:1006380000B5C3F1070EBEF1040F03F1040C28BF87
:100648004FF0040EBCF1060F1CD9A3F1030C4FF0B8
:10065800FF3303FA0CF322EA03024FF0FF3303FAE5
:100668000EF321EA030303FA0CF313431B010028DA
:10067800DBB20ADB00F1604000F5614080F800332E
:100688005DF804FB00229446E7E7044A00F00F00F7
:10069800024413765DF804FB00ED00E0FCEC00E09A
:1006A800002807DB044A4109012300F01F008340AA
:1006B80042F82130704700BF00E100E000280CDB61
:1006C8004309064900F01F0020330122824041F807
:1006D8002320BFF34F8FBFF36F8F704700E100E017
:1006E8000138B0F1807F01D30120704710B44FF07A
:1006F800E023074C58614FF0F00C84F823C0002227
:10070800072110469A615DF8044B1961704700BFD4
:1007180000ED00E0002808DB4309044900F01F0051
:1007280001226033824041F82320704700E100E055
:100738002DE9F04F00230C68DFF8C8A185B04FF011
:10074800010B894603E00133102B00F087800BFA78
:1007580003F202EA0408A243F5D1D9F8041001F023
:10076800030C5A0003250CF1FF379540012F6FEA5F
:10077800050576D9BCF1030F08D0C76807EA050E4E
:10078800D9F80870974047EA0E07C76007680CFA5F
:1007980002F23D402A4311F4403F0260D3D00022C8
:1007A8000392DAF8442042F48042CAF84420DAF886
:1007B800442002F480420392039A23F0030202F1D8
:1007C800804203F003070F2602F59C32BF0006FAA9
:1007D80007FC494E9568B04225EA0C0515D006F588
:1007E8008066B04275D0454EB04278D0DFF818C167
:1007F80060457AD0DFF814C160450CBF4FF0040C97
:100808004FF0070C0CFA07F73D4395603C4A926895
:10081800CE026FEA08053A4E54BF2A4048EA02025F
:10082800B260F268364E8F0254BF2A4048EA02028C
:10083800F26072688E03324E54BF2A4048EA0202C0
:1008480072603268C90303F101032D4954BF2A407D
:1008580048EA0202102B0A607FF479AF05B0BDE8C0
:10086800F08F876807EA050ED9F80C70974047EAB9
:100878000E078760476827EA080EC1F300179F40F4
:1008880047EA0E074760C76807EA050ED9F80870F7
:10089800974047EA0E07BCF1020FC7607FF476AFB6
:1008A800DF0800EB870700973E6AD9F810700196B9
:1008B80003F0070E4FEA8E0E0F2607FA0EF706FA18
:1008C8000EFE019E26EA0E0E009E47EA0E073762CC
:1008D8005CE74FF0010C0CFA07F73D4395E74FF042
:1008E800020C0CFA07F73D438FE74FF0030C0CFAA4
:1008F80007F73D4389E700BF0000024000080240B7
:10090800003C014000380240000C02400010024048
:1009180002B9090481617047002800F06A812DE955
:10092800F0410368DD0782B004462FD59F498A68E5
:1009380002F00C02042A00F0EF808A6802F00C0230
:10094800082A00F0E5806368B3F5803F00F0EE8088
:10095800B3F5A02F00F07981944D2A6822F48032F3
:100968002A602A6822F480222A60002B40F0E38063
:10097800FFF730FE064605E0FFF72CFE801B6428D3
:1009880000F203812B689F03F6D423689D0728D5BE
:10099800864A916811F00C0F00F09280916801F07E
:1009A8000C01082900F08880E368002B00F0108112
:1009B8007F4B7E4E01221A60FFF70CFE054605E0CC
:1009C800FFF708FE401B022800F2DF8033689F070C
:1009D800F6D53368226923F0F80343EAC20333608B
:1009E80023681A0753D45D0730D5704A136C13F087
:1009F800805300F0818000256E4E3368D80540F1A1
:100A0800B480A368012B00F0C480052B00F02D8171
:100A1800664E326F22F001023267326F22F0040212
:100A28003267002B40F0BA80FFF7D4FD41F28838D6
:100A3800074605E0FFF7CEFDC01B404500F2A58044
:100A4800336F9B07F6D4002D40F00981A369D3B119
:100A5800564DAA6802F00C02082A00F0CC80022B3E
:100A6800534B4FF000021A6600F00981FFF7B2FD00
:100A7800044605E0FFF7AEFD001B022800F2858062
:100A88002B689B01F6D4002002B0BDE8F0816369B1
:100A98000BB3474B454E0122C3F8802EFFF79AFD52
:100AA800054604E0FFF796FD401B02286DD8736FDA
:100AB8009B07F7D5236896E7526851023FF574AF54
:100AC8003A4A1268920744D5E268012A41D00120C7
:100AD80002B0BDE8F081364A344EC2F8803EFFF7D6
:100AE80079FD054604E0FFF775FD401B02284CD848
:100AF800736F9F07F7D4DDE70193136C43F08053BE
:100B08001364136C03F080530193019B012573E771
:100B18004A6851027FF517AF244A126892037FF59D
:100B280035AF6268002A7FF431AFD0E71F4A1368F7
:100B380043F480331360FFF74DFD1C4E054604E077
:100B4800FFF748FD401B64281FD833689B03F7D57F
:100B58001BE7164920690A6822F0F80242EAC00237
:100B68000A601A077FF53FAF91E7336843F4807353
:100B78003360FFF72FFD07463368D9053FF541AFCE
:100B8800FFF728FDC01B0228F6D9032002B0BDE8F4
:100B9800F081064A136F43F001031367FFF71AFD4C
:100BA800024F064641F288380BE000BF0038024089
:100BB8000000474200700040FFF70CFD801B4045D5
:100BC800E3D83B6F9A07F7D5002D3FF43FAF46E0D7
:100BD800424A434E1360FFF7FDFC054604E0FFF769
:100BE800F9FC401B0228D0D833689907F7D423684A
:100BF800F7E601207047012B3FF469AF6B68E269A3
:100C080003F4800191427FF462AF226A03F03F014E
:100C180091427FF45CAF616A47F6C0721A40B2EB4A
:100C2800811F7FF454AFA26A520803F44031013A9D
:100C3800B1EB024F7FF44BAFE26A03F07063B3EBA2
:100C4800026F14BF012000201EE7254B1A6842F4EA
:100C580080221A601A6842F480321A606BE7204AD0
:100C6800136C23F080531364F0E61D4B1A6F42F0A7
:100C780004021A671A6F42F001021A678EE7FFF73B
:100C8800A9FC064605E0FFF7A5FC801B02283FF6F5
:100C98007CAF2B689901F6D4D4E90731626A0B431B
:100CA80043EA8213D4E90A2052080C4943EA006354
:100CB800013A43EA024301226B600A66FFF78AFCA5
:100CC800074D044605E0FFF785FC001B02283FF6A8
:100CD8005CAF2B689A01F6D5D5E600BF0000474205
:100CE80000380240164908B58B6803F00C03042B42
:100CF8001BD0082B01D0134808BD4A684B684968C7
:100D080013F4800302F03F0211D10E48C1F3881199
:100D1800A1FB0001FFF78CFA094B5B68C3F30143A1
:100D280001335B00B0FBF3F008BD074808BD064877
:100D3800C1F388110023A1FB0001FFF779FAEBE763
:100D4800003802400024F40000127A00002800F065
:100D58008780484A136803F007038B422DE9F04166
:100D68000D46044609D2CBB21370136803F007038B
:100D78008B4202D00120BDE8F0812368980714D582
:100D8800590704D53C498A6842F4E0528A601A0738
:100D980004D539498A6842F460428A603649A068B5
:100DA8008A6822F0F00202438A60DF0721D5626870
:100DB800012A57D0931E012B2F4B1B684DD9990739
:100DC800D8D52D4EB36823F003031343B360FFF760
:100DD80001FC41F28838074604E0FFF7FBFBC01B23
:100DE800404544D8B368626803F00C03B3EB820F44
:100DF800F3D1204A136803F00703AB4206D9EBB2DC
:100E08001370136803F00703AB42B3D123685A0782
:100E180006D51949E0688A6822F4E05202438A60DC
:100E28001B0707D5144A2169936823F4604343EAF2
:100E3800C1039360FFF756FF0F4A104C92681049A0
:100E4800C2F303120346A25C0E48D34000680B604D
:100E5800FFF77AFB0020BDE8F0819801B1D489E75B
:100E680001207047044B1B689E03AAD482E7032025
:100E780081E700BF003C024000380240946200084D
:100E88000000002008000020044B05499B68054A23
:100E98000868C3F38223D35CD84070470038024007
:100EA800000000208C620008044B05499B68054A35
:100EB8000868C3F34233D35CD84070470038024017
:100EC800000000208C620008026802F10C0353E85D
:100ED800003F23F4907302F10C0C4CE80031002918
:100EE800F3D102F1140353E8003F23F0010302F1A8
:100EF800140C4CE800310029F3D1036B012B05D009
:100F08002022002380F842200363704702F10C037B
:100F180053E8003F23F0100302F10C0C4CE80031B9
:100F28000029F3D1ECE700BF0268116938B504461F
:100F3800C068A36821F4405101432069116103434B
:100F48006069D1680343E06921F4164121F00C017E
:100F580003430B43D3605369A069234923F44073C7
:100F680003438A42536105D0204B9A4202D0FFF7CF
:100F78008BFF01E0FFF798FFE2691921B2F5004FF6
:100F8800D4E90053A0FB010113D09A009B0FFFF78F
:100F98004FF9174AA2FB00135B09642101FB1300F8
:100FA80000013230A2FB00201B0103EB5013AB60A1
:100FB80038BDDA184FF000035B41FFF739F90C4AE6
:100FC800A2FB00314909642303FB1103DB00323320
:100FD800A2FB0323C3F342121B0902EB011203F421
:100FE800F8731344AB6038BD001001400014014091
:100FF8001F85EB51704700BF70B310B590F84130B2
:10100800044603F0FF0213B32268242384F8413016
:10101800D36823F400532046D360FFF785FF236885
:10102800196921F490411961596921F02A0159611E
:10103800D96800224FF0200C41F40051D960626455
:1010480084F841C084F842C01046626310BD80F83D
:101058004020FFF7CFFFD7E701207047704700BF58
:10106800B8B10268242310B580F84130D36823F45E
:1010780000530446D360FFF7F1FF0023636484F84C
:10108800403084F8413084F8423018462363636363
:1010980010BD0120704700BF90F84130202B15D1BA
:1010A80001B10AB90120704710B400230468016235
:1010B8002121C284436480F84110E168828441F0B0
:1010C8008001E16018465DF8044B704702207047C4
:1010D80090F84230202B03D101B11AB90120704792
:1010E8000220704710B4046981620023222103633F
:1010F8008285C2854364036880F842101CB1DA68AF
:1011080042F48072DA605A695DF8044B42F00102D9
:101118005A61DA6842F020020020DA60704700BFA6
:10112800036810B5044603F10C0252E8002F22F4BC
:10113800907203F10C0040E800210029F3D103F17B
:10114800140252E8002F22F0010203F1140040E8D3
:1011580000210029F3D1226B012A28D05A695206AE
:1011680007D400232022E38584F84220184623630D
:1011780010BD03F1140252E8002F22F0400203F1DF
:10118800140040E800210029F3D1E06B0028E8D0E2
:101198000023036500F058FC0028E2D0E06B00F063
:1011A800AFFC2028DDD110236364032010BD03F1B8
:1011B8000C0252E8002F22F0100203F10C0040E864
:1011C80000210029F3D1C9E708B5806B0023C38546
:1011D800FFF75CF908BD00BF704700BF90F84230C8
:1011E800222B49D183680168826AB3F5805F44D0B5
:1011F800002B4BD10369002B48D14B68DBB213702D
:10120800826A0132C38D8262013B9BB2C385002B87
:1012180032D100B50268D16821F0200183B0D160D5
:10122800D16821F48071D16051694FF0200C21F010
:101238000101516180F842C04363016B012929D142
:10124800036302F10C0353E8003F23F0100302F19B
:101258000C0C4CE800310029F3D11368DB0605D5E6
:1012680001911368019353680193019B818DFFF7E6
:10127800B3FF03B05DF804FB70470369002BBCD1D2
:101288004B68C3F3080322F8023BBBE74B6803F043
:101298007F03B4E7FFF7ECF803B05DF804FB00BF89
:1012A80070B505682B68EE68696913F00F0F82B096
:1012B80004462A4613D19D0602D5B10600F1E08006
:1012C800216B01293DD0180602D5310600F1AE8008
:1012D8005B0602D5750600F1C88002B070BD11F03A
:1012E800010140F08D8016F4907FE9D0DA070BD524
:1012F800F00540F15381626C580742F001026264C4
:1013080040F1CD8000297FD1980740F1CA801907A4
:1013180000F10381626C002ADFD09A0602D5B30679
:1013280000F140816B69626C03F0400302F008022F
:1013380053EA0206204640F0C080FFF7A7F866642B
:10134800CBE7D806BFD5F106BDD5002301931368B6
:10135800019353680193019B5169A38D4D0640F198
:10136800E380E06B0168496889B2002900F01F81B9
:10137800994280F01C81E185C169B1F5807F36D042
:1013880002F10C0353E8003F23F4807302F10C05CB
:1013980045E800310029F3D102F1140353E8003F76
:1013A80023F0010302F1140545E800310029F3D1C7
:1013B80002F1140353E8003F23F0400302F114053F
:1013C80045E800310029F3D1202384F84230216315
:1013D80002F10C0353E8003F23F0100302F10C055F
:1013E80045E800310029F3D100F02EFBA38D02223D
:1013F8006263E18D591A204689B2FFF7EDFE6CE76A
:10140800DA0747D4580740D5626C990742F00202C0
:1014180062643CD5626C42F0040262641A077FF58C
:1014280079AF626C42F00802626473E794F8413065
:10143800212B7FF452AFA168236AB1F5805F00F0D9
:10144800BF80591C21621B785360E38C013B9BB21F
:10145800E384002B7FF441AFD36823F08003D3608B
:10146800D36843F04003D36037E7D368202123F0E3
:101478004003D360204684F84110FFF705F82CE7B5
:1014880002B0BDE87040FFF7A9BE9907C2D41A0799
:10149800C7D43FE7F0053FF52EAF5A07B4D49807F5
:1014A8003ED418077FF536AF06F020020A43B8D1BC
:1014B800636C002B7FF436AF0FE7FFF705FD6B6910
:1014C8005E0626D505F1140353E8003F23F04003D8
:1014D80005F1140141E8003262B1226802F11403F7
:1014E80053E8003F23F0400302F1140040E80031C4
:1014F8000029F3D1E06B60B1374B036500F0EEFAD9
:1015080000283FF4EAAEE06B036D02B0BDE870401E
:1015180018472046FEF7BAFFDFE6B20681D4C7E7D0
:1015280000293FF4F4AE75E7E08DE18D89B280B211
:1015380000293FF4D2AE1B1A99B200293FF4CDAE70
:1015480002F10C0353E8003F23F4907302F10C05F9
:1015580045E800300028F3D102F1140353E8003FB6
:1015680023F0010302F1140545E800300028F3D107
:10157800202384F84230206302F10C0353E8003F33
:1015880023F0100302F10C0545E800300028F3D1E0
:10159800022363632046FFF71FFE9EE65A073FF5C6
:1015A800B3AE7CE72046FFF719FE2568BAE69942F4
:1015B8007FF493AEC369B3F5807F7FF48EAEE7E71F
:1015C800216900297FF43DAF33F8021BC1F30801FC
:1015D8005160236239E700BFD1110008036A026A2B
:1015E80022F0010270B40262446882690D6822F038
:1015F80073022A438D6823F002032B430B4DA84244
:1016080006D049684460826170BC416303627047D8
:10161800CD6823F008032B43D1E9055624F4407420
:10162800354323F004032C43EBE700BF00000140DF
:10163800036A026A22F4807270B402624468C26962
:101648000D6822F073022A438D6823F4007343EA7D
:1016580005230C4DA84206D049684460C26170BC9D
:10166800C16303627047CD6823F4006343EA05232E
:10167800D1E9055624F44054354323F4806344EA01
:101688000514E9E700000140036A026A22F4805267
:1016980030B402624468C2690D6822F4E64242EA44
:1016A80005228D6823F4005343EA0533074DA84209
:1016B80006D049684460C26130BC01640362704767
:1016C8004D6924F4804444EA8514F2E7000001409F
:1016D80091BB90F83E30012B3AD1022380F83E307E
:1016E800036801F01F01186A01228A4020EA0200FB
:1016F8001862186A224902438B421A6232D0B3F147
:10170800804F0ED01F4A93420BD002F5806293425D
:1017180007D002F58062934203D002F59A329342D1
:1017280004D19A6802F00702062A03D01A6842F028
:1017380001021A600020704704290BD0082916D02E
:1017480090F84130012B03D1022380F84130C7E7DC
:101758000120704790F83F30012BF9D1022380F81F
:101768003F30BDE75A6C42F400425A64D9E790F81A
:101778004030012BECD1022380F84030B0E700BFA5
:101788000000014000040040036810B41A6A01F028
:101798001F044FF0010C0CFA04FC22EA0C021A6236
:1017A8001E4A1C6A1C62934222D01C6A41F2111222
:1017B800144204D11C6A40F24442144213D001235B
:1017C80029B980F83E305DF8044B002070470429A1
:1017D8001DD008290CBF80F8403080F841305DF8F2
:1017E800044B002070471A6822F001021A60E6E7ED
:1017F8001C6A41F211121442D7D11C6A40F24442C9
:101808001442D2D15A6C22F400425A64CDE780F8CF
:101818003F305DF8044B0020704700BF00000140D6
:10182800704700BFFFF754BFFFF7AEBF70B4264E36
:101838004A6903688D680C68B04235D0B0F1804FB2
:101848001CD0A6F57C46B04218D006F58066B0429A
:1018580014D006F58066B04210D01C4EB04211D0AC
:1018680006F58066B0420DD006F58066B04209D014
:1018780023F08003C5621A4384620CE04E6823F0AB
:1018880070033343C968C56223F440730B4323F0E4
:1018980080031A4384620368012143F00403036050
:1018A80070BC4161026070474E6823F07003334397
:1018B800CE68C56223F440738462334309690163C7
:1018C80023F080031A43E6E700000140004001408E
:1018D80050B310B590F83D30044603F0FF02F3B161
:1018E8002146022384F83D3051F8040BFFF79EFF90
:1018F800012384F8463084F83E3084F83F3084F879
:10190800403084F8413084F8423084F8433084F819
:10191800443084F8453084F83D30002010BD80F80C
:101928003C20FFF77DFFDBE701207047036A026A6E
:1019380022F0100270B40262446882690D6822F4D1
:10194800E64242EA05228D6823F0200343EA0513A4
:101958000C4DA84206D049684460826170BC81631E
:1019680003627047CD6823F0800343EA0513D1E989
:10197800055624F44064354323F0400344EA8504C3
:10198800E9E700BF0000014038B590F83C30012B72
:1019980057D0012304460D4680F83C300C2A08D85D
:1019A800DFE802F01E0707072E0707073F070707AC
:1019B8000C000120002384F83C3038BD0068FFF794
:1019C80063FEC3692A6943F40063C361C36923F4EE
:1019D8008063C361C36943EA0223C3610020E9E766
:1019E8000068FFF7FBFD83692A6943F008038361F8
:1019F800836923F004038361836913438361EDE7FB
:101A08000068FFF793FF83692A6943F400638361E1
:101A1800836923F480638361836943EA02238361D2
:101A2800DCE70068FFF704FEC3692A6943F008038E
:101A3800C361C36923F00403C361C3691343C3616A
:101A4800CCE7022038BD00BF70B50446866DFEF7AE
:101A5800C1FD94F83530022B06D08023636500233E
:101A680084F83430012070BD23681A6822F0160209
:101A78001A605A6922F080025A61226C054642B304
:101A88001A6822F008021A601A6822F001021A6025
:101A980005E0FEF79FFD431B052B10D823681B6844
:101AA80013F00103F5D1E16D3F228A401846012168
:101AB8000023B26084F8351084F8343070BD0323F5
:101AC80020226265184684F83530002384F83430C3
:101AD80070BDA26C002AD3D1D6E700BF90F835308C
:101AE800022B03D080234365012070470268052339
:101AF80080F83530136823F0010300201360704725
:101B0800406D704701F048BF08B501F0E3FF30BFF2
:101B1800FDE700BF11B10860012070470846704713
:101B280038B5026F836FD9179B1A61EBE2710269AE
:101B38004FEAE27E9A427EEB010436DA406910EB06
:101B4800000C4FEAE07444EB04059C4575EB01007A
:101B58000DDAB3EB0C0361EB0501642B71F10001A5
:101B680025DA03EB8303980000F57A7038BD9B1AD9
:101B780061EB0E0188009C00E41840EA937041EB89
:101B880000000301210143EA14730C1B63EB0003FB
:101B9800D900BCEB020265EB0E03E00041EA547188
:101BA800FEF7F6FA00F5C87038BD002038BD40F6DB
:101BB800B83038BD38B530220446002100F59C7095
:101BC80004F09DF9002504F1D00001F06DFC00211E
:101BD8002422C4F8EC5004F1F40004F090F9002336
:101BE8000020002184F82831C4E9480184F819311B
:101BF800C4F81C31C4F82C51C4F8303138BD00BFCA
:101C080070B5194CD0F84431A367D0F84831E36770
:101C1800D0F85831C4F8802084F88410C4F888308B
:101C2800D0E954230E46C4E9262300210023D0F826
:101C38005C21C4F88C2005460020C4F89030C4E923
:101C48002801C4F8A83084F8AC3084F8AD3004F02A
:101C5800FBF8022E84F8AE0002D1E36D0133E36590
:101C6800002385F8603170BDA801002070B51546C5
:101C780004460E4604F01CF9164B1A7E012A21D19F
:101C88001E765D6122789A7694ED167B226FDA6172
:101C980094F87420216E196283ED0A7B42B194F89E
:101CA80075202AB1A2696D1A95428CBF00220122C3
:101CB80083F8302058B1827F2AB983F83220007F18
:101CC80083F8330070BD012283F83220F7E783F8E8
:101CD8003200F5E7A80100202DE9F0472DED028B31
:101CE80004460E4690461F4604F0E2F810B1837889
:101CF800022B49D0062E5BD0052E4FF0070A4BD099
:101D080003F08EFD94F8603123B13A4651462046DF
:101D1800FFF776FF9FED2A8B0025294684ED208B5F
:101D28003022C4F88850A580A4F89C5004F59C7013
:101D380004F0E5F84FF0000904F1D00001F0B4FB1D
:101D48002946C4F8EC90242204F1F40004F0D7F8F2
:101D58000923667084F8285184F80280237084ED82
:101D6800488BBDEC028BC4F82C9184F81951C4F847
:101D78001C51C4F83051C4F88C703A46514620467C
:101D8800BDE8F047FFF772BF052E04D0062E4FF0CE
:101D9800050AB5D10DE0B246B8F1060FB0D10A4B2D
:101DA800D4F890209F64DA64012283F85020A7E7D2
:101DB800B246B8F1000F08BF4FF00A08A0E700BF0D
:101DC8000000000000000000A801002070B50546D2
:101DD8000E4603F025FD18B9044604F035F838B965
:101DE800284633460A220621FFF776FF002070BDF9
:101DF800C5F8884070BD00BF2DE9F04141BB0446DD
:101E080090461F460D4604F053F80646B8B103F055
:101E180083FFA0B17369C4F88830C4E928377368B0
:101E2800C4F8A830B368C4F8AC30737884F800807C
:101E38002846A4F8B030C4F88C70BDE8F0813B4661
:101E48000A2206212046FFF747FF0720BDE8F08158
:101E580009220621FFF740FFF7E700BF70B50446E7
:101E68000E4603F0DDFC18B9054603F0EDFF38B95E
:101E7800204633460A220621FFF72EFF002070BDB8
:101E880005232370D4E91623C4E92023E3692571C7
:101E98003344C4F88850C4F88C60C4F8983070BDD6
:101EA8002DE9F04105460E4604F002F850B34269A8
:101EB800D5F888309A4204461AD1077FF7B903F05B
:101EC800C3FFF8B1A378032B1CD02A78A2F10A012A
:101ED80001291FD9042A37D0012B27D0022B11D171
:101EE800334628460722BDE8F0410521FFF7F4BE36
:101EF8002B780A3B012B05D9BDE8F08103F00CFFD4
:101F08000028F9D1334628460A22BDE8F0410621C7
:101F1800FFF7E2BE012B23D0022BF3D1334628462C
:101F28000C22BDE8F0410521FFF7D6BE95F86031D7
:101F380023B1D5F8442163699A4224D03146284612
:101F4800BDE8F041FFF78ABF012B0FD0022BD9D192
:101F5800334628460622BDE8F0410521FFF7BCBEFE
:101F6800C5F888702B70C5F88C60C5E731462846DF
:101F7800FFF774FF0028BFD0324628460221BDE88B
:101F8800F041FFF773BE6378002BD7D132460221A8
:101F98002846FFF735FE0123C5F84C6185F8613105
:101FA800CCE700BF70B504460D46EFF3108672B655
:101FB800084603F079FC40B12B460A220621204648
:101FC800FFF78AFE86F3108870BD23780B2BF9D8AB
:101FD8004FF44562DA40D20704D529462046FFF778
:101FE8005FFF2378042B12D0052BEBD10E4BD4F8CE
:101FF80090105963D4E916010122A4F89C20226E9E
:10200800C3E90E011A645D6486F3108870BD294621
:102018002046FFF723FF08B92378E5E72A4603217E
:102028002046FFF723FEF7E7A8010020034690F8B3
:102038009D0020B11A78043A012A01D9002070477E
:1020480093F874000028FAD093F875000028F6D0A9
:10205800186E9A69091A9142F0D8196FDA68914294
:10206800ECDBD3F8902040F6B833801A98428CBF46
:1020780000200120704700BFF0B52DED028B01292B
:1020880087B00F460446154667D094F81831002BE0
:1020980051D094ED448A9FED7A7AF0EEC87AF4EE46
:1020A800477AF1EE10FA3BD89FED767AF4EEC77ACC
:1020B800F1EE10FA34DCB7EE007AF4EEC77AF1EEFE
:1020C80010FA51D4B6EE007A77EE877A0DF116033E
:1020D800FCEEE77A05AA17EE906A3846314603F017
:1020E80009FBE8B994F82831033B012B44D9D4E91A
:1020F8001023B5EEC08A002F49D1F1EE10FA5DDC4D
:1021080031460095012003F0FDFD2B4601460622CD
:102118002046FFF771FE48B97642C4F8306131E0D5
:102128002B460B2207212046FFF7D6FD072007B0D4
:10213800BDEC028BF0BDD4E910230095E16B384665
:1021480003F0E0FD2B4601460622204607B0BDEC11
:10215800028BBDE8F040FFF74FBE3022002100F5AA
:102168009C7003F0CCFE90E794F8283123B905233E
:1021780084F8283184ED4B8A29462046FFF76EFE05
:102188000028D3D0002007B0BDEC028BF0BDF1EEE3
:1021980010FA3146D4BF01200020009503F0B2FDAB
:1021A8002B46014606222046FFF726FE0028BDD111
:1021B800B5EEC08AF1EE10FAAEDDAEE7266FA06F7D
:1021C8006169C717801B67EBE677CE17814276EB0C
:1021D800070C48DA491876418142BE41D4F840C11B
:1021E80047DABCF1030F41D04FF0030C0026C4E9D5
:1021F8004E66C4F840C12046CDE90223FFF790FCA3
:102208000095E16B06448E4228BF0E46DDE90223A5
:102218003146002003F076FD2B4601460622204673
:10222800FFF7EAFD002881D1236F174FD4F88820E3
:1022380094ED167BC4E956330123A4F86031BB6DD5
:10224800C4E95126013384ED547B2046BB653A66C8
:102258007E66FFF765FCD4F83831B866FB66236CF8
:102268003B677D6759E74FF0010CBFE7D4F8386149
:10227800BFE7BCF1020FF9D04FF0020CB6E700BF80
:10228800FFFF7F7F0080BB46A80100202DE9F047B3
:10229800D0F890301546D31A40F6B732934282B040
:1022A80057D80446D1B1D0E90C98836B61714FF0CF
:1022B800010A00954246494684F89DA0002003F093
:1022C80021FD2B46014604222046FFF795FD0646D0
:1022D80040B10726304602B0BDE8F087D0E909983A
:1022E800C36AE3E7204F94F874303A6852443A607E
:1022F8000421D4F888207A60C7F80890C7F80C80C1
:102308003D61786187F818A07976B976D4E9160125
:10231800226FFA61226E3A62C7E90A0143B194F862
:1023280075302BB1A369AD1A9D428CBF00230123E0
:1023380087F8303003F0BCFD817F87F83110002228
:102348000123304687F8322087F8333002B0BDE8E1
:10235800F0872B4606220521FFF7BEFC04263046EF
:1023680002B0BDE8F08700BFA801002050B3F0B567
:102378002DED028B0D4693B0F9B10378012B04467D
:102388000FD190F895303BB103F092FD20B1037F57
:1023980013B903F067FDB8B9042013B0BDEC028B84
:1023A800F0BD022013B0BDEC028BF0BDF0EEC77A91
:1023B800F4EE487AF1EE10FA53D9012013B0BDECCF
:1023C800028BF0BD0120704703F03EFD0028E3D0EA
:1023D800294609A801F03AF80028EED0D5ED027A8E
:1023E800F5EEC07AF1EE10FAE7DC95ED037AB5EE7A
:1023F800C07AF1EE10FAE0D49FED5C8AF0EEE76A5D
:10240800F4EE486AF1EE10FAD7D8DFED596AF4EE27
:10241800E67AF1EE10FAD0D4FFEE006AF4EEE67A2E
:10242800F1EE10FAC2DCB6EE007A77EE677A02AB0C
:10243800FCEEE77A0DF1060217EE901A012003F080
:1024480059F90028B9D195ED037AF0EEC77AF4EE80
:10245800487AF1EE10FAB0D8B5EEC07AF1EE10FA7B
:10246800ABD4DFED447AB4EEE77AF1EE10FAA4DCEF
:10247800F7EE007AB4EEE77AF1EE10FA74D4F6EEDD
:10248800007A37EE277A02AEFCEEC77A334617EEAB
:10249800901A0DF10602002003F02CF900288CD1C7
:1024A800AE46BEE80F00B446ACE80F00D5ED017AA1
:1024B8009FED317A9EE80700F4EE477AF1EE10FAC4
:1024C8008CE807007FF479AFD5ED047AF5EE407A11
:1024D800F1EE10FA7FF471AFD5ED057AF5EE407A9A
:1024E800F1EE10FA7FF469AFD4ED0F7AD5ED036AF7
:1024F800F8EE677AF4EEE76AF1EE10FA3FF75DAFAF
:10250800DFED1E7AD5ED026AF4EEE76AF1EE10FA15
:102518003FF553AF94F84C300BB98DED047A314642
:1025280009A800F093FF00283FF447AF0FCE04F14D
:10253800B40EAEE80F0096E807000DF1240C8EE803
:102548000700BCE80F0004F1D0050FC5BCE80F0078
:102558000FC50127DCF800302B60204684F818717D
:10256800FFF728FB00201DE702AE99E7FFFF7F7FFA
:102578000080BBC60080BB4600000000000048C4C5
:10258800034668B190F8740050B193F8750038B1FB
:102598001A6E9869891A81428CBF00200120704701
:1025A800704700BF002800F0AD802DE9F04F87B0DC
:1025B800044617460D4603F033F94FF4B472064645
:1025C8000021204603F09BFC0223E370C4F88C70C2
:1025D800002D00F08E8095F84530002B00F08380A8
:1025E800AA6CB2F5A37F7ED22B68E9685F184FEA20
:1025F800E17040EBE370974270F1000073DAB3F5D5
:102608008A7F70DAE86942F2107840456BD82F6A01
:102618000197142F67D8D5F824C0BCF1320F62D8BF
:10262800D5F828E0C6455ED8D5F82C80B8F10A0F51
:1026380059D8D5F83090B9F1280F54D8D5F834A026
:1026480041F2883BDA454ED8D5F838B0BBF10A0FCD
:1026580049D8EF6B0297282F45D82F6C0397B7F509
:10266800FA5F40D82F690497C82F3CD86F69312F7B
:1026780039D9AF690597FA2F35D8002B43DD6F6834
:10268800002F40DBBB423EDDAF68002F3BDBB94289
:1026980039DDC1F1FF4101F5FF0101F5FF417F314E
:1026A8008B4230DC049B73B3059B63B358B3019B27
:1026B8004BB3634527D2BEF1000F24D0B8F1000F09
:1026C80021D0C8451FD2BAF1000F1CD0BBF1000FB2
:1026D80019D0029FBB4516D2039FB7B1131E18BF6E
:1026E800012384F895304C22294604F1080003F0B0
:1026F80033FC26B140F209620A232280A37007B096
:10270800BDE8F08F70470023EBE7039BE9E700BFC4
:1027180040B370B503780446DBB9154629B190F883
:10272800953013B103F09EFB38B901222B462046A1
:102738001146BDE87040FFF7CFBA03F071F80646BE
:1027480040B903F081FB28B1C4E922650123238045
:10275800A67070BD2B4620460A22BDE870400621AF
:10276800FFF7BABA704700BF2DE9F04182B0F8B15F
:102778000E46E9B10D78012D1746044660D0072DA5
:102788001BD0A5F10803DBB2012B40F2B780002D66
:1027980053D103F08DFB2378012B06461AD0092B61
:1027A80014BF03250225E570284602B0BDE8F08174
:1027B8000125284602B0BDE8F0810578012D00F01A
:1027C800E480092D00F0DE80002D0CBF02250325D2
:1027D800E570E9E794F8943063B394F895304BB317
:1027E80094F8743033B394F875301BB3236EA26930
:1027F800FB1A93421ED803F035FBD8B1D6B1337F0C
:10280800C3B994F81831ABB103F052FB90B1037F10
:1028180083B903F027FB68B103F016FB50B1626E71
:10282800236D9A42C0F0E1803B46002203212046F6
:10283800FFF752FA0425E570B6E70625E570B3E719
:1028480090F8008002F0ECFF054600284DD103F017
:10285800FBFA002849D094F86031C4F8885023B1B5
:102868003A4604212046FFF7CBF99FED757B0026F9
:1028780084ED207B30223146C4F88860A680A4F815
:102888009C6004F59C7003F03AFB04F1D00000F062
:102898000BFE00233146C4F8EC30242204F1F40086
:1028A80003F02DFBB8F1090F04D0B8EB060818BFE8
:1028B8004FF001080023C4E9237384F81931C4F8E0
:1028C8001C3184F82831C4F830313A4600230026F8
:1028D8000027C4E9486784F8008004212046C4F82A
:1028E8002C31FFF7C3F9E5705EE73B460A22062163
:1028F80020460725FFF7F0F9E57055E703F0D8FA09
:102908002378012B054607D0092B3BD0002B0CBFA1
:1029180002250325E57047E794F89530002B89D008
:1029280003F0A0FA002885D0002D83D02B7F002B40
:1029380080D1AB7F002B3FF47DAF03F085FA0028F0
:102948003FF478AF39462046FFF71AFE00283FF4D7
:1029580071AF33780097082B4FF064024FF096035D
:1029680042F2107115BF012000200B250A2503F043
:10297800C9F92A4601463B462046FFF73DFA054677
:10298800E57011E70225E5700EE74B68C2689342CF
:10299800FFF609AF826893423FF705AF836780F877
:1029A80094503022002100F59C7003F0A8FA00260C
:1029B80004F1D00000F078FD2422C4F8EC60002176
:1029C80004F1F40003F09BFA002500220023C4E977
:1029D800482384F81951C4F81C5184F82851C4F8C4
:1029E8002C61C4F83051E570DEE62046FFF7E2F8C6
:1029F800B0221548C4F89070002103F080FA226FC5
:102A0800E3689A42ADBF012200220123002384F823
:102A18009C2084F89D3007DA3A4600212046FFF7CB
:102A280035FC0546E570BFE639462046FFF716FA3D
:102A3800002808BF0725E570B6E600BFAFF30080A1
:102A48000000000000000000A8010020002850D06D
:102A58002DE9F04105782B1F032B0E46044603D9B8
:102A6800A5F10A03012B0AD894F874304BB9022255
:102A7800334620461146BDE8F041FFF72DB9BDE8C1
:102A8800F08194F87530002BF1D0236EA269F31A07
:102A98009342ECD8A5F10A03012BF0D994F89D30A4
:102AA8000BB3D4F8907040F6B733F71B9F421AD98E
:102AB80031462046FFF7BAFA88B3072D0DD0A36C2C
:102AC800BB4217D9052D02D12379012B1AD03146E3
:102AD8002046FFF7ABFA0028D1D031462046BDE8A2
:102AE800F041FFF75FBA072DF1D0D4F89070F71BCB
:102AF800E5E77047334620460822BDE8F041052146
:102B0800FFF7EAB8D4F88C30226AF31A9342DED37E
:102B180033462A4602212046FFF7DEF8D7E7334638
:102B280020460622BDE8F0410521FFF7D5B800BFD1
:102B3800002800F052812DE9F04F2DED028B0C4654
:102B480097B000295FD00B7F16460546002B4BD067
:102B58004B7F002B48D090F874308BB190F87530CB
:102B680073B1D1E90003D5E91612814272EB03076C
:102B780080F02A82A3682A6E9B1A002BC0F2288252
:102B8800A446BCE80F0005F1580795F84DE00FC7BB
:102B98009CE80F0087E80F00BEF1000F04D0E26840
:102BA8002B6D9A4280F00C8295F818212B78002A18
:102BB80039D195F8602112B1062B00F0F580042B6D
:102BC80040F00C81A269EB689A421CDB314628462A
:102BD800FFF72CFAB8B13146284617B0BDEC028B86
:102BE800BDE8F04FFFF7DEB90FCC05F158070FC766
:102BF80094E80F0087E80F002B781A1F032A07D9DB
:102C08000A3B012B04D917B0BDEC028BBDE8F08F4D
:102C1800334603220221284617B0BDEC028BBDE8DB
:102C2800F04FFFF759B8043B032BECD83146284640
:102C3800FFF70CFF95F800A0BAF1050F00F0DA8154
:102C4800BAF1090FDFD005F1D0082B6F0093C14608
:102C5800B9E80F0004AFBC46ACE80F00B9E80F00B4
:102C6800ACE80F00BAF1070FD9F80030D5F878E0D2
:102C7800CCF8003040F03D826B69AEEB0302734440
:102C880003920293EB68009A934200F3DC81039964
:102C98009142134600F3BB82029A9A42ACBF4FF0AE
:102CA800000A4FF0010A03F003F918B1037F002B63
:102CB80000F035820023019395F81931002B00F0BC
:102CC800CE812B6ED5F81C219FEDC77A9B1A07EE93
:102CD800903AF8EE677A87EE878A00234FF0000B68
:102CE800C5F82C3105F1B409012385F82831C5F858
:102CF80030B10DAB5A4639464846DDED007AF8EE5C
:102D0800E78AD5ED1E7AB0EE481AB8EEE70AF0EE7B
:102D1800680A00F0DBFB002800F0CF81D5ED1E7AB1
:102D2800B8EEE70ABAF1000F00F0B981019B002B59
:102D380000F0FE81029B009A85F828B1934280F248
:102D48000982DDED147AF5EEC07AF1EE10FA40F35F
:102D58007D82032385F82831B0EE481AF0EE680A20
:102D6800C5ED4B7A4146484605F1F403002200F0D0
:102D7800ADFB002800F0A1812B6EC5F81C310122A3
:102D880085F81921D5E91623C5E948232B7803F0DE
:102D9800FD02052A00F0988195F86021002A00F0CC
:102DA8007781062B40F0748195F87430002B3FF43E
:102DB8002AAF95F87530002B3FF425AF2B6EAA6922
:102DC800F31A93423FF61FAFA369D5F85C219342EB
:102DD8007FF719AFC5F85C3115E77047052B40F050
:102DE800D0802B79012B7FF40EAF2068D5F8807046
:102DF8006168D5F8842087428A41BFF404AF95F80A
:102E08006121002A00F08481D5F8A010D5F844216A
:102E18004FF0000C914285F861C140F07381D5E90B
:102E28005472D5E9160187428A4180F06B81D5F842
:102E380060E0D5F84C21AEEB0202002AC0F26281B4
:102E48006A4F2A6FC7F89020C7E92801C7F8A8E099
:102E580087F8AC30D7F88C30D7F88800D9171B1A08
:102E680061EBE071022B71F100010FDBD7F88C30B8
:102E7800D7F89000D9171B1A61EBE071022B71F19A
:102E88000001ACBF4FF0010C4FF0000CE96887F867
:102E9800ADC08A42D7F890C0D7F88880C0F2328196
:102EA800AF6F2B69FB1A9A4280F22C816B69D5F8B7
:102EB80040914FEAE77EBF1A6EEBE27ED817BB421D
:102EC80070EB0E0A80F2D68113EB030B40EB000A7D
:102ED800BB457AEB0E0A80F2D8814FF0030AD14540
:102EE80040F0CD8113EB030B40EB000ABB457AEBB6
:102EF8000E0A80F2CD814FF0030AD14500F0EF8130
:102F08004FF00009C5E94E994FEAEC79BCEB080C83
:102F180069EBE878BCF1020F78F10008C5F840A128
:102F2800C0F2BB810023C5E94E33A369994200F37F
:102F38009B800123A5F89C308A42C0F25A81AB6F6E
:102F48002969581A904200F38F800B44934205DA9E
:102F580095F84C306BBB95F8183153BB3146284671
:102F6800FEF734FF00283FF44EAE3022002105F56D
:102F78009C7002F0C4FF07220023C5E923632A706E
:102F880041E6072B7FF43FAE2B6FEA6893425DDB87
:102F9800AA6F6969501A984264DC0A449A426ADA4C
:102FA80095F84C301BB995F81831002B63D0C5F84B
:102FB8009060324601212846FFF75EF8E87022E665
:102FC80033460022032126E688429341BFF41BAE14
:102FD8002B781A1F032A03D90A3B012B3FF613AE9D
:102FE80033460422022116E600007A44A801002094
:102FF80000000000A368D5F8982093423FF403AE80
:103008009B1A002BFFF6FFADAA6F2B69296F009161
:1030180005F1D008D11AC646D31803910293BEE829
:103028000F0004AFBC46ACE80F00BEE80F00ACE8E8
:103038000F0095F80490DEF80030CCF80030B9F1B4
:10304800010F00F0E7804FF0000A2CE6C5F8906009
:10305800324601212846FFF719F9E870D3E51FED3C
:103068001C8A3AE6C5F89060324600212846FFF7E8
:1030780003F8E870C7E502F0D3FB044620B902F074
:10308800E3FE002840F0D18033460A220621C2E53B
:10309800042B3FF497AD052B3FF4A3AEB3E5B0EE98
:1030A800481AF0EE680A52464146484605F1F403CC
:1030B80000F00CFA00287FF45FAE33460B2207219C
:1030C8002846FEF709FE9EE502F0F2FE00283FF4CE
:1030D8009AAD037F002B7FF496AD02F0C3FE002863
:1030E8003FF491AD02F0B0FE00283FF48CAD2B7890
:1030F8005FE52B69AEEB030273444FF0000A0392BD
:103108000293D0E53022002105F59C7002F0F7FE0D
:10311800E968A3692A6F8B42BFF60BAF0CE702F090
:10312800A1FE00283FF4C6AD02F08EFE0190C3E573
:10313800022385F82831019AB0EE481AF0EE680AA1
:103148004146484605F1F40300F0C0F900287FF431
:1031580013AEB2E7039B009A934207DDDDED147AC4
:10316800F5EEC07AF1EE10FA3FF5F3ADB5EEC08A90
:10317800F1EE10FA484605F1F409CCBF012200220D
:10318800B0EE481AF0EE680A4B46414600F09EF948
:10319800002892D0B5EEC08AF1EE10FA7FF7ECADB8
:1031A800029B009A934243DAD5ED447AF5EEC07A51
:1031B800F1EE10FA3CDD032385F828310FCFC5ED79
:1031C8004B7AA8E80F000FCFA8E80F000DF1340ED6
:1031D8003B68C8F80030BEE80F00CC46ACE80F00EA
:1031E800BEE80F00ACE80F00DEF80030CCF8003085
:1031F800C2E53022002105F59C7002F080FE95F8AA
:103208009C1032462846FFF741F8E870FBE44FF07F
:10321800010A48E5A96DD5F88000EA6DD5F8843033
:1032280088429341BFF40FAF2CE5C5F88840EAE423
:10323800039B009A93427FF79FADD5ED447AF5EE54
:10324800C07AF1EE10FA7FF597ADB4E7039B009AC8
:10325800934205DDF5EEC07AF1EE10FA3FF579AD4F
:1032680095F84C30002B81D10423DDED137A85F8D5
:10327800283171E5B9F1010F0DD04FF0010A002393
:10328800C5E94E33C5F840A14FE64FF0020A26E6DD
:103298004FF0020A31E6CA4632E6BB4270EB0E0C2A
:1032A800BFF640AEDB184041BB4270EB0E0025DA9A
:1032B8004FF4FA60D5F83C310133012BC5F83C31A5
:1032C8007FF633AED5F8383103F59673834228BFBD
:1032D8000346C5F838310023C5F83C3125E6C5F862
:1032E80040914FEAEC79BCEB080C69EBE878BCF14B
:1032F800020F78F10008BFF615AED3E74FF47A70E5
:10330800D8E700BF48B102780B2A06D84FF44563C6
:10331800D340DB0701D5FEF7C3BD704720B109B91B
:103328000B220721FEF7D8BC704700BF30B30378E3
:103338000B2B24D8012210B540F6D36C02FA03FEF9
:103348001EEA0C0F12D1052B11D1037973B9D0F8ED
:103358008C30C469CB1AA34208D390ED167B80ED5C
:10336800207BC0F898100271C0F88C1010BD0B4675
:10337800BDE810400B220721FEF7AEBC70470B4694
:103388000B220721FEF7A8BC58B190ED007ADFEDBB
:103398002E7AF0EEC76AF4EE676AF1EE10FA01D9F8
:1033A80000207047D0ED016AB0EEE66AB4EE676AB5
:1033B800F1EE10FAF4D890ED026AF0EEC65AF4EE87
:1033C800675AF1EE10FAEBD8D0ED035AB0EEE55A91
:1033D800B4EE675AF1EE10FAE2D890ED045AF0EE26
:1033E800C54AF4EE674AF1EE10FAD9D8D0ED054A8D
:1033F800B0EEE44AB4EE674AF1EE10FAD0D890ED98
:10340800064AF0EEC43AF4EE673AF1EE10FAC7D87D
:10341800B5EEC07AF1EE10FAC2DBF5EEC06AF1EE55
:1034280010FABDDBB4EEE56AF1EE10FAB8D8B4EEE6
:10343800E45AF1EE10FAB3D8B5EEC04AF1EE10FA3C
:10344800CCBF012000207047FFFF7F7FF0B58BB015
:1034580004460D462422002101A802F050FDF4B1D3
:103468002846FFF791FF0746B0B1AE46BEE80F0009
:1034780001AD2E460FC59EE80700A446012485E845
:1034880007008DF824400FCEACE80F000FCEACE853
:103498000F003368CCF8003038460BB0F0BD274633
:1034A80038460BB0F0BD00BF08B5034650B190F8E0
:1034B80020202AB1FFF768FF024608B10021D96130
:1034C800104608BD0246104608BD00BFF0B52DEDF8
:1034D800048B8BB007460C4616461D462422002155
:1034E80001A8B0EE409AF0EE608AB0EE418A02F090
:1034F80006FD002D00F0398124220021284602F023
:10350800FEFC002C00F0318194F82030002B00F0F4
:103518002C813846FFF738FF8446002800F02581C3
:1035280097ED007AD4ED007AB4EE677AF1EE10FAEE
:1035380040F01B81D7ED015AD4ED017AF4EE675AB9
:10354800F1EE10FA40F0118197ED025AD4ED027AAB
:10355800B4EE675AF1EE10FA40F00781D7ED034A4E
:10356800D4ED037AF4EE674AF1EE10FA40F0FD80EC
:1035780097ED044AD4ED047AB4EE674AF1EE10FAF6
:1035880040F0F38097ED053AD4ED057AB4EE673A4A
:10359800F1EE10FA40F0E980D7ED063AD4ED067A5C
:1035A800F4EE673AF1EE10FA40F0DF80D4ED076AE6
:1035B800DFED807AB0EEE66AB4EE676AF1EE10FAF3
:1035C80000F2D380B0EEC96AB4EE676AF1EE10FA81
:1035D80000F2CB80B0EEE86AB4EE676AF1EE10FA5A
:1035E80000F2C380B0EEC86AB4EE676AF1EE10FA72
:1035F80000F2BB80B5EEC08AF1EE10FA00F1B5809A
:10360800B5EE408AF1EE10FA02D1002E40F0AD80FE
:10361800B4EEE38AF1EE10FA00F3A78039EE686A97
:10362800DFED647AF0EEC63AF4EE673AF1EE10FA9E
:1036380000F29B8026EE077AF0EEC73AF4EE673A7E
:10364800F1EE10FA00F29180DFED5B3AF4EE635A86
:10365800F1EE10FA40F09080002E00F09680F5EE22
:10366800C05AF1EE10FA40F39080F0EE636A66EE0D
:10367800257ADFED505AF0EEE73AF4EE653AF1EECE
:1036880010FA72D868EE277AF0EEE73AF4EE653A67
:10369800F1EE10FA69D877EEA67AF0EEE73AF4EE92
:1036A800653AF1EE10FA60D8F4EEC47AF1EE10FA49
:1036B80008D4F4EEC37AF1EE10FAD4BFB0EE674A3C
:1036C800B0EE434A77EE047ADFED3A5AF0EEE73A85
:1036D800F4EE653AF1EE10FA47D8F4EEE47AF1EE3A
:1036E80010FA57DDB5EEC06AF1EE10FA52DD77EE4A
:1036F800267ADFED305AB0EEE74AB4EE654AF1EECD
:1037080010FA32D8B4EEE75AF1EE10FA08DCF4EE0B
:10371800E74AF1EE10FA54BFB0EE675AB0EE645AB9
:10372800B4EE675AF1EE10FA14BF012300238DF8A6
:1037380025608DF824308DED019ACDED028A8DED4E
:10374800036A8DED048A01AE0FCE8DED057ACDEDBD
:10375800066ACDED077A8DED085AC4ED076A0FC5E4
:103768000FCE0FC533682B6001E04FF0000C6046A8
:103778000BB0BDEC048BF0BD002EB8D0F5EEC05AEE
:10378800F1EE10FA3FF773AFB1E777EE237AF0EE78
:10379800636AB7E7F4EEC57AF1EE10FA07D5B5EE2D
:1037A800C06AF1EE10FAA2D4F0EE446AB8E7F0EE7F
:1037B800446AACE7FFFF7F7F0000000078B170B576
:1037C8000D46164604464FF4B872002102F097FBE6
:1037D800324629462046BDE87040FEF7E3BE7047F2
:1037E80040B170B504461546FEF792FF2678012EC3
:1037F80001D070BD704707492046FEF7B7FD002885
:10380800F7D02B46324631462046BDE87040FFF7D8
:1038180085BD00BFA4620008F0B589B0064617460A
:103828000C4620220021684602F069FB7EB374B37F
:10383800D4E9042352EA030129D0D6E95A01904277
:10384800994124D2CDE90023A36902932346D4F8F1
:103858000200049033F8020B03909A889B79ADF824
:103868001420012506A98DF816308DF81C50FEF796
:1038780051F994ED047B8DF81D0086ED5A7B304696
:103888003A466946FFF754F9284609B0F0BD0020CA
:1038980009B0F0BDC0B170B50D460446FFF7D6F8C3
:1038A800284602F001F828B929462046BDE87040AC
:1038B800FFF728BD01F0B4FF2B4620460A22BDE8D9
:1038C80070400621FFF72ABD704700BF08B1FFF717
:1038D8002DBD7047704700BF1C4A1D4B116B41F04E
:1038E800020182B01163116B01914FF4C02001995C
:1038F8009861D968174821F03C0141F02801D96046
:10390800596821F006015960196821F03C0141F01D
:1039180014011960136C43F003031364136C0193CF
:103928004FF0804C0021019BCCF83C10C163DCF8BF
:10393800203023F48073CCF82030036A23F480739A
:103948000362BFF34F8F02B0704700BF00380240D8
:10395800000402400004004010B59AB00446442216
:10396800002109A802F0CBFA002341F2BF2160220E
:1039780008A8CDE90333CDE9053302930B910192F1
:1039880007930894FDF7A4FF082201A908A8FDF7EA
:10399800FBFF1AB010BD00BF70B58AB02A4B0024D7
:1039A80001941A6B42F002021A631A6B02F00202C7
:1039B8000192019A02941A6C42F001021A641A6C7C
:1039C80002F001020292029A03941A6C42F0020277
:1039D8001A641B6C03F002030393039B00F03AF88C
:1039E8001A4908944FF4C0228A6102250623012649
:1039F80004A916480493CDE905650795FCF798FED8
:103A080004A94FF48062022310480896CDE90423E4
:103A1800CDE90645FCF78CFE0122022304A90B48D8
:103A28000694CDE90423CDE90755FCF781FE4FF054
:103A38008040FFF791FF0648FFF78EFF0AB0BDE808
:103A4800704000F047B800BF003802400004024050
:103A5800000400401C4A1D4B116B41F0020182B06A
:103A68001163116B01914FF4C02001999861D968D5
:103A7800174821F03C0141F02801D960596821F02C
:103A880006015960196821F03C0141F014011960E0
:103A9800136C43F003031364136C01934FF0804CD1
:103AA8000021019BCCF83C10C163DCF8203023F4E2
:103AB8008073CCF82030036A23F480730362BFF369
:103AC8004F8F02B0704700BF003802400004024028
:103AD80000040040FFF7BEBF08B568B90B490C48A1
:103AE8000122FDF7F5FA08B9012008BD094AD36992
:103AF80001330020D36108BD0548FDF711FB0028FC
:103B0800ECD0044A936901339361E7E7D0020020BF
:103B1800D802002058020020F0B5282287B00021E2
:103B28003548364D002402F0EAF9354800F0C6FA67
:103B3800CDE90144CDE90344009405942B6B314849
:103B480043F004032B632B6B03F00403224600931A
:103B58004FF480710227009B0126FCF7D9FE4FF431
:103B680080732848039401A9CDE901360497FCF72E
:103B7800DFFDC0232348019301A908230593CDE95C
:103B880003470297FCF7D4FD01946B6C43F02003C4
:103B98006B646B6C03F020030193019A1A4A1B4B68
:103BA80013604FF4E133536010460C23C2E902441A
:103BB800C2E90443C2E90644FDF71EFA10B1002029
:103BC80007B0F0BD024605214720FCF72DFD472030
:103BD800FCF766FD0E490C483246FDF779FA10B934
:103BE800304607B0F0BD044AD36947203344D36157
:103BF800FCF764FDE3E700BF5802002000380240EC
:103C08008002002000080240D80200200014014071
:103C1800D002002008B54720FCF750FD1048FDF7FA
:103C28007FFA0F48FDF71CFA08B1002008BD0C48C0
:103C3800FDF7E2F90028F8D10A4800F03FFA4720DA
:103C4800FCF72EFD084906480122FDF741FA08B99C
:103C5800012008BD054AD3690133D361E5E700BFF8
:103C6800D802002080020020D00200205802002044
:103C78000148FDF715BB00BFD802002038B504463F
:103C8800D0B1EFF3108572B60C4800F0ABFA864657
:103C9800BEE80F00A446ACE80F00BEE80F00ACE891
:103CA8000F00BEE80F00ACE80F009EE80F008CE89C
:103CB8000F0005B962B6012038BD00BF80020020A0
:103CC80028B1114B02689A4202D000207047704711
:103CD80010B50E4C236801332360FCF77BFC0C49BC
:103CE800034601220B4800F0EFF909490A4801226E
:103CF800FDF7EEF908B9012010BDE369012003447E
:103D0800E361FFF7E9FEF6E70014014058020020DE
:103D1800D002002080020020D802002028B1174BD2
:103D280002689A4202D000207047704710B5144BC1
:103D3800446C5A6890F842101C6201325A60426C16
:103D48005962120702D59A6801329A60426C540788
:103D580002D5DA680132DA60426C910702D51A6935
:103D680001321A61426CD20702D55A6901325A618E
:103D78000120FFF7B1FE012010BD00BF0014014073
:103D880058020020B0B170B50D4649B116464FF63D
:103D9800FE73013A9A4203D80446FDF7C1F908B107
:103DA800002070BDB2B229462046FDF775F918B952
:103DB800012070BD00207047054906480122FDF723
:103DC80087F9B0FA80F14909034800F0A1FEE7E756
:103DD8006004002068040020200300200A460248EE
:103DE8000221FCF795BD00BF0000024000286ED0FC
:103DF8002DE9F041014688B03848394E002400F0DA
:103E0800ABFB384800F02AFECDE90344CDE9054470
:103E180002940794336B344843F001033363336BE4
:103E280003F001032246029302210225029B012787
:103E3800FCF76EFD2C4803A9CDE90357CDE90545EC
:103E48004FF00C08FCF774FC07232748049503A9D6
:103E58000695264D07930594CDF80C80FCF768FC71
:103E6800234B244A1D492448009500F08FFDC5E9DD
:103E78000244C5E906440394C5F814802C61336CE8
:103E88001E4A43F400333364336C03F40033039362
:103E980028464FF4E133C5E900230399FDF7ACF850
:103EA80018B1002008B0BDE8F0810246052126209F
:103EB800FCF7BAFB2620FCF7F3FB11493A462846E3
:103EC800FDF706F928B9384608B0BDE8F0810020AA
:103ED80070472620FCF7F2FBE3E700BF8C030020C5
:103EE800003802402003002000000240680400203F
:103EF8008D3D0008E53D000878030020004400409F
:103F0800600400200148FDF7CBB900BF6804002019
:103F180070B5194B90B026205E68FCF7CFFBBFF355
:103F28005F8F3F226946154800F0C6FD05461348D5
:103F380000F010FE0446BFF35F8F710606D455B932
:103F4800A2070FD4E30712D410B070BD2620FCF7E7
:103F5800A7FB002DF4D02A460948694600F008FB63
:103F6800A207EFD5074800F065FD10B070BD054801
:103F780000F04CFD10B070BD00E100E0200300200F
:103F88008C030020780300200146014800F032BB72
:103F98008C03002010B50446084800F019FB08B946
:103FA800002010BD054800F01DFB0028F8D121466F
:103FB8000248BDE8104000F09DBB00BF8C03002004
:103FC800014800F0F5BC00BF7803002028B10D4B74
:103FD80002689A4202D000207047704710B50A4C18
:103FE8000A48217800F04AFD012221460848FDF7D9
:103FF8006FF8B0FA80F14909044800F089FD012002
:1040080010BD00BF004400406004002020030020D1
:1040180068040020E0B108B502680E4B9A4201D04E
:10402800002008BD00220C480221FCF771FC0B4857
:10403800012100F083FD012209490A48FDF748F8EB
:10404800B0FA80F14909054800F062FD012008BD79
:10405800704700BF004400400000024020030020D9
:104068006004002068040020E0B108B502680E4B27
:104078009A4201D0002008BD00220C480221FCF71A
:1040880047FC0B48022100F059FD012209490A4862
:10409800FDF71EF8B0FA80F14909054800F038FD2F
:1040A800012008BD704700BF0044004000000240E6
:1040B80020030020600400206804002018B150226A
:1040C800002101F01CBF7047002800F08A800029F9
:1040D80000F08780002A00F084802DE9F041013A41
:1040E80082B01F4604464D1E8E184FF0000809E0A6
:1040F800FD2820D0226BE36B013201332263E36396
:10410800B5421DD0A26815F8010F002AF0D0511C45
:104118000729A054A160F3D101AA2046ADF8048074
:1041280000F038FD90B304280DD005280ED1A36BFC
:104138000133A3630AE00123B5422070A360E1D1F3
:1041480002B0BDE8F081636B01336363A268D4F801
:104158003CC0012A41D92346012102E001319142A4
:104168000FD013F8010FFD28F8D10CEB01038A4298
:10417800E36308D9521AA2602144204601F0A6FE42
:10418800BEE76144E1630023A360B9E72346A28840
:1041980053F8121BC4F81210A17999719A80E36A36
:1041A800BDF8040053B1226C616CBA1A09B18A4295
:1041B80000D26264A16C8A4288BFA2640133C4E958
:1041C8000A73236A208201332362636A276443F1F6
:1041D800000363620023A36092E70CF10103E36329
:1041E800D1E7704700B11030704700BF10B582B0FA
:1041F8004FF0010E00248DF800E0019458B1062913
:104208000CD005290BD1012A15D0911E012906D8F9
:10421800B3F57F4F1ED0704602B010BD12B1062014
:1042280002B010BD0724049A8DF800406946019336
:10423800FEF79AFAF4E7B3F57F4F844602D01BB134
:104248001046EDE78DF80040049A69466046FEF78F
:104258008BFAE5E7032A14BF09230823049A8DF88B
:1042680000306946FEF780FADAE700BF50B142B184
:1042780039B990F894300BB1B0F87810118001205A
:1042880070470020704700BF002800F0E7802DE944
:10429800F0411E46002B40D00C461746804601F0E0
:1042A80007FE0546002838D0A4F10B03062B1AD9BF
:1042B800A4F11403032B1DD9242C2ED8DFE804F015
:1042C8002F414E52565A5E61696C6F2D2D2D2D2D42
:1042D8002D2D888B2D2D2D2D8F93979BA4ADB1B5AA
:1042E800B9BDC5C9CC00444494F85D303380012081
:1042F800BDE8F081C4F117042401D8F85C10D8F89F
:104308005830C4F12002E34001FA02F2203C134382
:1043180021FA04F423433380E9E70020E8E798F81A
:104328007430002B00F09C8098F87530002B00F05A
:104338009780D8F87030B3F5803F80F091809BB2B9
:10434800E9E798F87430002B00F08A80D8F86420E8
:104358004FF6FF73934228BF1346F0E798F80030F2
:104368003380C4E798F801303380C0E798F802300A
:104378003380BCE798F803303380B8E7037833809C
:10438800B5E742684FF6FF73934228BF1346338060
:10439800ADE7038B3380AAE7438B3380A7E7394621
:1043A8004046FEF7EDF82B7F697FAA7F9B0043EA22
:1043B800C10398F8941043EA410343EA021398F8BA
:1043C8004C2003439BB2002A4DD143F02003A2E7BF
:1043D800C37F33808BE790F82030338087E7B8F8C5
:1043E8006230338083E7D8F8603033807FE7B8F8ED
:1043F800B03033807BE7D8F8A8204FF6FF7393429C
:1044080028BF1346338072E7D8F8AC204FF6FF7305
:10441800934228BF1346338069E7B8F8A230338047
:1044280065E7D8F8A030338061E7B8F8A630338064
:104438005DE7D8F8A430338059E798F89430002B1A
:104448003FF469AFB8F8783065E74AF20173338012
:104458004DE73A0C32804AE7378048E7002070473A
:104468004FF6FF7357E743F0600354E7436A072B9F
:1044780071D970B50446051D461D0621284600F071
:10448800ADFB62892379824211D0012B04D1D4F883
:10449800B4300133C4F8B430D4F8BC30626A0133A4
:1044A800012AC4F8BC302CD80023636270BD012BEC
:1044B80013D0D4E92E13626A01310833082AC4E9FB
:1044C8002E13F1D9083A626204F10C01284601F072
:1044D800FDFC636A072BD0D870BDD4F8B020617991
:1044E80001320529C4F8B02012D0A36C032B1FD9C0
:1044F800D4F8C4300133C4F8C430626A082AD3D966
:10450800E0E7013A62623146284601F0DFFCE0E765
:10451800E288B2F5807FE8D12289002AE5D194F8B3
:1045280054208AB1D4F8C8300133C4F8C830E4E75D
:1045380005332868696844F8330004EBC302516006
:10454800A36C0133A364D8E72A6869682165E2642B
:1045580084F85430D1E7704748B138B504460D4661
:10456800D0220021043001F0CAFC256038BD704714
:1045780068B361B35AB3013A2DE9F04705464E1EB8
:104588008F184FF01F0A00F1050900F104080AE02E
:10459800621C2C4416F8013F237128466A62FFF713
:1045A80065FFBE4211D06C6A202CF1D1D5F8BC3021
:1045B800C5F824A001331F22C5F8BC30494640463F
:1045C80001F084FC22461F24E3E7BDE8F08770472A
:1045D80010B5044628B1FFF749FFA06C003818BF92
:1045E800012010BD10B5044618B1FFF73FFF94F83D
:1045F800540010BD2DE9F04184B040B10368044671
:104608002BB10D46FFF732FF94F8546026B9002607
:10461800304604B0BDE8F0810095E06C216DB4F837
:104628004E2002AB03C3B4F8503094F84D10206804
:10463800002552BA5BBA9BB292B284F85450FFF785
:10464800D5FDD4F8CC30A26CA5641344C4F8CC30A2
:1046580094F8AC30002B39D100283DD048F20153F2
:104668000128A4F8853004F1850841D006280CBF3C
:104678000223042384F887300321404600F0AEFA71
:10468800030A84F88930D4F8C03084F888000522F9
:104698000133C4F8A820C4F8C03094F88450012726
:1046A80084F8AC70002DB3D1D4F8A820414604F1A9
:1046B8005D0001F051FCD4F8A830C4F8803084F8CB
:1046C8008470C4F8A85084F8AC50A1E7D4F8D0306E
:1046D8000133C4F8D0309BE702AB03CB082304F1C5
:1046E8008508C4F88500C4F88910C4F8A830D4E750
:1046F8000323BFE700285FD02DE9F047036884B0A3
:10470800044643B10D46FFF7B1FE94F8543013B98F
:1047180094F884301BB1002004B0BDE8F08720462F
:10472800FFF7A4FEA16C0029F5D0A26AC4F85520B1
:104738000129E26AC4F8592004F1550604F1280356
:104748000CD00122194653F8080FD3F804C0C1F859
:1047580004C00860A16C01329142F3D894F85680E5
:10476800A8F103030139012BA16440D9A8F105037D
:10477800012B23D9012568F07F0884F85D5084F85F
:104788005E8084F85F50032104F15D0000F026FA92
:10479800D4F8C03084F86000010A05222B4484F85C
:1047A8006110C4F8802084F88450C4F8C0302046D2
:1047B800FFF75CFE0120AFE700207047B4F8571000
:1047C800B4F859304ABA5BBAB8F1060F9BB292B244
:1047D80040D0511E02293FD9012568F07F080223E5
:1047E80084F85D5084F85E8084F85F30CBE7B4F8D5
:1047F8005990B4F8577099FA99F91FFA89F909F19B
:10480800FF337FBA0A2BBFB200F281804FEA490A10
:10481800264604EB490913E00DF10E032A46FFF77B
:1048280033FD013770B3BDF80E3086F861301B0ACE
:1048380086F860300236B1454FD0B7F5803F21D0B9
:10484800B8F1030F2068B9B2E6D10DF10E02FFF7F7
:104858000DFDE6E70029BFD1009520684146FFF726
:10486800C5FC60B301285DD006280CBF02230423D1
:10487800012568F07F0884F85D5084F85E8084F82C
:104888005F3080E7012568F07F08022384F85D50D7
:1048980084F85E8084F85F30032104F15D0000F045
:1048A8009DF9D4F8C03084F86000010A052284F824
:1048B8006110C4F8802084F884502B4475E771682F
:1048C800D4F85500C4F85D0008220123C4F861102B
:1048D800C4F8802084F8843069E704F15D05012676
:1048E8000AF105030AF10307284684F85D6084F895
:1048F8005E8084F85FA0C4F88030394600F06EF915
:10490800E8555544000A287184F884604FE703216C
:10491800012568F07F0884F85D5084F85E8084F88B
:104928005F10BAE70323A3E748B149B190F8843090
:1049380023B1D0F880300B605D307047184670475F
:104948000846704770B138B590F8AC300025044679
:1049580080F88450C0F880502BB92046BDE8384014
:10496800FFF784BD7047D0F8A82000F185015D30BD
:1049780001F0F2FAD4F8A820C4F88020012384F8C2
:104988008430C4F8A85084F8AC50E6E710B4019C11
:1049980050B1C0E900120021C0E9023401611AB126
:1049A80020465DF8044B10475DF8044B704700BF84
:1049B80040B330B50446006883B028B163681BB1C2
:1049C800A3680BB1237C1BB10021084603B030BD9E
:1049D80001A9FFF7A9FF05460028F5D06368E0683C
:1049E800012198472946A368019AE068984701463B
:1049F80020B101230846237403B030BD6368E06822
:104A08009847E1E700210846704700BF80B1436836
:104A180010B5044623B1C06800219847237C03B928
:104A280010BD002320682374BDE81040FFF78ABF3B
:104A3800704700BF80B1436810B5044623B1C06811
:104A480000219847237C03B910BD002320682374F4
:104A5800BDE81040FFF776BF704700BF68B110B5DA
:104A680040220021044601F04AFA002323646364CB
:104A7800A364E3642365636510BD7047C8B1026C25
:104A8800BFF35B8F531C03F03F03D0F844C0BFF360
:104A98005B8F634505D08154BFF35B8F03640120AE
:104AA8007047483050E8003F013340E80032002AA0
:104AB800F8D10020704700BF70B5864610B111B319
:104AC8000AB9104670BD436CBFF35B8F056CBFF32A
:104AD8005B8F9D4219D0013A8E1801F1FF3C5C1C96
:104AE8001EF80300624604F03F030232AB420CF8A2
:104AF800010FA2EB010001D0B445F0D1BFF35B8FE9
:104B0800CEF8443070BD084670BD0020F6E700BFFF
:104B180050B100F14C0353E800CF0CF1010C43E80D
:104B280000C2002AF7D101B17047503050E8003F69
:104B3800013340E80032002AF8D1704748B1BFF38A
:104B48005B8F543050E8003F0B4340E80032002AA6
:104B5800F8D1704760B1BFF35B8F00F154030022B6
:104B680053E8000F43E800210029F9D1BFF35B8F18
:104B7800704700BF60B151B10139431E421800208F
:104B880013F8011F934280EA0100F9D170470846E3
:104B9800704700BFE0B170B51546DAB1072911D1E9
:104BA8000378FD2B04460FD105214679FFF7E2FF74
:104BB80086420BD1A379FE2B0ED1B4F801302B809D
:104BC800002070BD022070BD032070BD042070BDA0
:104BD80001207047012070BD052070BD8446E0B1FA
:104BE800C9B100B500EB010E4FF6FF701CF8013B90
:104BF8000822584000F0010303EB830103EB413323
:104C080083EA5000531E13F0FF0280B2F2D1E6454A
:104C1800ECD15DF804FB08467047704701207047E7
:104C2800F0B5044689B00D46164600214822CDE964
:104C38000211CDE90411CDE906111F4601F05FF913
:104C480041F2BF22E2602560602220460192FCF713
:104C58003FFE20B1084B1E70002009B0F0BD0822AD
:104C680001A92046FCF790FE10B9012009B0F0BD5B
:104C7800014B1F70F0E700BFB00400202DE9F04F92
:104C88004FF08044A64FA74D002683B08146884642
:104C98003E70FEF7DFFE236823F0010323602B68D4
:104CA80023F001032B6026612E61BFF34F8F9E4BCB
:104CB80093F800A0BAF1000F44D008F1FF339BB27B
:104CC80041F2BE22934228D8FFF7A8FF06460028E3
:104CD8004BD008219548FCF7A7FD08218246944847
:104CE800FCF7A2FDBAF1000F40F0CF8000283ED0BB
:104CF8000B233B70FEF7AEFE4FF08042894B1168E4
:104D080021F0010111601968002021F001011960EA
:104D180010611861BFF34F8F0FE008233B70FEF757
:104D280099FE236823F0010323602B6823F0010315
:104D38002B6026612E61BFF34F8F0026304603B0EB
:104D4800BDE8F08F07233B70FEF784FE236823F04D
:104D5800010323602B6823F001032B60C4F810A023
:104D6800C5F810A0BFF34F8FE7E70923D6E76F4BCD
:104D78001B68D8636E4B1B68D86301236062686246
:104D880063616B6120612861BFF34F8F694B5B6979
:104D980013F0060F77D1E36B002B74D1EB6B002B6C
:104DA80071D1636A002B6ED16B6A002B6BD14FF007
:104DB80080452B6ADC0566D4DFF868A1DAF8203074
:104DC800D80560D42B68D9075DD4DAF8003013F021
:104DD800010B58D155480821FCF724FD044600284A
:104DE80057D153480821FCF71DFD002866D1BFF3B1
:104DF8004F8F504B5B6913F0060F48D1EB6B002BBC
:104E080045D1DAF83C300193002B40D12B6ADA0502
:104E18003DD5444D2B6ADB0539D54FF0804BDBF887
:104E28000030DC0733D52B68D80730D5DFF804A16C
:104E38006FF001030024CBF8244001226C620621A4
:104E4800CBF8103050462B61FBF762FDBFF34F8F54
:104E5800DAF8143003F00603062B4DD1334B1968EA
:104E6800334B42461B68B9F1000F3BD0CC63C3F803
:104E78003C80BFF34F8F2F4B5B6903F00603062B73
:104E88005AD0322335E72D2333E70A2331E730237D
:104E98002FE72E233B70FEF7DDFD2B6823F001037F
:104EA8002B60DAF8003023F00103CAF80030C5F8A7
:104EB80010B0CAF810B0BFF34F8F3EE72F233B70F6
:104EC800FEF7C8FD2B6823F001032B60DAF80030E9
:104ED80023F00103CAF800302C61CAF81040BFF370
:104EE8004F8F2AE7C1F83C80C3F83C90BFF34F8F3F
:104EF8004A46CDF80480BEE731233B70FEF7AAFD91
:104F0800DBF8003023F00103CBF800302B6823F0E6
:104F180001032B60CBF810402C61BFF34F8F0CE7D7
:104F2800B00400200004004044050020FC040020D8
:104F3800B4040020000402404FF08043196AC905F8
:104F48009FD50D49086AC5059BD51868C40798D52B
:104F58000868C00795D5D86B019CA04291D1C86B51
:104F680090428ED1DB6B002B3FF4E8AECB6B002B6D
:104F78003FF4E4AE85E700BF0004004008B5FEF743
:104F880069FD4FF08042074B116821F00101116063
:104F98001968002021F00101196010611861BFF340
:104FA8004F8F08BD000400400F4B586910F00600F1
:104FB80018D14FF08043DA6B9AB90C49C86B88B99D
:104FC8001A6A12F480720CD1086A10F4807007D142
:104FD8001B68DB0705D40868C04300F00100704770
:104FE800104670470020704700040240000400404B
:104FF8002DE9F0478A4DDFF844828A4E8A4F4FF0F8
:10500800000984B085F80090D8F8303086F8009010
:1050180043F00203C8F83030D8F8403043F00303B7
:10502800C8F84030D8F830300393D8F84020039BB4
:105038004FF0804453400393039BFEF70BFD236816
:1050480023F0010323603B6823F001033B60C4F8AD
:105058001090C7F81090BFF34F8F744B74484FF4FB
:10506800C0229A615A6822F006025A609A6842F091
:105078003C029A60DA6822F03C0242F02802DA60C8
:105088001A6822F03C0242F014021A601A6822F4EC
:10509800401242F400121A605A6822F480625A6080
:1050A8009A6842F440129A60DA6822F44012DA6090
:1050B8005A6A22F4706242F480725A621A6822F0C4
:1050C800030242F002021A605A6822F001025A6092
:1050D8009A6842F003029A60DA6822F00302DA6002
:1050E8001A6A22F00F0242F002021A6221460223D3
:1050F8000122FFF795FD002837D04E4804230322EC
:105108003946FFF78DFD824680B3FEF7A3FC23687E
:1051180023F0010323603B6823F001033B60C4F8DC
:105128001090C7F81090BFF34F8FFBF7ADFED8F87B
:10513800083013F4E05F404B18BF4000984229D074
:1051480005232B70FEF786FC4FF08042364B116822
:1051580021F0010111601968002021F00101196096
:1051680010611861BFF34F8F10E08246FEF772FCA2
:10517800236823F0010323603B6823F001033B60AD
:10518800C4F810A0C7F810A0BFF34F8F002004B0D8
:10519800BDE8F0874FF080439A6A002AD0D1224AAE
:1051A800916A0029CCD1D96A41F2BF208142C7D186
:1051B800D06A8842C4D1D96901F070016029BFD191
:1051C800D16901F070016029BAD1196A8805B7D48C
:1051D800126A9105B4D4DB695A07B1D4124CE36959
:1051E8005B07ADD4FFF7E0FE20B10123337004B0B4
:1051F800BDE8F087062301902B70FEF72BFC4FF0DB
:10520800804301981A6822F001021A60226822F08D
:105218000102226018612061BFF34F8FB6E700BF1B
:10522800B0040020440500200004004000040240AF
:10523800FC040020B404002000D8B805003802405F
:1052480001460120FFF71ABD01460020FFF716BDF1
:10525800014B1878704700BFB00400200A4B0022A9
:1052680010B5DA601968094C21F001011960322083
:105278001A615A622270FBF721FA3220FBF74AFAC8
:10528800BFF34F8F10BD00BF000C00404705002042
:10529800F0B53149314E324C324A334D002383B098
:1052A80008603370237013702B70002851D02F4F73
:1052B8002F49386C40F008003864386C0190019828
:1052C800CB60086820F0010008600B6132204B6257
:1052D8001370FBF7F3F93220FBF71CFABFF34F8F7B
:1052E800FBF7D2FDBB68234A13F4E05F18BF400008
:1052F800A0F51C53103B934226D81F4B1F4A00FBB6
:1053080003F3B2EB331F1FD31D4A194BA2FB002036
:10531800400B1C4A013810600C221A60012600223A
:105328004FF0FF315A609A609A611A629862D962A6
:1053380032205A6304215E611A61FBF775F9304621
:1053480026702E7003B0F0BD12233370002003B016
:10535800F0BD11233370F9E7500500204505002002
:105368004805002047050020460500200038024077
:10537800000C0040FFFF0F27917EFB3AB88D060016
:105388005917B7D14C0500202DE9F041354C364F5F
:10539800364B002582B03D70E560226822F001029C
:1053A8002260064625613220656288461D70FBF73B
:1053B80085F93220FBF7AEF9BFF34F8F2C4A1278EC
:1053C800002A45D02B490A78002A41D0002E3FD028
:1053D80046453DD20A20A6FB0036A8FB00800643BE
:1053E800002E3CD14FF00C0E234E0192C4F800E081
:1053F8003668A66208F1FF30E06201260320636385
:10540800656266612561E0603220FBF783F92068F8
:10541800164B30431E702060BFF34F8F2568019AEA
:105428001449354017D115223A700D70E56023688C
:1054380023F0010323600D4B2561322065621D7046
:10544800FBF73CF93220FBF765F9BFF34F8F01E01A
:1054580013223A700022104602B0BDE8F0811422EF
:105468003A70F7E7000C004045050020470500208A
:1054780048050020460500204C050020034B1878FD
:1054880018B1034B186800F0010070474705002069
:10549800000C0040024B187808B1024B187870478E
:1054A8004805002046050020014B1878704700BFCA
:1054B80045050020314B70B51B68314C2269002B23
:1054C80045D0304E357845B391051AD52E492F4A27
:1054D800192008700021117002209847284B0022DB
:1054E800DA60196821F00101196032201A615A62E4
:1054F8003270FBF7E3F83220FBF70CF9BFF34F8F5C
:1055080070BD12F0010020D112F00202E5D11E494F
:105518001A2008701D490A70DEE71C491A4A0D70E6
:105528000220182111709847E560236823F00103D1
:1055380023603220256165623570FBF7BFF83220A1
:10554800FBF7E8F8BFF34F8F70BD0120C5E70E49A0
:105558000E4A1B2008701370E3602268094922F084
:10556800010222603220236163620B70FBF7A6F808
:105578003220FBF7CFF8BFF34F8F70BD50050020E6
:10558800000C004047050020450500204605002086
:1055980038B5104B104D1B7800222A707BB10F4B89
:1055A8001C7864B10E4A126940F203231A420BD1E7
:1055B8003220FBF775F8BFF34F8F204638BD16230E
:1055C8002B700024204638BD17242C70FFF772FF7B
:1055D8002C70F6E747050020450500204605002009
:1055E800000C004010B50446FFF7C8FCFFF736FE74
:1055F8000249034B0C7001221A7010BD550500209A
:105608005405002010B5FFF7B9FCFFF727FEFFF798
:1056180005FB0E4C80F001006077FFF7C5FCA07712
:1056280018B1FFF72BFF40B910BDE37F1BB942F655
:105638000403A4F81F30042010BDE37F1BB942F611
:105648000313A4F81F30032010BD00BF5805002025
:1056580038B50546FFF7E2FA254C80F0010060777F
:10566800FFF7A2FCA07760B1022D33D02DB3012D36
:105678004FF0000028D003220023A270A3612377F3
:1056880038BDFFF77BFCFFF7C9FA80F001006077AF
:10569800FFF78AFCA077FFF7DBFDE37F33B900282B
:1056A80008BF22200423E37784F820000420032283
:1056B8000023A270A361237738BD01220023A270C2
:1056C8002846A361237738BD02220023A270A36174
:1056D800237738BDFFF7E8FEE37F33B9002808BF1A
:1056E8002C200323E37784F8200003200246DFE719
:1056F8005805002001281DD870B504461D4645F6FA
:10570800BF504B1E834213D816468AB185B141F269
:10571800BF220023E1FB0203194645F6C0520023CD
:10572800FAF786FD80B23CB934802880002070BD2D
:10573800012070BD012070474FF0000330802B809E
:10574800F4E700BF70B5314C314EFFF717FC00216C
:105758002422204600F0D3FB2E4A2F4B002515703B
:1057680002221A703570FFF759FA80F0010060774D
:10577800FFF71AFCA077FFF73BFC80B12748FFF73B
:1057880087FD58B301233370FFF748FA80F0010012
:105798006077FFF709FCA077C0B1284670BDFFF716
:1057A800EDFBFFF73BFA80F001006077FFF7FCFBA9
:1057B800A077FFF74DFDE37F33B9A84208BF2C203F
:1057C8000423E37784F82000042070BDE37F002BD6
:1057D800FAD141F60443A4F81F30F5E7FFF7CEFBF2
:1057E800FFF71CFA80F001006077FFF7DDFBA07778
:1057F800FFF75AFEE37F33B9002808BF2C200323A4
:10580800E37784F82000032070BD00BF580500200E
:10581800560500205405002055050020ED550008C8
:1058280038B5FFF7ABFB1D4CFFF718FD1C4A1D48A8
:10583800002302210370C4E90133C4E90333237050
:105848001170A3612377FFF7E9F980F00100607711
:10585800FFF7AAFB0546A077FFF710FE0DB198B930
:1058680038BDE37F1BB942F60423A4F81F30FFF7C5
:1058780085FBFFF7D3F980F001006077FFF794FB11
:105888000346A377042038BDE37F1BB942F60333F0
:10589800A4F81F30FFF7E2FC032038BD58050020AC
:1058A80055050020540500202DE9F0415F4C237870
:1058B8003BB15F4A002310782370BDE8F041FFF741
:1058C800C7BE03F0FF070546FFF7A8F9594E80F059
:1058D80001007077FFF768FB2378B07703F0FF08C3
:1058E80033B1534B18782770BDE8F041FFF7B0BECD
:1058F800337F0BBB00283CD0FFF7C0FD68B9FFF72A
:10590800C9FD034698BB2278002A57D0484A107828
:105918002370BDE8F041FFF79BBEFFF72FFBFFF7B1
:105928009DFCF37F0322B2701BB942F60313A6F85D
:105938001F300320BDE8F081FFF7ACFD034670BBC4
:105948002278002AE2D1FFF7AFFDF37F33B90028B0
:1059580008BF23200323F37786F82000FFF70EFB08
:10596800FFF77CFCBDE8F0410220FFF771BE002084
:10597800E0E7FFF703FBFFF771FCFFF74FF980F053
:1059880001007077FFF710FBF37FB0770322B27046
:105998001BB942F60403A6F81F300420CAE7FFF734
:1059A8006DFD0346B8B92278002AAFD1F37F002BEA
:1059B800D4D142F20343A6F81F30CFE7FFF774FDB6
:1059C800F37F002BB5D1002808BF23200323F377EA
:1059D80086F82000ADE73369E81A002809DB237848
:1059E800DBB1134B187884F80080BDE8F041FFF76D
:1059F8002FBEB37F002BBAD02378002BF1D1F37FD1
:105A08001BB942F20463A6F81F30FFF7B7FAFFF795
:105A180025FC0220FFF71CFEBFE7F37F002B9DD17A
:105A280042F20353A6F81F3098E700BF5405002040
:105A380055050020580500202DE9F04FAD4F83B0E3
:105A480097F81C909DF834A0B9F1000F40F08F80B2
:105A5800144612B19A421D4603D3012003B0BDE893
:105A6800F08F01280646F8D84B1E45F6BF508342F2
:105A78008846F2D841F2BF234946E8FB030145F6C0
:105A8800C0520023FAF7D4FB1FFA80FB002E72D015
:105A9800CDF804B0CB464FF00009A7F81F90FFF7E8
:105AA8006DFAFFF7DBFBFFF7B9F880F001007877B4
:105AB800FFF77AFA904BB8771B78002B5DD0002857
:105AC8005BD0FFF7ABF8002800F0C3807B697E70DD
